{
  "contractName": "NFTXv2",
  "abi": [
    {
      "anonymous": false,
      "inputs": [
        {
          "indexed": false,
          "internalType": "uint256",
          "name": "vaultId",
          "type": "uint256"
        },
        {
          "indexed": false,
          "internalType": "uint256[]",
          "name": "nftIds",
          "type": "uint256[]"
        },
        {
          "indexed": false,
          "internalType": "uint256",
          "name": "d2Amount",
          "type": "uint256"
        },
        {
          "indexed": false,
          "internalType": "address",
          "name": "sender",
          "type": "address"
        }
      ],
      "name": "Mint",
      "type": "event"
    },
    {
      "anonymous": false,
      "inputs": [
        {
          "indexed": false,
          "internalType": "uint256",
          "name": "vaultId",
          "type": "uint256"
        },
        {
          "indexed": false,
          "internalType": "uint256[]",
          "name": "nftIds",
          "type": "uint256[]"
        },
        {
          "indexed": false,
          "internalType": "address",
          "name": "sender",
          "type": "address"
        }
      ],
      "name": "MintRequested",
      "type": "event"
    },
    {
      "anonymous": false,
      "inputs": [
        {
          "indexed": false,
          "internalType": "uint256",
          "name": "vaultId",
          "type": "uint256"
        },
        {
          "indexed": false,
          "internalType": "address",
          "name": "sender",
          "type": "address"
        }
      ],
      "name": "NewVault",
      "type": "event"
    },
    {
      "anonymous": false,
      "inputs": [
        {
          "indexed": true,
          "internalType": "address",
          "name": "previousOwner",
          "type": "address"
        },
        {
          "indexed": true,
          "internalType": "address",
          "name": "newOwner",
          "type": "address"
        }
      ],
      "name": "OwnershipTransferred",
      "type": "event"
    },
    {
      "anonymous": false,
      "inputs": [
        {
          "indexed": false,
          "internalType": "uint256",
          "name": "vaultId",
          "type": "uint256"
        },
        {
          "indexed": false,
          "internalType": "uint256[]",
          "name": "nftIds",
          "type": "uint256[]"
        },
        {
          "indexed": false,
          "internalType": "uint256",
          "name": "d2Amount",
          "type": "uint256"
        },
        {
          "indexed": false,
          "internalType": "address",
          "name": "sender",
          "type": "address"
        }
      ],
      "name": "Redeem",
      "type": "event"
    },
    {
      "inputs": [
        {
          "internalType": "uint256",
          "name": "vaultId",
          "type": "uint256"
        },
        {
          "internalType": "uint256",
          "name": "numTokens",
          "type": "uint256"
        },
        {
          "internalType": "bool",
          "name": "isBurn",
          "type": "bool"
        }
      ],
      "name": "_calcBounty",
      "outputs": [
        {
          "internalType": "uint256",
          "name": "",
          "type": "uint256"
        }
      ],
      "stateMutability": "view",
      "type": "function"
    },
    {
      "inputs": [
        {
          "internalType": "uint256",
          "name": "vaultId",
          "type": "uint256"
        },
        {
          "internalType": "uint256",
          "name": "amount",
          "type": "uint256"
        },
        {
          "internalType": "bool",
          "name": "isBurn",
          "type": "bool"
        }
      ],
      "name": "_calcBountyD2",
      "outputs": [
        {
          "internalType": "uint256",
          "name": "",
          "type": "uint256"
        }
      ],
      "stateMutability": "view",
      "type": "function"
    },
    {
      "inputs": [
        {
          "internalType": "uint256",
          "name": "vaultId",
          "type": "uint256"
        },
        {
          "internalType": "uint256[]",
          "name": "nftIds",
          "type": "uint256[]"
        }
      ],
      "name": "approveMintRequest",
      "outputs": [],
      "stateMutability": "nonpayable",
      "type": "function"
    },
    {
      "inputs": [
        {
          "internalType": "uint256",
          "name": "vaultId",
          "type": "uint256"
        },
        {
          "internalType": "string",
          "name": "newName",
          "type": "string"
        }
      ],
      "name": "changeTokenName",
      "outputs": [],
      "stateMutability": "nonpayable",
      "type": "function"
    },
    {
      "inputs": [
        {
          "internalType": "uint256",
          "name": "vaultId",
          "type": "uint256"
        },
        {
          "internalType": "string",
          "name": "newSymbol",
          "type": "string"
        }
      ],
      "name": "changeTokenSymbol",
      "outputs": [],
      "stateMutability": "nonpayable",
      "type": "function"
    },
    {
      "inputs": [
        {
          "internalType": "uint256",
          "name": "vaultId",
          "type": "uint256"
        }
      ],
      "name": "closeVault",
      "outputs": [],
      "stateMutability": "nonpayable",
      "type": "function"
    },
    {
      "inputs": [
        {
          "internalType": "address",
          "name": "_xTokenAddress",
          "type": "address"
        },
        {
          "internalType": "address",
          "name": "_assetAddress",
          "type": "address"
        },
        {
          "internalType": "bool",
          "name": "_isD2Vault",
          "type": "bool"
        }
      ],
      "name": "createVault",
      "outputs": [
        {
          "internalType": "uint256",
          "name": "",
          "type": "uint256"
        }
      ],
      "stateMutability": "nonpayable",
      "type": "function"
    },
    {
      "inputs": [
        {
          "internalType": "uint256",
          "name": "vaultId",
          "type": "uint256"
        }
      ],
      "name": "depositETH",
      "outputs": [],
      "stateMutability": "payable",
      "type": "function"
    },
    {
      "inputs": [
        {
          "internalType": "uint256",
          "name": "vaultId",
          "type": "uint256"
        }
      ],
      "name": "finalizeVault",
      "outputs": [],
      "stateMutability": "nonpayable",
      "type": "function"
    },
    {
      "inputs": [
        {
          "internalType": "address",
          "name": "storeAddress",
          "type": "address"
        }
      ],
      "name": "initialize",
      "outputs": [],
      "stateMutability": "nonpayable",
      "type": "function"
    },
    {
      "inputs": [
        {
          "internalType": "uint256",
          "name": "vaultId",
          "type": "uint256"
        },
        {
          "internalType": "uint256",
          "name": "nftId",
          "type": "uint256"
        }
      ],
      "name": "isEligible",
      "outputs": [
        {
          "internalType": "bool",
          "name": "",
          "type": "bool"
        }
      ],
      "stateMutability": "view",
      "type": "function"
    },
    {
      "inputs": [
        {
          "internalType": "uint256",
          "name": "vaultId",
          "type": "uint256"
        },
        {
          "internalType": "uint256[]",
          "name": "nftIds",
          "type": "uint256[]"
        },
        {
          "internalType": "uint256",
          "name": "d2Amount",
          "type": "uint256"
        }
      ],
      "name": "mint",
      "outputs": [],
      "stateMutability": "payable",
      "type": "function"
    },
    {
      "inputs": [
        {
          "internalType": "address",
          "name": "",
          "type": "address"
        },
        {
          "internalType": "address",
          "name": "",
          "type": "address"
        },
        {
          "internalType": "uint256",
          "name": "",
          "type": "uint256"
        },
        {
          "internalType": "bytes",
          "name": "",
          "type": "bytes"
        }
      ],
      "name": "onERC721Received",
      "outputs": [
        {
          "internalType": "bytes4",
          "name": "",
          "type": "bytes4"
        }
      ],
      "stateMutability": "nonpayable",
      "type": "function"
    },
    {
      "inputs": [
        {
          "internalType": "uint256",
          "name": "pauserId",
          "type": "uint256"
        }
      ],
      "name": "onlyOwnerIfPaused",
      "outputs": [],
      "stateMutability": "view",
      "type": "function"
    },
    {
      "inputs": [],
      "name": "owner",
      "outputs": [
        {
          "internalType": "address",
          "name": "",
          "type": "address"
        }
      ],
      "stateMutability": "view",
      "type": "function"
    },
    {
      "inputs": [
        {
          "internalType": "uint256",
          "name": "vaultId",
          "type": "uint256"
        },
        {
          "internalType": "uint256",
          "name": "amount",
          "type": "uint256"
        }
      ],
      "name": "redeem",
      "outputs": [],
      "stateMutability": "payable",
      "type": "function"
    },
    {
      "inputs": [],
      "name": "renounceOwnership",
      "outputs": [],
      "stateMutability": "nonpayable",
      "type": "function"
    },
    {
      "inputs": [
        {
          "internalType": "uint256",
          "name": "vaultId",
          "type": "uint256"
        },
        {
          "internalType": "uint256[]",
          "name": "nftIds",
          "type": "uint256[]"
        }
      ],
      "name": "requestMint",
      "outputs": [],
      "stateMutability": "payable",
      "type": "function"
    },
    {
      "inputs": [
        {
          "internalType": "uint256",
          "name": "vaultId",
          "type": "uint256"
        },
        {
          "internalType": "uint256[]",
          "name": "nftIds",
          "type": "uint256[]"
        }
      ],
      "name": "revokeMintRequests",
      "outputs": [],
      "stateMutability": "nonpayable",
      "type": "function"
    },
    {
      "inputs": [
        {
          "internalType": "uint256",
          "name": "vaultId",
          "type": "uint256"
        },
        {
          "internalType": "uint256",
          "name": "_ethBase",
          "type": "uint256"
        },
        {
          "internalType": "uint256",
          "name": "_ethStep",
          "type": "uint256"
        }
      ],
      "name": "setBurnFees",
      "outputs": [],
      "stateMutability": "nonpayable",
      "type": "function"
    },
    {
      "inputs": [
        {
          "internalType": "uint256",
          "name": "vaultId",
          "type": "uint256"
        },
        {
          "internalType": "bool",
          "name": "flipElig",
          "type": "bool"
        }
      ],
      "name": "setFlipEligOnRedeem",
      "outputs": [],
      "stateMutability": "nonpayable",
      "type": "function"
    },
    {
      "inputs": [
        {
          "internalType": "uint256",
          "name": "vaultId",
          "type": "uint256"
        },
        {
          "internalType": "uint256[]",
          "name": "nftIds",
          "type": "uint256[]"
        },
        {
          "internalType": "bool",
          "name": "_boolean",
          "type": "bool"
        }
      ],
      "name": "setIsEligible",
      "outputs": [],
      "stateMutability": "nonpayable",
      "type": "function"
    },
    {
      "inputs": [
        {
          "internalType": "uint256",
          "name": "vaultId",
          "type": "uint256"
        },
        {
          "internalType": "address",
          "name": "newManager",
          "type": "address"
        }
      ],
      "name": "setManager",
      "outputs": [],
      "stateMutability": "nonpayable",
      "type": "function"
    },
    {
      "inputs": [
        {
          "internalType": "uint256",
          "name": "vaultId",
          "type": "uint256"
        },
        {
          "internalType": "uint256",
          "name": "_ethBase",
          "type": "uint256"
        },
        {
          "internalType": "uint256",
          "name": "_ethStep",
          "type": "uint256"
        }
      ],
      "name": "setMintFees",
      "outputs": [],
      "stateMutability": "nonpayable",
      "type": "function"
    },
    {
      "inputs": [
        {
          "internalType": "uint256",
          "name": "vaultId",
          "type": "uint256"
        },
        {
          "internalType": "bool",
          "name": "shouldNegate",
          "type": "bool"
        }
      ],
      "name": "setNegateEligibility",
      "outputs": [],
      "stateMutability": "nonpayable",
      "type": "function"
    },
    {
      "inputs": [
        {
          "internalType": "uint256",
          "name": "pauserId",
          "type": "uint256"
        },
        {
          "internalType": "bool",
          "name": "_isPaused",
          "type": "bool"
        }
      ],
      "name": "setPaused",
      "outputs": [],
      "stateMutability": "nonpayable",
      "type": "function"
    },
    {
      "inputs": [
        {
          "internalType": "uint256",
          "name": "vaultId",
          "type": "uint256"
        },
        {
          "internalType": "uint256",
          "name": "ethMax",
          "type": "uint256"
        },
        {
          "internalType": "uint256",
          "name": "length",
          "type": "uint256"
        }
      ],
      "name": "setSupplierBounty",
      "outputs": [],
      "stateMutability": "nonpayable",
      "type": "function"
    },
    {
      "inputs": [],
      "name": "store",
      "outputs": [
        {
          "internalType": "contract IXStore",
          "name": "",
          "type": "address"
        }
      ],
      "stateMutability": "view",
      "type": "function"
    },
    {
      "inputs": [
        {
          "internalType": "address",
          "name": "newOwner",
          "type": "address"
        }
      ],
      "name": "transferOwnership",
      "outputs": [],
      "stateMutability": "nonpayable",
      "type": "function"
    },
    {
      "inputs": [
        {
          "internalType": "uint256",
          "name": "vaultId",
          "type": "uint256"
        }
      ],
      "name": "vaultSize",
      "outputs": [
        {
          "internalType": "uint256",
          "name": "",
          "type": "uint256"
        }
      ],
      "stateMutability": "view",
      "type": "function"
    },
    {
      "inputs": [
        {
          "internalType": "uint256",
          "name": "vaultId",
          "type": "uint256"
        },
        {
          "internalType": "uint256",
          "name": "tokenId",
          "type": "uint256"
        },
        {
          "internalType": "address",
          "name": "to",
          "type": "address"
        }
      ],
      "name": "transferERC721",
      "outputs": [],
      "stateMutability": "nonpayable",
      "type": "function"
    }
  ],
  "bytecode": "0x60806040523480156200001157600080fd5b50618e0f80620000226000396000f3fe6080604052600436106101d85760003560e01c80636f41081c116101025780639fa9ef7311610095578063f09e82e211610064578063f09e82e214610da4578063f2fde38b14610e01578063f84b40dc14610e52578063fabeaafd14610f24576101d8565b80639fa9ef7314610b6f578063a4ebfede14610c31578063c4d66de814610d0c578063daff97b514610d5d576101d8565b806383e4c539116100d157806383e4c539146109ab57806383e8d7e314610a7a5780638da5cb5b14610ac1578063975057e714610b18576101d8565b80636f41081c146108bc578063715018a6146109215780637c77b616146109385780637cbc237314610973576101d8565b8063360c32881161017a57806341c116661161014957806341c11666146106dc5780635358fbda146107ae57806353e1cb27146107dc578063685c6d811461086d576101d8565b8063360c3288146105885780633a43a54e146105c35780633c08a61514610628578063412637251461068d576101d8565b8063150b7a02116101b6578063150b7a02146103335780632911c27d146104975780632ad5f0a1146104f257806331f669d514610539576101d8565b8063065e8c06146101dd5780630e4e411c1461021857806313b0cc3914610267575b600080fd5b3480156101e957600080fd5b506102166004803603602081101561020057600080fd5b8101908080359060200190929190505050610ff3565b005b34801561022457600080fd5b506102656004803603606081101561023b57600080fd5b810190808035906020019092919080359060200190929190803590602001909291905050506111ba565b005b6103316004803603606081101561027d57600080fd5b8101908080359060200190929190803590602001906401000000008111156102a457600080fd5b8201836020820111156102b657600080fd5b803590602001918460208302840111640100000000831117156102d857600080fd5b919080806020026020016040519081016040528093929190818152602001838360200280828437600081840152601f19601f82011690508083019250505050505050919291929080359060200190929190505050611265565b005b34801561033f57600080fd5b506104436004803603608081101561035657600080fd5b81019080803573ffffffffffffffffffffffffffffffffffffffff169060200190929190803573ffffffffffffffffffffffffffffffffffffffff16906020019092919080359060200190929190803590602001906401000000008111156103bd57600080fd5b8201836020820111156103cf57600080fd5b803590602001918460018302840111640100000000831117156103f157600080fd5b91908080601f016020809104026020016040519081016040528093929190818152602001838380828437600081840152601f19601f8201169050808301925050505050505091929192905050506117e7565b60405180827bffffffffffffffffffffffffffffffffffffffffffffffffffffffff19167bffffffffffffffffffffffffffffffffffffffffffffffffffffffff1916815260200191505060405180910390f35b3480156104a357600080fd5b506104f0600480360360408110156104ba57600080fd5b8101908080359060200190929190803573ffffffffffffffffffffffffffffffffffffffff1690602001909291905050506117fb565b005b3480156104fe57600080fd5b506105376004803603604081101561051557600080fd5b81019080803590602001909291908035151590602001909291905050506118c9565b005b34801561054557600080fd5b506105726004803603602081101561055c57600080fd5b8101908080359060200190929190505050611c10565b6040518082815260200191505060405180910390f35b34801561059457600080fd5b506105c1600480360360208110156105ab57600080fd5b8101908080359060200190929190505050611eec565b005b3480156105cf57600080fd5b50610612600480360360608110156105e657600080fd5b810190808035906020019092919080359060200190929190803515159060200190929190505050611f92565b6040518082815260200191505060405180910390f35b34801561063457600080fd5b506106776004803603606081101561064b57600080fd5b8101908080359060200190929190803590602001909291908035151590602001909291905050506121ef565b6040518082815260200191505060405180910390f35b34801561069957600080fd5b506106da600480360360608110156106b057600080fd5b81019080803590602001909291908035906020019092919080359060200190929190505050612378565b005b3480156106e857600080fd5b506107ac600480360360408110156106ff57600080fd5b81019080803590602001909291908035906020019064010000000081111561072657600080fd5b82018360208201111561073857600080fd5b8035906020019184600183028401116401000000008311171561075a57600080fd5b91908080601f016020809104026020016040519081016040528093929190818152602001838380828437600081840152601f19601f820116905080830192505050505050509192919290505050612423565b005b6107da600480360360208110156107c457600080fd5b81019080803590602001909291905050506125ad565b005b3480156107e857600080fd5b50610857600480360360608110156107ff57600080fd5b81019080803573ffffffffffffffffffffffffffffffffffffffff169060200190929190803573ffffffffffffffffffffffffffffffffffffffff169060200190929190803515159060200190929190505050612704565b6040518082815260200191505060405180910390f35b34801561087957600080fd5b506108ba6004803603606081101561089057600080fd5b81019080803590602001909291908035906020019092919080359060200190929190505050612fcb565b005b3480156108c857600080fd5b5061091f600480360360608110156108df57600080fd5b810190808035906020019092919080359060200190929190803573ffffffffffffffffffffffffffffffffffffffff169060200190929190505050613076565b005b34801561092d57600080fd5b506109366132c5565b005b34801561094457600080fd5b506109716004803603602081101561095b57600080fd5b8101908080359060200190929190505050613450565b005b6109a96004803603604081101561098957600080fd5b810190808035906020019092919080359060200190929190505050613524565b005b3480156109b757600080fd5b50610a78600480360360408110156109ce57600080fd5b8101908080359060200190929190803590602001906401000000008111156109f557600080fd5b820183602082011115610a0757600080fd5b80359060200191846020830284011164010000000083111715610a2957600080fd5b919080806020026020016040519081016040528093929190818152602001838360200280828437600081840152601f19601f8201169050808301925050505050505091929192905050506139c8565b005b348015610a8657600080fd5b50610abf60048036036040811015610a9d57600080fd5b8101908080359060200190929190803515159060200190929190505050613e59565b005b348015610acd57600080fd5b50610ad6613eff565b604051808273ffffffffffffffffffffffffffffffffffffffff1673ffffffffffffffffffffffffffffffffffffffff16815260200191505060405180910390f35b348015610b2457600080fd5b50610b2d613f29565b604051808273ffffffffffffffffffffffffffffffffffffffff1673ffffffffffffffffffffffffffffffffffffffff16815260200191505060405180910390f35b610c2f60048036036040811015610b8557600080fd5b810190808035906020019092919080359060200190640100000000811115610bac57600080fd5b820183602082011115610bbe57600080fd5b80359060200191846020830284011164010000000083111715610be057600080fd5b919080806020026020016040519081016040528093929190818152602001838360200280828437600081840152601f19601f820116905080830192505050505050509192919290505050613f4f565b005b348015610c3d57600080fd5b50610d0a60048036036060811015610c5457600080fd5b810190808035906020019092919080359060200190640100000000811115610c7b57600080fd5b820183602082011115610c8d57600080fd5b80359060200191846020830284011164010000000083111715610caf57600080fd5b919080806020026020016040519081016040528093929190818152602001838360200280828437600081840152601f19601f82011690508083019250505050505050919291929080351515906020019092919050505061470d565b005b348015610d1857600080fd5b50610d5b60048036036020811015610d2f57600080fd5b81019080803573ffffffffffffffffffffffffffffffffffffffff1690602001909291905050506147fa565b005b348015610d6957600080fd5b50610da260048036036040811015610d8057600080fd5b810190808035906020019092919080351515906020019092919050505061494b565b005b348015610db057600080fd5b50610de760048036036040811015610dc757600080fd5b810190808035906020019092919080359060200190929190505050614a44565b604051808215151515815260200191505060405180910390f35b348015610e0d57600080fd5b50610e5060048036036020811015610e2457600080fd5b81019080803573ffffffffffffffffffffffffffffffffffffffff169060200190929190505050614c73565b005b348015610e5e57600080fd5b50610f2260048036036040811015610e7557600080fd5b810190808035906020019092919080359060200190640100000000811115610e9c57600080fd5b820183602082011115610eae57600080fd5b80359060200191846001830284011164010000000083111715610ed057600080fd5b91908080601f016020809104026020016040519081016040528093929190818152602001838380828437600081840152601f19601f820116905080830192505050505050509192919290505050614e83565b005b348015610f3057600080fd5b50610ff160048036036040811015610f4757600080fd5b810190808035906020019092919080359060200190640100000000811115610f6e57600080fd5b820183602082011115610f8057600080fd5b80359060200191846020830284011164010000000083111715610fa257600080fd5b919080806020026020016040519081016040528093929190818152602001838360200280828437600081840152601f19601f82011690508083019250505050505050919291929050505061500d565b005b610ffc816158ac565b603660009054906101000a900473ffffffffffffffffffffffffffffffffffffffff1673ffffffffffffffffffffffffffffffffffffffff166333727c4d826040518263ffffffff1660e01b81526004018082815260200191505060206040518083038186803b15801561106f57600080fd5b505afa158015611083573d6000803e3d6000fd5b505050506040513d602081101561109957600080fd5b81019080805190602001909291905050501561111d576040517f08c379a00000000000000000000000000000000000000000000000000000000081526004018080602001828103825260118152602001807f416c72656164792066696e616c697a656400000000000000000000000000000081525060200191505060405180910390fd5b603660009054906101000a900473ffffffffffffffffffffffffffffffffffffffff1673ffffffffffffffffffffffffffffffffffffffff16638991342b8260016040518363ffffffff1660e01b8152600401808381526020018215151515815260200192505050600060405180830381600087803b15801561119f57600080fd5b505af11580156111b3573d6000803e3d6000fd5b5050505050565b6111c3836158ac565b603660009054906101000a900473ffffffffffffffffffffffffffffffffffffffff1673ffffffffffffffffffffffffffffffffffffffff16630e4e411c8484846040518463ffffffff1660e01b8152600401808481526020018381526020018281526020019350505050600060405180830381600087803b15801561124857600080fd5b505af115801561125c573d6000803e3d6000fd5b50505050505050565b600260355414156112de576040517f08c379a000000000000000000000000000000000000000000000000000000000815260040180806020018281038252601f8152602001807f5265656e7472616e637947756172643a207265656e7472616e742063616c6c0081525060200191505060405180910390fd5b60026035819055506112f06001613450565b6000603660009054906101000a900473ffffffffffffffffffffffffffffffffffffffff1673ffffffffffffffffffffffffffffffffffffffff16634ca15376856040518263ffffffff1660e01b81526004018082815260200191505060206040518083038186803b15801561136557600080fd5b505afa158015611379573d6000803e3d6000fd5b505050506040513d602081101561138f57600080fd5b81019080805190602001909291905050506113ab5782516113ad565b815b90506000603660009054906101000a900473ffffffffffffffffffffffffffffffffffffffff1673ffffffffffffffffffffffffffffffffffffffff16634ca15376866040518263ffffffff1660e01b81526004018082815260200191505060206040518083038186803b15801561142457600080fd5b505afa158015611438573d6000803e3d6000fd5b505050506040513d602081101561144e57600080fd5b81019080805190602001909291905050506114745761146f858360006121ef565b611481565b61148085846000611f92565b5b9050600080603660009054906101000a900473ffffffffffffffffffffffffffffffffffffffff1673ffffffffffffffffffffffffffffffffffffffff166322af00d4886040518263ffffffff1660e01b815260040180828152602001915050604080518083038186803b1580156114f857600080fd5b505afa15801561150c573d6000803e3d6000fd5b505050506040513d604081101561152257600080fd5b8101908080519060200190929190805190602001909291905050509150915060006115fc858484603660009054906101000a900473ffffffffffffffffffffffffffffffffffffffff1673ffffffffffffffffffffffffffffffffffffffff16634ca153768d6040518263ffffffff1660e01b81526004018082815260200191505060206040518083038186803b1580156115bc57600080fd5b505afa1580156115d0573d6000803e3d6000fd5b505050506040513d60208110156115e657600080fd5b8101908080519060200190929190505050615b5e565b905083811115611624576116238861161d8684615c3790919063ffffffff16565b34615c81565b5b603660009054906101000a900473ffffffffffffffffffffffffffffffffffffffff1673ffffffffffffffffffffffffffffffffffffffff16634ca15376896040518263ffffffff1660e01b81526004018082815260200191505060206040518083038186803b15801561169757600080fd5b505afa1580156116ab573d6000803e3d6000fd5b505050506040513d60208110156116c157600080fd5b8101908080519060200190929190505050156116e6576116e18887615eb2565b6116f3565b6116f288886000616230565b5b8084111561171957611718886117128387615c3790919063ffffffff16565b33616b86565b5b7f1870fef12063ecb25738cfa99e018fc7ed7c3073cf1e6d58554470cac39ecf448888883360405180858152602001806020018481526020018373ffffffffffffffffffffffffffffffffffffffff1673ffffffffffffffffffffffffffffffffffffffff168152602001828103825285818151815260200191508051906020019060200280838360005b838110156117bf5780820151818401526020810190506117a4565b505050509050019550505050505060405180910390a150505050506001603581905550505050565b600063150b7a0260e01b9050949350505050565b611804826158ac565b603660009054906101000a900473ffffffffffffffffffffffffffffffffffffffff1673ffffffffffffffffffffffffffffffffffffffff16632911c27d83836040518363ffffffff1660e01b8152600401808381526020018273ffffffffffffffffffffffffffffffffffffffff1673ffffffffffffffffffffffffffffffffffffffff16815260200192505050600060405180830381600087803b1580156118ad57600080fd5b505af11580156118c1573d6000803e3d6000fd5b505050505050565b6118d2826158ac565b6000611b00603660009054906101000a900473ffffffffffffffffffffffffffffffffffffffff1673ffffffffffffffffffffffffffffffffffffffff16635bd1a28e856040518263ffffffff1660e01b81526004018082815260200191505060206040518083038186803b15801561194a57600080fd5b505afa15801561195e573d6000803e3d6000fd5b505050506040513d602081101561197457600080fd5b8101908080519060200190929190505050611af2603660009054906101000a900473ffffffffffffffffffffffffffffffffffffffff1673ffffffffffffffffffffffffffffffffffffffff1663cc824473876040518263ffffffff1660e01b81526004018082815260200191505060206040518083038186803b1580156119fb57600080fd5b505afa158015611a0f573d6000803e3d6000fd5b505050506040513d6020811015611a2557600080fd5b8101908080519060200190929190505050603660009054906101000a900473ffffffffffffffffffffffffffffffffffffffff1673ffffffffffffffffffffffffffffffffffffffff1663e94dbf89886040518263ffffffff1660e01b81526004018082815260200191505060206040518083038186803b158015611aa957600080fd5b505afa158015611abd573d6000803e3d6000fd5b505050506040513d6020811015611ad357600080fd5b8101908080519060200190929190505050616d4a90919063ffffffff16565b616d4a90919063ffffffff16565b14611b73576040517f08c379a000000000000000000000000000000000000000000000000000000000815260040180806020018281038252600f8152602001807f5661756c74206e6f7420656d707479000000000000000000000000000000000081525060200191505060405180910390fd5b603660009054906101000a900473ffffffffffffffffffffffffffffffffffffffff1673ffffffffffffffffffffffffffffffffffffffff16632ad5f0a183836040518363ffffffff1660e01b8152600401808381526020018215151515815260200192505050600060405180830381600087803b158015611bf457600080fd5b505af1158015611c08573d6000803e3d6000fd5b505050505050565b6000603660009054906101000a900473ffffffffffffffffffffffffffffffffffffffff1673ffffffffffffffffffffffffffffffffffffffff16634ca15376836040518263ffffffff1660e01b81526004018082815260200191505060206040518083038186803b158015611c8557600080fd5b505afa158015611c99573d6000803e3d6000fd5b505050506040513d6020811015611caf57600080fd5b8101908080519060200190929190505050611e3657611e31603660009054906101000a900473ffffffffffffffffffffffffffffffffffffffff1673ffffffffffffffffffffffffffffffffffffffff1663cc824473846040518263ffffffff1660e01b81526004018082815260200191505060206040518083038186803b158015611d3a57600080fd5b505afa158015611d4e573d6000803e3d6000fd5b505050506040513d6020811015611d6457600080fd5b8101908080519060200190929190505050603660009054906101000a900473ffffffffffffffffffffffffffffffffffffffff1673ffffffffffffffffffffffffffffffffffffffff1663e94dbf89856040518263ffffffff1660e01b81526004018082815260200191505060206040518083038186803b158015611de857600080fd5b505afa158015611dfc573d6000803e3d6000fd5b505050506040513d6020811015611e1257600080fd5b8101908080519060200190929190505050616d4a90919063ffffffff16565b611ee5565b603660009054906101000a900473ffffffffffffffffffffffffffffffffffffffff1673ffffffffffffffffffffffffffffffffffffffff16635bd1a28e836040518263ffffffff1660e01b81526004018082815260200191505060206040518083038186803b158015611ea957600080fd5b505afa158015611ebd573d6000803e3d6000fd5b505050506040513d6020811015611ed357600080fd5b81019080805190602001909291905050505b9050919050565b611ef5816158ac565b603660009054906101000a900473ffffffffffffffffffffffffffffffffffffffff1673ffffffffffffffffffffffffffffffffffffffff1663be2cbc4f8260016040518363ffffffff1660e01b8152600401808381526020018215151515815260200192505050600060405180830381600087803b158015611f7757600080fd5b505af1158015611f8b573d6000803e3d6000fd5b5050505050565b6000806000603660009054906101000a900473ffffffffffffffffffffffffffffffffffffffff1673ffffffffffffffffffffffffffffffffffffffff1663198e4788876040518263ffffffff1660e01b815260040180828152602001915050604080518083038186803b15801561200957600080fd5b505afa15801561201d573d6000803e3d6000fd5b505050506040513d604081101561203357600080fd5b810190808051906020019092919080519060200190929190505050915091506000811415612066576000925050506121e8565b600061207187611c10565b905060008282116120945761208f8284615c3790919063ffffffff16565b612097565b60005b905060006120a6858585616dd2565b90506000876120cf576120ca896120bc8c611c10565b616d4a90919063ffffffff16565b6120eb565b6120ea896120dc8c611c10565b615c3790919063ffffffff16565b5b9050600085821161210e576121098287615c3790919063ffffffff16565b612111565b60005b90506000612120888885616dd2565b90506000612164670de0b6b3a76400006121566002612148898b616e2590919063ffffffff16565b616eab90919063ffffffff16565b616eab90919063ffffffff16565b905060006121a8670de0b6b3a764000061219a600261218c8789616e2590919063ffffffff16565b616eab90919063ffffffff16565b616eab90919063ffffffff16565b90508b6121c7576121c28183615c3790919063ffffffff16565b6121db565b6121da8282615c3790919063ffffffff16565b5b9a50505050505050505050505b9392505050565b600080603660009054906101000a900473ffffffffffffffffffffffffffffffffffffffff1673ffffffffffffffffffffffffffffffffffffffff1663198e4788866040518263ffffffff1660e01b815260040180828152602001915050604080518083038186803b15801561226457600080fd5b505afa158015612278573d6000803e3d6000fd5b505050506040513d604081101561228e57600080fd5b81019080805190602001909291908051906020019092919050505091505060008114156122bf576000915050612371565b600080905060008090505b8581101561236a576000856122f9576122f4826122e68a611c10565b616d4a90919063ffffffff16565b612328565b612327612310600184616d4a90919063ffffffff16565b6123198a611c10565b615c3790919063ffffffff16565b5b905060006123368983616ef5565b905061234b8185616d4a90919063ffffffff16565b93505050612363600182616d4a90919063ffffffff16565b90506122ca565b5080925050505b9392505050565b612381836158ac565b603660009054906101000a900473ffffffffffffffffffffffffffffffffffffffff1673ffffffffffffffffffffffffffffffffffffffff1663412637258484846040518463ffffffff1660e01b8152600401808481526020018381526020018281526020019350505050600060405180830381600087803b15801561240657600080fd5b505af115801561241a573d6000803e3d6000fd5b50505050505050565b61242c826158ac565b603660009054906101000a900473ffffffffffffffffffffffffffffffffffffffff1673ffffffffffffffffffffffffffffffffffffffff1663e8e57118836040518263ffffffff1660e01b81526004018082815260200191505060206040518083038186803b15801561249f57600080fd5b505afa1580156124b3573d6000803e3d6000fd5b505050506040513d60208110156124c957600080fd5b810190808051906020019092919050505073ffffffffffffffffffffffffffffffffffffffff1663a3895fff826040518263ffffffff1660e01b81526004018080602001828103825283818151815260200191508051906020019080838360005b8381101561254557808201518184015260208101905061252a565b50505050905090810190601f1680156125725780820380516001836020036101000a031916815260200191505b5092505050600060405180830381600087803b15801561259157600080fd5b505af11580156125a5573d6000803e3d6000fd5b505050505050565b603660009054906101000a900473ffffffffffffffffffffffffffffffffffffffff1673ffffffffffffffffffffffffffffffffffffffff166329984915826126ac34603660009054906101000a900473ffffffffffffffffffffffffffffffffffffffff1673ffffffffffffffffffffffffffffffffffffffff1663bf17f2f2876040518263ffffffff1660e01b81526004018082815260200191505060206040518083038186803b15801561266357600080fd5b505afa158015612677573d6000803e3d6000fd5b505050506040513d602081101561268d57600080fd5b8101908080519060200190929190505050616d4a90919063ffffffff16565b6040518363ffffffff1660e01b81526004018083815260200182815260200192505050600060405180830381600087803b1580156126e957600080fd5b505af11580156126fd573d6000803e3d6000fd5b5050505050565b60006002603554141561277f576040517f08c379a000000000000000000000000000000000000000000000000000000000815260040180806020018281038252601f8152602001807f5265656e7472616e637947756172643a207265656e7472616e742063616c6c0081525060200191505060405180910390fd5b60026035819055506127916000613450565b60008490503073ffffffffffffffffffffffffffffffffffffffff168173ffffffffffffffffffffffffffffffffffffffff16638da5cb5b6040518163ffffffff1660e01b8152600401602060405180830381600087803b1580156127f557600080fd5b505af1158015612809573d6000803e3d6000fd5b505050506040513d602081101561281f57600080fd5b810190808051906020019092919050505073ffffffffffffffffffffffffffffffffffffffff16146128b9576040517f08c379a000000000000000000000000000000000000000000000000000000000815260040180806020018281038252600b8152602001807f57726f6e67206f776e657200000000000000000000000000000000000000000081525060200191505060405180910390fd5b6000603660009054906101000a900473ffffffffffffffffffffffffffffffffffffffff1673ffffffffffffffffffffffffffffffffffffffff1663d80ce5e96040518163ffffffff1660e01b8152600401602060405180830381600087803b15801561292557600080fd5b505af1158015612939573d6000803e3d6000fd5b505050506040513d602081101561294f57600080fd5b81019080805190602001909291905050509050603660009054906101000a900473ffffffffffffffffffffffffffffffffffffffff1673ffffffffffffffffffffffffffffffffffffffff16631567925f82886040518363ffffffff1660e01b8152600401808381526020018273ffffffffffffffffffffffffffffffffffffffff1673ffffffffffffffffffffffffffffffffffffffff16815260200192505050600060405180830381600087803b158015612a0b57600080fd5b505af1158015612a1f573d6000803e3d6000fd5b50505050603660009054906101000a900473ffffffffffffffffffffffffffffffffffffffff1673ffffffffffffffffffffffffffffffffffffffff16630fb5def8826040518263ffffffff1660e01b815260040180828152602001915050600060405180830381600087803b158015612a9857600080fd5b505af1158015612aac573d6000803e3d6000fd5b5050505083612ca257603660009054906101000a900473ffffffffffffffffffffffffffffffffffffffff1673ffffffffffffffffffffffffffffffffffffffff1663894289cc82876040518363ffffffff1660e01b8152600401808381526020018273ffffffffffffffffffffffffffffffffffffffff1673ffffffffffffffffffffffffffffffffffffffff16815260200192505050600060405180830381600087803b158015612b5e57600080fd5b505af1158015612b72573d6000803e3d6000fd5b50505050603660009054906101000a900473ffffffffffffffffffffffffffffffffffffffff1673ffffffffffffffffffffffffffffffffffffffff166308b61958826040518263ffffffff1660e01b815260040180828152602001915050600060405180830381600087803b158015612beb57600080fd5b505af1158015612bff573d6000803e3d6000fd5b50505050603660009054906101000a900473ffffffffffffffffffffffffffffffffffffffff1673ffffffffffffffffffffffffffffffffffffffff16632ad5f0a18260016040518363ffffffff1660e01b8152600401808381526020018215151515815260200192505050600060405180830381600087803b158015612c8557600080fd5b505af1158015612c99573d6000803e3d6000fd5b50505050612e8b565b603660009054906101000a900473ffffffffffffffffffffffffffffffffffffffff1673ffffffffffffffffffffffffffffffffffffffff16636102815d82876040518363ffffffff1660e01b8152600401808381526020018273ffffffffffffffffffffffffffffffffffffffff1673ffffffffffffffffffffffffffffffffffffffff16815260200192505050600060405180830381600087803b158015612d4b57600080fd5b505af1158015612d5f573d6000803e3d6000fd5b50505050603660009054906101000a900473ffffffffffffffffffffffffffffffffffffffff1673ffffffffffffffffffffffffffffffffffffffff16638e3f545f826040518263ffffffff1660e01b815260040180828152602001915050600060405180830381600087803b158015612dd857600080fd5b505af1158015612dec573d6000803e3d6000fd5b50505050603660009054906101000a900473ffffffffffffffffffffffffffffffffffffffff1673ffffffffffffffffffffffffffffffffffffffff166388779e5d8260016040518363ffffffff1660e01b8152600401808381526020018215151515815260200192505050600060405180830381600087803b158015612e7257600080fd5b505af1158015612e86573d6000803e3d6000fd5b505050505b603660009054906101000a900473ffffffffffffffffffffffffffffffffffffffff1673ffffffffffffffffffffffffffffffffffffffff16632911c27d82336040518363ffffffff1660e01b8152600401808381526020018273ffffffffffffffffffffffffffffffffffffffff1673ffffffffffffffffffffffffffffffffffffffff16815260200192505050600060405180830381600087803b158015612f3457600080fd5b505af1158015612f48573d6000803e3d6000fd5b505050507fc117b81c381b8c8066e461527733c2f11b87ebf36631b006cb5a74e3c0388b138133604051808381526020018273ffffffffffffffffffffffffffffffffffffffff1673ffffffffffffffffffffffffffffffffffffffff1681526020019250505060405180910390a1809250505060016035819055509392505050565b612fd4836158ac565b603660009054906101000a900473ffffffffffffffffffffffffffffffffffffffff1673ffffffffffffffffffffffffffffffffffffffff1663685c6d818484846040518463ffffffff1660e01b8152600401808481526020018381526020018281526020019350505050600060405180830381600087803b15801561305957600080fd5b505af115801561306d573d6000803e3d6000fd5b50505050505050565b61307e61700f565b73ffffffffffffffffffffffffffffffffffffffff16603360009054906101000a900473ffffffffffffffffffffffffffffffffffffffff1673ffffffffffffffffffffffffffffffffffffffff1614613140576040517f08c379a00000000000000000000000000000000000000000000000000000000081526004018080602001828103825260208152602001807f4f776e61626c653a2063616c6c6572206973206e6f7420746865206f776e657281525060200191505060405180910390fd5b603660009054906101000a900473ffffffffffffffffffffffffffffffffffffffff1673ffffffffffffffffffffffffffffffffffffffff16639d0214cb846040518263ffffffff1660e01b81526004018082815260200191505060206040518083038186803b1580156131b357600080fd5b505afa1580156131c7573d6000803e3d6000fd5b505050506040513d60208110156131dd57600080fd5b810190808051906020019092919050505073ffffffffffffffffffffffffffffffffffffffff166323b872dd3083856040518463ffffffff1660e01b8152600401808473ffffffffffffffffffffffffffffffffffffffff1673ffffffffffffffffffffffffffffffffffffffff1681526020018373ffffffffffffffffffffffffffffffffffffffff1673ffffffffffffffffffffffffffffffffffffffff1681526020018281526020019350505050600060405180830381600087803b1580156132a857600080fd5b505af11580156132bc573d6000803e3d6000fd5b50505050505050565b6132cd61700f565b73ffffffffffffffffffffffffffffffffffffffff16603360009054906101000a900473ffffffffffffffffffffffffffffffffffffffff1673ffffffffffffffffffffffffffffffffffffffff161461338f576040517f08c379a00000000000000000000000000000000000000000000000000000000081526004018080602001828103825260208152602001807f4f776e61626c653a2063616c6c6572206973206e6f7420746865206f776e657281525060200191505060405180910390fd5b600073ffffffffffffffffffffffffffffffffffffffff16603360009054906101000a900473ffffffffffffffffffffffffffffffffffffffff1673ffffffffffffffffffffffffffffffffffffffff167f8be0079c531659141344cd1fd0a4f28419497f9722a3daafe3b4186f6b6457e060405160405180910390a36000603360006101000a81548173ffffffffffffffffffffffffffffffffffffffff021916908373ffffffffffffffffffffffffffffffffffffffff160217905550565b6034600082815260200190815260200160002060009054906101000a900460ff1615806134af5750613480613eff565b73ffffffffffffffffffffffffffffffffffffffff163373ffffffffffffffffffffffffffffffffffffffff16145b613521576040517f08c379a00000000000000000000000000000000000000000000000000000000081526004018080602001828103825260068152602001807f506175736564000000000000000000000000000000000000000000000000000081525060200191505060405180910390fd5b50565b6002603554141561359d576040517f08c379a000000000000000000000000000000000000000000000000000000000815260040180806020018281038252601f8152602001807f5265656e7472616e637947756172643a207265656e7472616e742063616c6c0081525060200191505060405180910390fd5b60026035819055506135af6002613450565b603660009054906101000a900473ffffffffffffffffffffffffffffffffffffffff1673ffffffffffffffffffffffffffffffffffffffff1663d5c78a28836040518263ffffffff1660e01b81526004018082815260200191505060206040518083038186803b15801561362257600080fd5b505afa158015613636573d6000803e3d6000fd5b505050506040513d602081101561364c57600080fd5b81019080805190602001909291905050506138ee576000603660009054906101000a900473ffffffffffffffffffffffffffffffffffffffff1673ffffffffffffffffffffffffffffffffffffffff16634ca15376846040518263ffffffff1660e01b81526004018082815260200191505060206040518083038186803b1580156136d657600080fd5b505afa1580156136ea573d6000803e3d6000fd5b505050506040513d602081101561370057600080fd5b810190808051906020019092919050505061372657613721838360016121ef565b613733565b61373283836001611f92565b5b9050600080603660009054906101000a900473ffffffffffffffffffffffffffffffffffffffff1673ffffffffffffffffffffffffffffffffffffffff16630342a6ba866040518263ffffffff1660e01b815260040180828152602001915050604080518083038186803b1580156137aa57600080fd5b505afa1580156137be573d6000803e3d6000fd5b505050506040513d60408110156137d457600080fd5b8101908080519060200190929190805190602001909291905050509150915060006138ae858484603660009054906101000a900473ffffffffffffffffffffffffffffffffffffffff1673ffffffffffffffffffffffffffffffffffffffff16634ca153768b6040518263ffffffff1660e01b81526004018082815260200191505060206040518083038186803b15801561386e57600080fd5b505afa158015613882573d6000803e3d6000fd5b505050506040513d602081101561389857600080fd5b8101908080519060200190929190505050615b5e565b905060006138c58286616d4a90919063ffffffff16565b11156138e9576138e8866138e28387616d4a90919063ffffffff16565b34615c81565b5b505050505b603660009054906101000a900473ffffffffffffffffffffffffffffffffffffffff1673ffffffffffffffffffffffffffffffffffffffff16634ca15376836040518263ffffffff1660e01b81526004018082815260200191505060206040518083038186803b15801561396157600080fd5b505afa158015613975573d6000803e3d6000fd5b505050506040513d602081101561398b57600080fd5b81019080805190602001909291905050506139b1576139ac82826000617017565b6139bc565b6139bb828261752b565b5b60016035819055505050565b60026035541415613a41576040517f08c379a000000000000000000000000000000000000000000000000000000000815260040180806020018281038252601f8152602001807f5265656e7472616e637947756172643a207265656e7472616e742063616c6c0081525060200191505060405180910390fd5b600260358190555060008090505b8151811015613e4c573373ffffffffffffffffffffffffffffffffffffffff16603660009054906101000a900473ffffffffffffffffffffffffffffffffffffffff1673ffffffffffffffffffffffffffffffffffffffff16635770f64085858581518110613aba57fe5b60200260200101516040518363ffffffff1660e01b8152600401808381526020018281526020019250505060206040518083038186803b158015613afd57600080fd5b505afa158015613b11573d6000803e3d6000fd5b505050506040513d6020811015613b2757600080fd5b810190808051906020019092919050505073ffffffffffffffffffffffffffffffffffffffff1614613bc1576040517f08c379a000000000000000000000000000000000000000000000000000000000815260040180806020018281038252600d8152602001807f4e6f74207265717565737465720000000000000000000000000000000000000081525060200191505060405180910390fd5b603660009054906101000a900473ffffffffffffffffffffffffffffffffffffffff1673ffffffffffffffffffffffffffffffffffffffff16637f10d31484848481518110613c0c57fe5b602002602001015160006040518463ffffffff1660e01b8152600401808481526020018381526020018273ffffffffffffffffffffffffffffffffffffffff1673ffffffffffffffffffffffffffffffffffffffff1681526020019350505050600060405180830381600087803b158015613c8657600080fd5b505af1158015613c9a573d6000803e3d6000fd5b50505050603660009054906101000a900473ffffffffffffffffffffffffffffffffffffffff1673ffffffffffffffffffffffffffffffffffffffff16639d0214cb846040518263ffffffff1660e01b81526004018082815260200191505060206040518083038186803b158015613d1157600080fd5b505afa158015613d25573d6000803e3d6000fd5b505050506040513d6020811015613d3b57600080fd5b810190808051906020019092919050505073ffffffffffffffffffffffffffffffffffffffff166342842e0e3033858581518110613d7557fe5b60200260200101516040518463ffffffff1660e01b8152600401808473ffffffffffffffffffffffffffffffffffffffff1673ffffffffffffffffffffffffffffffffffffffff1681526020018373ffffffffffffffffffffffffffffffffffffffff1673ffffffffffffffffffffffffffffffffffffffff1681526020018281526020019350505050600060405180830381600087803b158015613e1957600080fd5b505af1158015613e2d573d6000803e3d6000fd5b50505050613e45600182616d4a90919063ffffffff16565b9050613a4f565b5060016035819055505050565b613e62826158ac565b603660009054906101000a900473ffffffffffffffffffffffffffffffffffffffff1673ffffffffffffffffffffffffffffffffffffffff166383e8d7e383836040518363ffffffff1660e01b8152600401808381526020018215151515815260200192505050600060405180830381600087803b158015613ee357600080fd5b505af1158015613ef7573d6000803e3d6000fd5b505050505050565b6000603360009054906101000a900473ffffffffffffffffffffffffffffffffffffffff16905090565b603660009054906101000a900473ffffffffffffffffffffffffffffffffffffffff1681565b60026035541415613fc8576040517f08c379a000000000000000000000000000000000000000000000000000000000815260040180806020018281038252601f8152602001807f5265656e7472616e637947756172643a207265656e7472616e742063616c6c0081525060200191505060405180910390fd5b6002603581905550613fda6001613450565b60008090505b815181101561464c573073ffffffffffffffffffffffffffffffffffffffff16603660009054906101000a900473ffffffffffffffffffffffffffffffffffffffff1673ffffffffffffffffffffffffffffffffffffffff16639d0214cb856040518263ffffffff1660e01b81526004018082815260200191505060206040518083038186803b15801561407357600080fd5b505afa158015614087573d6000803e3d6000fd5b505050506040513d602081101561409d57600080fd5b810190808051906020019092919050505073ffffffffffffffffffffffffffffffffffffffff16636352211e8484815181106140d557fe5b60200260200101516040518263ffffffff1660e01b81526004018082815260200191505060206040518083038186803b15801561411157600080fd5b505afa158015614125573d6000803e3d6000fd5b505050506040513d602081101561413b57600080fd5b810190808051906020019092919050505073ffffffffffffffffffffffffffffffffffffffff1614156141d6576040517f08c379a000000000000000000000000000000000000000000000000000000000815260040180806020018281038252600d8152602001807f416c7265616479206f776e65720000000000000000000000000000000000000081525060200191505060405180910390fd5b603660009054906101000a900473ffffffffffffffffffffffffffffffffffffffff1673ffffffffffffffffffffffffffffffffffffffff16639d0214cb846040518263ffffffff1660e01b81526004018082815260200191505060206040518083038186803b15801561424957600080fd5b505afa15801561425d573d6000803e3d6000fd5b505050506040513d602081101561427357600080fd5b810190808051906020019092919050505073ffffffffffffffffffffffffffffffffffffffff166342842e0e33308585815181106142ad57fe5b60200260200101516040518463ffffffff1660e01b8152600401808473ffffffffffffffffffffffffffffffffffffffff1673ffffffffffffffffffffffffffffffffffffffff1681526020018373ffffffffffffffffffffffffffffffffffffffff1673ffffffffffffffffffffffffffffffffffffffff1681526020018281526020019350505050600060405180830381600087803b15801561435157600080fd5b505af1158015614365573d6000803e3d6000fd5b505050503073ffffffffffffffffffffffffffffffffffffffff16603660009054906101000a900473ffffffffffffffffffffffffffffffffffffffff1673ffffffffffffffffffffffffffffffffffffffff16639d0214cb856040518263ffffffff1660e01b81526004018082815260200191505060206040518083038186803b1580156143f357600080fd5b505afa158015614407573d6000803e3d6000fd5b505050506040513d602081101561441d57600080fd5b810190808051906020019092919050505073ffffffffffffffffffffffffffffffffffffffff16636352211e84848151811061445557fe5b60200260200101516040518263ffffffff1660e01b81526004018082815260200191505060206040518083038186803b15801561449157600080fd5b505afa1580156144a5573d6000803e3d6000fd5b505050506040513d60208110156144bb57600080fd5b810190808051906020019092919050505073ffffffffffffffffffffffffffffffffffffffff1614614555576040517f08c379a000000000000000000000000000000000000000000000000000000000815260040180806020018281038252600c8152602001807f4e6f74207265636569766564000000000000000000000000000000000000000081525060200191505060405180910390fd5b603660009054906101000a900473ffffffffffffffffffffffffffffffffffffffff1673ffffffffffffffffffffffffffffffffffffffff16637f10d314848484815181106145a057fe5b6020026020010151336040518463ffffffff1660e01b8152600401808481526020018381526020018273ffffffffffffffffffffffffffffffffffffffff1673ffffffffffffffffffffffffffffffffffffffff1681526020019350505050600060405180830381600087803b15801561461957600080fd5b505af115801561462d573d6000803e3d6000fd5b50505050614645600182616d4a90919063ffffffff16565b9050613fe0565b507f7fb9f848633daec03e24ca1fc96c532829a9873a4962860b54b5d7fdb8fd001282823360405180848152602001806020018373ffffffffffffffffffffffffffffffffffffffff1673ffffffffffffffffffffffffffffffffffffffff168152602001828103825284818151815260200191508051906020019060200280838360005b838110156146ec5780820151818401526020810190506146d1565b5050505090500194505050505060405180910390a160016035819055505050565b614716836158ac565b60008090505b82518110156147f457603660009054906101000a900473ffffffffffffffffffffffffffffffffffffffff1673ffffffffffffffffffffffffffffffffffffffff16639989f93a8585848151811061477057fe5b6020026020010151856040518463ffffffff1660e01b815260040180848152602001838152602001821515151581526020019350505050600060405180830381600087803b1580156147c157600080fd5b505af11580156147d5573d6000803e3d6000fd5b505050506147ed600182616d4a90919063ffffffff16565b905061471c565b50505050565b600060019054906101000a900460ff168061481957506148186179b0565b5b8061483057506000809054906101000a900460ff16155b614885576040517f08c379a000000000000000000000000000000000000000000000000000000000815260040180806020018281038252602e815260200180618d82602e913960400191505060405180910390fd5b60008060019054906101000a900460ff1615905080156148d5576001600060016101000a81548160ff02191690831515021790555060016000806101000a81548160ff0219169083151502179055505b6148dd6179c7565b6148e5617b6f565b81603660006101000a81548173ffffffffffffffffffffffffffffffffffffffff021916908373ffffffffffffffffffffffffffffffffffffffff16021790555080156149475760008060016101000a81548160ff0219169083151502179055505b5050565b61495361700f565b73ffffffffffffffffffffffffffffffffffffffff16603360009054906101000a900473ffffffffffffffffffffffffffffffffffffffff1673ffffffffffffffffffffffffffffffffffffffff1614614a15576040517f08c379a00000000000000000000000000000000000000000000000000000000081526004018080602001828103825260208152602001807f4f776e61626c653a2063616c6c6572206973206e6f7420746865206f776e657281525060200191505060405180910390fd5b806034600084815260200190815260200160002060006101000a81548160ff0219169083151502179055505050565b6000603660009054906101000a900473ffffffffffffffffffffffffffffffffffffffff1673ffffffffffffffffffffffffffffffffffffffff1663ec475a1f846040518263ffffffff1660e01b81526004018082815260200191505060206040518083038186803b158015614ab957600080fd5b505afa158015614acd573d6000803e3d6000fd5b505050506040513d6020811015614ae357600080fd5b8101908080519060200190929190505050614bb357603660009054906101000a900473ffffffffffffffffffffffffffffffffffffffff1673ffffffffffffffffffffffffffffffffffffffff1663f09e82e284846040518363ffffffff1660e01b8152600401808381526020018281526020019250505060206040518083038186803b158015614b7357600080fd5b505afa158015614b87573d6000803e3d6000fd5b505050506040513d6020811015614b9d57600080fd5b8101908080519060200190929190505050614c6b565b603660009054906101000a900473ffffffffffffffffffffffffffffffffffffffff1673ffffffffffffffffffffffffffffffffffffffff1663f09e82e284846040518363ffffffff1660e01b8152600401808381526020018281526020019250505060206040518083038186803b158015614c2e57600080fd5b505afa158015614c42573d6000803e3d6000fd5b505050506040513d6020811015614c5857600080fd5b8101908080519060200190929190505050155b905092915050565b614c7b61700f565b73ffffffffffffffffffffffffffffffffffffffff16603360009054906101000a900473ffffffffffffffffffffffffffffffffffffffff1673ffffffffffffffffffffffffffffffffffffffff1614614d3d576040517f08c379a00000000000000000000000000000000000000000000000000000000081526004018080602001828103825260208152602001807f4f776e61626c653a2063616c6c6572206973206e6f7420746865206f776e657281525060200191505060405180910390fd5b600073ffffffffffffffffffffffffffffffffffffffff168173ffffffffffffffffffffffffffffffffffffffff161415614dc3576040517f08c379a0000000000000000000000000000000000000000000000000000000008152600401808060200182810382526026815260200180618d3b6026913960400191505060405180910390fd5b8073ffffffffffffffffffffffffffffffffffffffff16603360009054906101000a900473ffffffffffffffffffffffffffffffffffffffff1673ffffffffffffffffffffffffffffffffffffffff167f8be0079c531659141344cd1fd0a4f28419497f9722a3daafe3b4186f6b6457e060405160405180910390a380603360006101000a81548173ffffffffffffffffffffffffffffffffffffffff021916908373ffffffffffffffffffffffffffffffffffffffff16021790555050565b614e8c826158ac565b603660009054906101000a900473ffffffffffffffffffffffffffffffffffffffff1673ffffffffffffffffffffffffffffffffffffffff1663e8e57118836040518263ffffffff1660e01b81526004018082815260200191505060206040518083038186803b158015614eff57600080fd5b505afa158015614f13573d6000803e3d6000fd5b505050506040513d6020811015614f2957600080fd5b810190808051906020019092919050505073ffffffffffffffffffffffffffffffffffffffff16635353a2d8826040518263ffffffff1660e01b81526004018080602001828103825283818151815260200191508051906020019080838360005b83811015614fa5578082015181840152602081019050614f8a565b50505050905090810190601f168015614fd25780820380516001836020036101000a031916815260200191505b5092505050600060405180830381600087803b158015614ff157600080fd5b505af1158015615005573d6000803e3d6000fd5b505050505050565b615016826158ac565b60008090505b81518110156158a7576000603660009054906101000a900473ffffffffffffffffffffffffffffffffffffffff1673ffffffffffffffffffffffffffffffffffffffff16635770f6408585858151811061507257fe5b60200260200101516040518363ffffffff1660e01b8152600401808381526020018281526020019250505060206040518083038186803b1580156150b557600080fd5b505afa1580156150c9573d6000803e3d6000fd5b505050506040513d60208110156150df57600080fd5b81019080805190602001909291905050509050600073ffffffffffffffffffffffffffffffffffffffff168173ffffffffffffffffffffffffffffffffffffffff161415615195576040517f08c379a000000000000000000000000000000000000000000000000000000000815260040180806020018281038252600a8152602001807f4e6f20726571756573740000000000000000000000000000000000000000000081525060200191505060405180910390fd5b3073ffffffffffffffffffffffffffffffffffffffff16603660009054906101000a900473ffffffffffffffffffffffffffffffffffffffff1673ffffffffffffffffffffffffffffffffffffffff16639d0214cb866040518263ffffffff1660e01b81526004018082815260200191505060206040518083038186803b15801561521f57600080fd5b505afa158015615233573d6000803e3d6000fd5b505050506040513d602081101561524957600080fd5b810190808051906020019092919050505073ffffffffffffffffffffffffffffffffffffffff16636352211e85858151811061528157fe5b60200260200101516040518263ffffffff1660e01b81526004018082815260200191505060206040518083038186803b1580156152bd57600080fd5b505afa1580156152d1573d6000803e3d6000fd5b505050506040513d60208110156152e757600080fd5b810190808051906020019092919050505073ffffffffffffffffffffffffffffffffffffffff1614615381576040517f08c379a00000000000000000000000000000000000000000000000000000000081526004018080602001828103825260098152602001807f4e6f74206f776e6572000000000000000000000000000000000000000000000081525060200191505060405180910390fd5b603660009054906101000a900473ffffffffffffffffffffffffffffffffffffffff1673ffffffffffffffffffffffffffffffffffffffff16637f10d314858585815181106153cc57fe5b602002602001015160006040518463ffffffff1660e01b8152600401808481526020018381526020018273ffffffffffffffffffffffffffffffffffffffff1673ffffffffffffffffffffffffffffffffffffffff1681526020019350505050600060405180830381600087803b15801561544657600080fd5b505af115801561545a573d6000803e3d6000fd5b50505050603660009054906101000a900473ffffffffffffffffffffffffffffffffffffffff1673ffffffffffffffffffffffffffffffffffffffff16639989f93a858585815181106154a957fe5b602002602001015160016040518463ffffffff1660e01b815260040180848152602001838152602001821515151581526020019350505050600060405180830381600087803b1580156154fb57600080fd5b505af115801561550f573d6000803e3d6000fd5b50505050603660009054906101000a900473ffffffffffffffffffffffffffffffffffffffff1673ffffffffffffffffffffffffffffffffffffffff16634d0cb0988585858151811061555e57fe5b60200260200101516040518363ffffffff1660e01b8152600401808381526020018281526020019250505060206040518083038186803b1580156155a157600080fd5b505afa1580156155b5573d6000803e3d6000fd5b505050506040513d60208110156155cb57600080fd5b81019080805190602001909291905050501561568e57603660009054906101000a900473ffffffffffffffffffffffffffffffffffffffff1673ffffffffffffffffffffffffffffffffffffffff16631ca1e4928585858151811061562c57fe5b60200260200101516040518363ffffffff1660e01b81526004018083815260200182815260200192505050600060405180830381600087803b15801561567157600080fd5b505af1158015615685573d6000803e3d6000fd5b50505050615737565b603660009054906101000a900473ffffffffffffffffffffffffffffffffffffffff1673ffffffffffffffffffffffffffffffffffffffff16634cef6465858585815181106156d957fe5b60200260200101516040518363ffffffff1660e01b81526004018083815260200182815260200192505050600060405180830381600087803b15801561571e57600080fd5b505af1158015615732573d6000803e3d6000fd5b505050505b603660009054906101000a900473ffffffffffffffffffffffffffffffffffffffff1673ffffffffffffffffffffffffffffffffffffffff1663e8e57118856040518263ffffffff1660e01b81526004018082815260200191505060206040518083038186803b1580156157aa57600080fd5b505afa1580156157be573d6000803e3d6000fd5b505050506040513d60208110156157d457600080fd5b810190808051906020019092919050505073ffffffffffffffffffffffffffffffffffffffff166340c10f1982670de0b6b3a76400006040518363ffffffff1660e01b8152600401808373ffffffffffffffffffffffffffffffffffffffff1673ffffffffffffffffffffffffffffffffffffffff16815260200182815260200192505050600060405180830381600087803b15801561587357600080fd5b505af1158015615887573d6000803e3d6000fd5b50505050506158a0600182616d4a90919063ffffffff16565b905061501c565b505050565b603660009054906101000a900473ffffffffffffffffffffffffffffffffffffffff1673ffffffffffffffffffffffffffffffffffffffff166333727c4d826040518263ffffffff1660e01b81526004018082815260200191505060206040518083038186803b15801561591f57600080fd5b505afa158015615933573d6000803e3d6000fd5b505050506040513d602081101561594957600080fd5b810190808051906020019092919050505015615a0c57615967613eff565b73ffffffffffffffffffffffffffffffffffffffff163373ffffffffffffffffffffffffffffffffffffffff1614615a07576040517f08c379a00000000000000000000000000000000000000000000000000000000081526004018080602001828103825260098152602001807f4e6f74206f776e6572000000000000000000000000000000000000000000000081525060200191505060405180910390fd5b615b5b565b603660009054906101000a900473ffffffffffffffffffffffffffffffffffffffff1673ffffffffffffffffffffffffffffffffffffffff166352981457826040518263ffffffff1660e01b81526004018082815260200191505060206040518083038186803b158015615a7f57600080fd5b505afa158015615a93573d6000803e3d6000fd5b505050506040513d6020811015615aa957600080fd5b810190808051906020019092919050505073ffffffffffffffffffffffffffffffffffffffff163373ffffffffffffffffffffffffffffffffffffffff1614615b5a576040517f08c379a000000000000000000000000000000000000000000000000000000000815260040180806020018281038252600b8152602001807f4e6f74206d616e6167657200000000000000000000000000000000000000000081525060200191505060405180910390fd5b5b50565b600080851415615b715760009050615c2f565b8115615bd757615bd0615bc1670de0b6b3a7640000615bb3615ba4670de0b6b3a76400008a615c3790919063ffffffff16565b87616e2590919063ffffffff16565b616eab90919063ffffffff16565b85616d4a90919063ffffffff16565b9050615c2f565b600085905060006001871015615bee576000615c03565b615c02600183615c3790919063ffffffff16565b5b9050615c2a615c1b8287616e2590919063ffffffff16565b87616d4a90919063ffffffff16565b925050505b949350505050565b6000615c7983836040518060400160405280601e81526020017f536166654d6174683a207375627472616374696f6e206f766572666c6f770000815250617b79565b905092915050565b81811015615cf7576040517f08c379a000000000000000000000000000000000000000000000000000000000815260040180806020018281038252600d8152602001807f56616c756520746f6f206c6f770000000000000000000000000000000000000081525060200191505060405180910390fd5b603660009054906101000a900473ffffffffffffffffffffffffffffffffffffffff1673ffffffffffffffffffffffffffffffffffffffff16632998491584615df685603660009054906101000a900473ffffffffffffffffffffffffffffffffffffffff1673ffffffffffffffffffffffffffffffffffffffff1663bf17f2f2896040518263ffffffff1660e01b81526004018082815260200191505060206040518083038186803b158015615dad57600080fd5b505afa158015615dc1573d6000803e3d6000fd5b505050506040513d6020811015615dd757600080fd5b8101908080519060200190929190505050616d4a90919063ffffffff16565b6040518363ffffffff1660e01b81526004018083815260200182815260200192505050600060405180830381600087803b158015615e3357600080fd5b505af1158015615e47573d6000803e3d6000fd5b5050505081811115615ead573373ffffffffffffffffffffffffffffffffffffffff166108fc615e808484615c3790919063ffffffff16565b9081150290604051600060405180830381858888f19350505050158015615eab573d6000803e3d6000fd5b505b505050565b615f8c333083603660009054906101000a900473ffffffffffffffffffffffffffffffffffffffff1673ffffffffffffffffffffffffffffffffffffffff166305bb8485876040518263ffffffff1660e01b81526004018082815260200191505060206040518083038186803b158015615f2b57600080fd5b505afa158015615f3f573d6000803e3d6000fd5b505050506040513d6020811015615f5557600080fd5b810190808051906020019092919050505073ffffffffffffffffffffffffffffffffffffffff16617c39909392919063ffffffff16565b603660009054906101000a900473ffffffffffffffffffffffffffffffffffffffff1673ffffffffffffffffffffffffffffffffffffffff1663e8e57118836040518263ffffffff1660e01b81526004018082815260200191505060206040518083038186803b158015615fff57600080fd5b505afa158015616013573d6000803e3d6000fd5b505050506040513d602081101561602957600080fd5b810190808051906020019092919050505073ffffffffffffffffffffffffffffffffffffffff166340c10f1933836040518363ffffffff1660e01b8152600401808373ffffffffffffffffffffffffffffffffffffffff1673ffffffffffffffffffffffffffffffffffffffff16815260200182815260200192505050600060405180830381600087803b1580156160c057600080fd5b505af11580156160d4573d6000803e3d6000fd5b50505050603660009054906101000a900473ffffffffffffffffffffffffffffffffffffffff1673ffffffffffffffffffffffffffffffffffffffff16632ef30ad0836161d784603660009054906101000a900473ffffffffffffffffffffffffffffffffffffffff1673ffffffffffffffffffffffffffffffffffffffff16635bd1a28e886040518263ffffffff1660e01b81526004018082815260200191505060206040518083038186803b15801561618e57600080fd5b505afa1580156161a2573d6000803e3d6000fd5b505050506040513d60208110156161b857600080fd5b8101908080519060200190929190505050616d4a90919063ffffffff16565b6040518363ffffffff1660e01b81526004018083815260200182815260200192505050600060405180830381600087803b15801561621457600080fd5b505af1158015616228573d6000803e3d6000fd5b505050505050565b60008090505b8251811015616a0d57600083828151811061624d57fe5b602002602001015190506162618582614a44565b6162d3576040517f08c379a000000000000000000000000000000000000000000000000000000000815260040180806020018281038252600c8152602001807f4e6f7420656c696769626c65000000000000000000000000000000000000000081525060200191505060405180910390fd5b3073ffffffffffffffffffffffffffffffffffffffff16603660009054906101000a900473ffffffffffffffffffffffffffffffffffffffff1673ffffffffffffffffffffffffffffffffffffffff16639d0214cb876040518263ffffffff1660e01b81526004018082815260200191505060206040518083038186803b15801561635d57600080fd5b505afa158015616371573d6000803e3d6000fd5b505050506040513d602081101561638757600080fd5b810190808051906020019092919050505073ffffffffffffffffffffffffffffffffffffffff16636352211e836040518263ffffffff1660e01b81526004018082815260200191505060206040518083038186803b1580156163e857600080fd5b505afa1580156163fc573d6000803e3d6000fd5b505050506040513d602081101561641257600080fd5b810190808051906020019092919050505073ffffffffffffffffffffffffffffffffffffffff1614156164ad576040517f08c379a000000000000000000000000000000000000000000000000000000000815260040180806020018281038252600d8152602001807f416c7265616479206f776e65720000000000000000000000000000000000000081525060200191505060405180910390fd5b603660009054906101000a900473ffffffffffffffffffffffffffffffffffffffff1673ffffffffffffffffffffffffffffffffffffffff16639d0214cb866040518263ffffffff1660e01b81526004018082815260200191505060206040518083038186803b15801561652057600080fd5b505afa158015616534573d6000803e3d6000fd5b505050506040513d602081101561654a57600080fd5b810190808051906020019092919050505073ffffffffffffffffffffffffffffffffffffffff166342842e0e3330846040518463ffffffff1660e01b8152600401808473ffffffffffffffffffffffffffffffffffffffff1673ffffffffffffffffffffffffffffffffffffffff1681526020018373ffffffffffffffffffffffffffffffffffffffff1673ffffffffffffffffffffffffffffffffffffffff1681526020018281526020019350505050600060405180830381600087803b15801561661557600080fd5b505af1158015616629573d6000803e3d6000fd5b505050503073ffffffffffffffffffffffffffffffffffffffff16603660009054906101000a900473ffffffffffffffffffffffffffffffffffffffff1673ffffffffffffffffffffffffffffffffffffffff16639d0214cb876040518263ffffffff1660e01b81526004018082815260200191505060206040518083038186803b1580156166b757600080fd5b505afa1580156166cb573d6000803e3d6000fd5b505050506040513d60208110156166e157600080fd5b810190808051906020019092919050505073ffffffffffffffffffffffffffffffffffffffff16636352211e836040518263ffffffff1660e01b81526004018082815260200191505060206040518083038186803b15801561674257600080fd5b505afa158015616756573d6000803e3d6000fd5b505050506040513d602081101561676c57600080fd5b810190808051906020019092919050505073ffffffffffffffffffffffffffffffffffffffff1614616806576040517f08c379a000000000000000000000000000000000000000000000000000000000815260040180806020018281038252600c8152602001807f4e6f74207265636569766564000000000000000000000000000000000000000081525060200191505060405180910390fd5b603660009054906101000a900473ffffffffffffffffffffffffffffffffffffffff1673ffffffffffffffffffffffffffffffffffffffff16634d0cb09886836040518363ffffffff1660e01b8152600401808381526020018281526020019250505060206040518083038186803b15801561688157600080fd5b505afa158015616895573d6000803e3d6000fd5b505050506040513d60208110156168ab57600080fd5b81019080805190602001909291905050501561695b57603660009054906101000a900473ffffffffffffffffffffffffffffffffffffffff1673ffffffffffffffffffffffffffffffffffffffff16631ca1e49286836040518363ffffffff1660e01b81526004018083815260200182815260200192505050600060405180830381600087803b15801561693e57600080fd5b505af1158015616952573d6000803e3d6000fd5b505050506169f1565b603660009054906101000a900473ffffffffffffffffffffffffffffffffffffffff1673ffffffffffffffffffffffffffffffffffffffff16634cef646586836040518363ffffffff1660e01b81526004018083815260200182815260200192505050600060405180830381600087803b1580156169d857600080fd5b505af11580156169ec573d6000803e3d6000fd5b505050505b50616a06600182616d4a90919063ffffffff16565b9050616236565b5080616b81576000616a31670de0b6b3a76400008451616e2590919063ffffffff16565b9050603660009054906101000a900473ffffffffffffffffffffffffffffffffffffffff1673ffffffffffffffffffffffffffffffffffffffff1663e8e57118856040518263ffffffff1660e01b81526004018082815260200191505060206040518083038186803b158015616aa657600080fd5b505afa158015616aba573d6000803e3d6000fd5b505050506040513d6020811015616ad057600080fd5b810190808051906020019092919050505073ffffffffffffffffffffffffffffffffffffffff166340c10f1933836040518363ffffffff1660e01b8152600401808373ffffffffffffffffffffffffffffffffffffffff1673ffffffffffffffffffffffffffffffffffffffff16815260200182815260200192505050600060405180830381600087803b158015616b6757600080fd5b505af1158015616b7b573d6000803e3d6000fd5b50505050505b505050565b6000603660009054906101000a900473ffffffffffffffffffffffffffffffffffffffff1673ffffffffffffffffffffffffffffffffffffffff1663bf17f2f2856040518263ffffffff1660e01b81526004018082815260200191505060206040518083038186803b158015616bfb57600080fd5b505afa158015616c0f573d6000803e3d6000fd5b505050506040513d6020811015616c2557600080fd5b810190808051906020019092919050505090506000838210616c475783616c49565b815b90506000811115616d4357603660009054906101000a900473ffffffffffffffffffffffffffffffffffffffff1673ffffffffffffffffffffffffffffffffffffffff16632998491586616ca68486615c3790919063ffffffff16565b6040518363ffffffff1660e01b81526004018083815260200182815260200192505050600060405180830381600087803b158015616ce357600080fd5b505af1158015616cf7573d6000803e3d6000fd5b505050508273ffffffffffffffffffffffffffffffffffffffff166108fc829081150290604051600060405180830381858888f19350505050158015616d41573d6000803e3d6000fd5b505b5050505050565b600080828401905083811015616dc8576040517f08c379a000000000000000000000000000000000000000000000000000000000815260040180806020018281038252601b8152602001807f536166654d6174683a206164646974696f6e206f766572666c6f77000000000081525060200191505060405180910390fd5b8091505092915050565b6000828210616de45760009050616e1e565b616e1b616e0c84616dfe8588616e2590919063ffffffff16565b616eab90919063ffffffff16565b85615c3790919063ffffffff16565b90505b9392505050565b600080831415616e385760009050616ea5565b6000828402905082848281616e4957fe5b0414616ea0576040517f08c379a0000000000000000000000000000000000000000000000000000000008152600401808060200182810382526021815260200180618d616021913960400191505060405180910390fd5b809150505b92915050565b6000616eed83836040518060400160405280601a81526020017f536166654d6174683a206469766973696f6e206279207a65726f000000000000815250617d26565b905092915050565b6000806000603660009054906101000a900473ffffffffffffffffffffffffffffffffffffffff1673ffffffffffffffffffffffffffffffffffffffff1663198e4788866040518263ffffffff1660e01b815260040180828152602001915050604080518083038186803b158015616f6c57600080fd5b505afa158015616f80573d6000803e3d6000fd5b505050506040513d6040811015616f9657600080fd5b81019080805190602001909291908051906020019092919050505091509150808410616fc757600092505050617009565b6000616fdc8583615c3790919063ffffffff16565b905061700382616ff58386616e2590919063ffffffff16565b616eab90919063ffffffff16565b93505050505b92915050565b600033905090565b60008090505b82811015617525576060600167ffffffffffffffff8111801561703f57600080fd5b5060405190808252806020026020018201604052801561706e5781602001602082028036833780820191505090505b5090506000603660009054906101000a900473ffffffffffffffffffffffffffffffffffffffff1673ffffffffffffffffffffffffffffffffffffffff1663e94dbf89876040518263ffffffff1660e01b81526004018082815260200191505060206040518083038186803b1580156170e657600080fd5b505afa1580156170fa573d6000803e3d6000fd5b505050506040513d602081101561711057600080fd5b810190808051906020019092919050505011156172b65760006171df603660009054906101000a900473ffffffffffffffffffffffffffffffffffffffff1673ffffffffffffffffffffffffffffffffffffffff1663e94dbf89886040518263ffffffff1660e01b81526004018082815260200191505060206040518083038186803b15801561719f57600080fd5b505afa1580156171b3573d6000803e3d6000fd5b505050506040513d60208110156171c957600080fd5b8101908080519060200190929190505050617dec565b9050603660009054906101000a900473ffffffffffffffffffffffffffffffffffffffff1673ffffffffffffffffffffffffffffffffffffffff1663645058b387836040518363ffffffff1660e01b8152600401808381526020018281526020019250505060206040518083038186803b15801561725c57600080fd5b505afa158015617270573d6000803e3d6000fd5b505050506040513d602081101561728657600080fd5b8101908080519060200190929190505050826000815181106172a457fe5b60200260200101818152505050617441565b600061736e603660009054906101000a900473ffffffffffffffffffffffffffffffffffffffff1673ffffffffffffffffffffffffffffffffffffffff1663cc824473886040518263ffffffff1660e01b81526004018082815260200191505060206040518083038186803b15801561732e57600080fd5b505afa158015617342573d6000803e3d6000fd5b505050506040513d602081101561735857600080fd5b8101908080519060200190929190505050617dec565b9050603660009054906101000a900473ffffffffffffffffffffffffffffffffffffffff1673ffffffffffffffffffffffffffffffffffffffff1663ec30064a87836040518363ffffffff1660e01b8152600401808381526020018281526020019250505060206040518083038186803b1580156173eb57600080fd5b505afa1580156173ff573d6000803e3d6000fd5b505050506040513d602081101561741557600080fd5b81019080805190602001909291905050508260008151811061743357fe5b602002602001018181525050505b61744c85828561804b565b7f8dd603fb9fd7fdd0be7a7c282962e1ac7c6d82e51fc34bd602ec1b83cf2dc93c858260003360405180858152602001806020018481526020018373ffffffffffffffffffffffffffffffffffffffff1673ffffffffffffffffffffffffffffffffffffffff168152602001828103825285818151815260200191508051906020019060200280838360005b838110156174f35780820151818401526020810190506174d8565b505050509050019550505050505060405180910390a15061751e600182616d4a90919063ffffffff16565b905061701d565b50505050565b603660009054906101000a900473ffffffffffffffffffffffffffffffffffffffff1673ffffffffffffffffffffffffffffffffffffffff1663e8e57118836040518263ffffffff1660e01b81526004018082815260200191505060206040518083038186803b15801561759e57600080fd5b505afa1580156175b2573d6000803e3d6000fd5b505050506040513d60208110156175c857600080fd5b810190808051906020019092919050505073ffffffffffffffffffffffffffffffffffffffff166379cc679033836040518363ffffffff1660e01b8152600401808373ffffffffffffffffffffffffffffffffffffffff1673ffffffffffffffffffffffffffffffffffffffff16815260200182815260200192505050600060405180830381600087803b15801561765f57600080fd5b505af1158015617673573d6000803e3d6000fd5b5050505061774f3382603660009054906101000a900473ffffffffffffffffffffffffffffffffffffffff1673ffffffffffffffffffffffffffffffffffffffff166305bb8485866040518263ffffffff1660e01b81526004018082815260200191505060206040518083038186803b1580156176ef57600080fd5b505afa158015617703573d6000803e3d6000fd5b505050506040513d602081101561771957600080fd5b810190808051906020019092919050505073ffffffffffffffffffffffffffffffffffffffff166189629092919063ffffffff16565b603660009054906101000a900473ffffffffffffffffffffffffffffffffffffffff1673ffffffffffffffffffffffffffffffffffffffff16632ef30ad08361784e84603660009054906101000a900473ffffffffffffffffffffffffffffffffffffffff1673ffffffffffffffffffffffffffffffffffffffff16635bd1a28e886040518263ffffffff1660e01b81526004018082815260200191505060206040518083038186803b15801561780557600080fd5b505afa158015617819573d6000803e3d6000fd5b505050506040513d602081101561782f57600080fd5b8101908080519060200190929190505050615c3790919063ffffffff16565b6040518363ffffffff1660e01b81526004018083815260200182815260200192505050600060405180830381600087803b15801561788b57600080fd5b505af115801561789f573d6000803e3d6000fd5b505050506060600067ffffffffffffffff811180156178bd57600080fd5b506040519080825280602002602001820160405280156178ec5781602001602082028036833780820191505090505b5090507f8dd603fb9fd7fdd0be7a7c282962e1ac7c6d82e51fc34bd602ec1b83cf2dc93c8382843360405180858152602001806020018481526020018373ffffffffffffffffffffffffffffffffffffffff1673ffffffffffffffffffffffffffffffffffffffff168152602001828103825285818151815260200191508051906020019060200280838360005b8381101561799557808201518184015260208101905061797a565b505050509050019550505050505060405180910390a1505050565b6000803090506000813b9050600081149250505090565b600060019054906101000a900460ff16806179e657506179e56179b0565b5b806179fd57506000809054906101000a900460ff16155b617a52576040517f08c379a000000000000000000000000000000000000000000000000000000000815260040180806020018281038252602e815260200180618d82602e913960400191505060405180910390fd5b60008060019054906101000a900460ff161590508015617aa2576001600060016101000a81548160ff02191690831515021790555060016000806101000a81548160ff0219169083151502179055505b6000617aac61700f565b905080603360006101000a81548173ffffffffffffffffffffffffffffffffffffffff021916908373ffffffffffffffffffffffffffffffffffffffff1602179055508073ffffffffffffffffffffffffffffffffffffffff16600073ffffffffffffffffffffffffffffffffffffffff167f8be0079c531659141344cd1fd0a4f28419497f9722a3daafe3b4186f6b6457e060405160405180910390a3508015617b6c5760008060016101000a81548160ff0219169083151502179055505b50565b6001603581905550565b6000838311158290617c26576040517f08c379a00000000000000000000000000000000000000000000000000000000081526004018080602001828103825283818151815260200191508051906020019080838360005b83811015617beb578082015181840152602081019050617bd0565b50505050905090810190601f168015617c185780820380516001836020036101000a031916815260200191505b509250505060405180910390fd5b5060008385039050809150509392505050565b617d20846323b872dd60e01b858585604051602401808473ffffffffffffffffffffffffffffffffffffffff1673ffffffffffffffffffffffffffffffffffffffff1681526020018373ffffffffffffffffffffffffffffffffffffffff1673ffffffffffffffffffffffffffffffffffffffff1681526020018281526020019350505050604051602081830303815290604052907bffffffffffffffffffffffffffffffffffffffffffffffffffffffff19166020820180517bffffffffffffffffffffffffffffffffffffffffffffffffffffffff8381831617835250505050618a1a565b50505050565b60008083118290617dd2576040517f08c379a00000000000000000000000000000000000000000000000000000000081526004018080602001828103825283818151815260200191508051906020019080838360005b83811015617d97578082015181840152602081019050617d7c565b50505050905090810190601f168015617dc45780820380516001836020036101000a031916815260200191505b509250505060405180910390fd5b506000838581617dde57fe5b049050809150509392505050565b6000603660009054906101000a900473ffffffffffffffffffffffffffffffffffffffff1673ffffffffffffffffffffffffffffffffffffffff1663b7d04423617ee26001603660009054906101000a900473ffffffffffffffffffffffffffffffffffffffff1673ffffffffffffffffffffffffffffffffffffffff166361e013566040518163ffffffff1660e01b815260040160206040518083038186803b158015617e9957600080fd5b505afa158015617ead573d6000803e3d6000fd5b505050506040513d6020811015617ec357600080fd5b8101908080519060200190929190505050616d4a90919063ffffffff16565b6040518263ffffffff1660e01b815260040180828152602001915050600060405180830381600087803b158015617f1857600080fd5b505af1158015617f2c573d6000803e3d6000fd5b50505050814233603660009054906101000a900473ffffffffffffffffffffffffffffffffffffffff1673ffffffffffffffffffffffffffffffffffffffff166361e013566040518163ffffffff1660e01b815260040160206040518083038186803b158015617f9b57600080fd5b505afa158015617faf573d6000803e3d6000fd5b505050506040513d6020811015617fc557600080fd5b8101908080519060200190929190505050604051602001808481526020018373ffffffffffffffffffffffffffffffffffffffff1673ffffffffffffffffffffffffffffffffffffffff1660601b815260140182815260200193505050506040516020818303038152906040528051906020012060001c8161804357fe5b069050919050565b806181b857603660009054906101000a900473ffffffffffffffffffffffffffffffffffffffff1673ffffffffffffffffffffffffffffffffffffffff1663e8e57118846040518263ffffffff1660e01b81526004018082815260200191505060206040518083038186803b1580156180c357600080fd5b505afa1580156180d7573d6000803e3d6000fd5b505050506040513d60208110156180ed57600080fd5b810190808051906020019092919050505073ffffffffffffffffffffffffffffffffffffffff166379cc679033618136670de0b6b3a76400008651616e2590919063ffffffff16565b6040518363ffffffff1660e01b8152600401808373ffffffffffffffffffffffffffffffffffffffff1673ffffffffffffffffffffffffffffffffffffffff16815260200182815260200192505050600060405180830381600087803b15801561819f57600080fd5b505af11580156181b3573d6000803e3d6000fd5b505050505b60008090505b825181101561895c5760008382815181106181d557fe5b60200260200101519050603660009054906101000a900473ffffffffffffffffffffffffffffffffffffffff1673ffffffffffffffffffffffffffffffffffffffff16637cb251d586836040518363ffffffff1660e01b8152600401808381526020018281526020019250505060206040518083038186803b15801561825a57600080fd5b505afa15801561826e573d6000803e3d6000fd5b505050506040513d602081101561828457600080fd5b8101908080519060200190929190505050806183525750603660009054906101000a900473ffffffffffffffffffffffffffffffffffffffff1673ffffffffffffffffffffffffffffffffffffffff166381b10bc786836040518363ffffffff1660e01b8152600401808381526020018281526020019250505060206040518083038186803b15801561831657600080fd5b505afa15801561832a573d6000803e3d6000fd5b505050506040513d602081101561834057600080fd5b81019080805190602001909291905050505b6183c4576040517f08c379a00000000000000000000000000000000000000000000000000000000081526004018080602001828103825260108152602001807f4e4654206e6f7420696e207661756c740000000000000000000000000000000081525060200191505060405180910390fd5b603660009054906101000a900473ffffffffffffffffffffffffffffffffffffffff1673ffffffffffffffffffffffffffffffffffffffff16637cb251d586836040518363ffffffff1660e01b8152600401808381526020018281526020019250505060206040518083038186803b15801561843f57600080fd5b505afa158015618453573d6000803e3d6000fd5b505050506040513d602081101561846957600080fd5b81019080805190602001909291905050501561851957603660009054906101000a900473ffffffffffffffffffffffffffffffffffffffff1673ffffffffffffffffffffffffffffffffffffffff16630f3e56c986836040518363ffffffff1660e01b81526004018083815260200182815260200192505050600060405180830381600087803b1580156184fc57600080fd5b505af1158015618510573d6000803e3d6000fd5b505050506185af565b603660009054906101000a900473ffffffffffffffffffffffffffffffffffffffff1673ffffffffffffffffffffffffffffffffffffffff166334f0fe5086836040518363ffffffff1660e01b81526004018083815260200182815260200192505050600060405180830381600087803b15801561859657600080fd5b505af11580156185aa573d6000803e3d6000fd5b505050505b603660009054906101000a900473ffffffffffffffffffffffffffffffffffffffff1673ffffffffffffffffffffffffffffffffffffffff166391c2302a866040518263ffffffff1660e01b81526004018082815260200191505060206040518083038186803b15801561862257600080fd5b505afa158015618636573d6000803e3d6000fd5b505050506040513d602081101561864c57600080fd5b8101908080519060200190929190505050156187c0576000603660009054906101000a900473ffffffffffffffffffffffffffffffffffffffff1673ffffffffffffffffffffffffffffffffffffffff1663f09e82e287846040518363ffffffff1660e01b8152600401808381526020018281526020019250505060206040518083038186803b1580156186df57600080fd5b505afa1580156186f3573d6000803e3d6000fd5b505050506040513d602081101561870957600080fd5b81019080805190602001909291905050509050603660009054906101000a900473ffffffffffffffffffffffffffffffffffffffff1673ffffffffffffffffffffffffffffffffffffffff16639989f93a878484156040518463ffffffff1660e01b815260040180848152602001838152602001821515151581526020019350505050600060405180830381600087803b1580156187a657600080fd5b505af11580156187ba573d6000803e3d6000fd5b50505050505b603660009054906101000a900473ffffffffffffffffffffffffffffffffffffffff1673ffffffffffffffffffffffffffffffffffffffff16639d0214cb866040518263ffffffff1660e01b81526004018082815260200191505060206040518083038186803b15801561883357600080fd5b505afa158015618847573d6000803e3d6000fd5b505050506040513d602081101561885d57600080fd5b810190808051906020019092919050505073ffffffffffffffffffffffffffffffffffffffff166342842e0e3033846040518463ffffffff1660e01b8152600401808473ffffffffffffffffffffffffffffffffffffffff1673ffffffffffffffffffffffffffffffffffffffff1681526020018373ffffffffffffffffffffffffffffffffffffffff1673ffffffffffffffffffffffffffffffffffffffff1681526020018281526020019350505050600060405180830381600087803b15801561892857600080fd5b505af115801561893c573d6000803e3d6000fd5b5050505050618955600182616d4a90919063ffffffff16565b90506181be565b50505050565b618a158363a9059cbb60e01b8484604051602401808373ffffffffffffffffffffffffffffffffffffffff1673ffffffffffffffffffffffffffffffffffffffff16815260200182815260200192505050604051602081830303815290604052907bffffffffffffffffffffffffffffffffffffffffffffffffffffffff19166020820180517bffffffffffffffffffffffffffffffffffffffffffffffffffffffff8381831617835250505050618a1a565b505050565b6060618a7c826040518060400160405280602081526020017f5361666545524332303a206c6f772d6c6576656c2063616c6c206661696c65648152508573ffffffffffffffffffffffffffffffffffffffff16618b099092919063ffffffff16565b9050600081511115618b0457808060200190516020811015618a9d57600080fd5b8101908080519060200190929190505050618b03576040517f08c379a000000000000000000000000000000000000000000000000000000000815260040180806020018281038252602a815260200180618db0602a913960400191505060405180910390fd5b5b505050565b6060618b188484600085618b21565b90509392505050565b6060618b2c85618d27565b618b9e576040517f08c379a000000000000000000000000000000000000000000000000000000000815260040180806020018281038252601d8152602001807f416464726573733a2063616c6c20746f206e6f6e2d636f6e747261637400000081525060200191505060405180910390fd5b600060608673ffffffffffffffffffffffffffffffffffffffff1685876040518082805190602001908083835b60208310618bee5780518252602082019150602081019050602083039250618bcb565b6001836020036101000a03801982511681845116808217855250505050505090500191505060006040518083038185875af1925050503d8060008114618c50576040519150601f19603f3d011682016040523d82523d6000602084013e618c55565b606091505b50915091508115618c6a578092505050618d1f565b600081511115618c7d5780518082602001fd5b836040517f08c379a00000000000000000000000000000000000000000000000000000000081526004018080602001828103825283818151815260200191508051906020019080838360005b83811015618ce4578082015181840152602081019050618cc9565b50505050905090810190601f168015618d115780820380516001836020036101000a031916815260200191505b509250505060405180910390fd5b949350505050565b600080823b90506000811191505091905056fe4f776e61626c653a206e6577206f776e657220697320746865207a65726f2061646472657373536166654d6174683a206d756c7469706c69636174696f6e206f766572666c6f77436f6e747261637420696e7374616e63652068617320616c7265616479206265656e20696e697469616c697a65645361666545524332303a204552433230206f7065726174696f6e20646964206e6f742073756363656564a2646970667358221220dd6b9c2eabf36e047c9dbd97169e94e9472df3b9a1aabd4207f377d6f2ef659c64736f6c63430006080033",
  "immutableReferences": {},
  "source": "// SPDX-License-Identifier: MIT\n\npragma solidity 0.6.8;\n\nimport \"./NFTX.sol\";\n\ncontract NFTXv2 is NFTX {\n    function transferERC721(uint256 vaultId, uint256 tokenId, address to)\n        public\n        virtual\n        onlyOwner\n    {\n        store.nft(vaultId).transferFrom(address(this), to, tokenId);\n    }\n}\n",
  "sourcePath": "/Applications/MAMP/htdocs/nftx-graph/contracts/NFTXv2.sol",
  "compiler": {
    "name": "solc",
    "version": "0.6.8+commit.0bbfe453.Emscripten.clang"
  },
  "schemaVersion": "3.3.4",
  "updatedAt": "2021-02-23T14:33:02.211Z",
  "devdoc": {
    "methods": {
      "onERC721Received(address,address,uint256,bytes)": {
        "details": "See {IERC721Receiver-onERC721Received}.     * Always returns `IERC721Receiver.onERC721Received.selector`."
      },
      "owner()": {
        "details": "Returns the address of the current owner."
      },
      "renounceOwnership()": {
        "details": "Leaves the contract without owner. It will not be possible to call `onlyOwner` functions anymore. Can only be called by the current owner.     * NOTE: Renouncing ownership will leave the contract without an owner, thereby removing any functionality that is only available to the owner."
      },
      "transferOwnership(address)": {
        "details": "Transfers ownership of the contract to a new account (`newOwner`). Can only be called by the current owner."
      }
    }
  },
  "userdoc": {
    "methods": {}
  }
}