{
  "contractName": "NFTX",
  "abi": [
    {
      "anonymous": false,
      "inputs": [
        {
          "indexed": false,
          "internalType": "uint256",
          "name": "vaultId",
          "type": "uint256"
        },
        {
          "indexed": false,
          "internalType": "uint256[]",
          "name": "nftIds",
          "type": "uint256[]"
        },
        {
          "indexed": false,
          "internalType": "uint256",
          "name": "d2Amount",
          "type": "uint256"
        },
        {
          "indexed": false,
          "internalType": "address",
          "name": "sender",
          "type": "address"
        }
      ],
      "name": "Mint",
      "type": "event"
    },
    {
      "anonymous": false,
      "inputs": [
        {
          "indexed": false,
          "internalType": "uint256",
          "name": "vaultId",
          "type": "uint256"
        },
        {
          "indexed": false,
          "internalType": "uint256[]",
          "name": "nftIds",
          "type": "uint256[]"
        },
        {
          "indexed": false,
          "internalType": "address",
          "name": "sender",
          "type": "address"
        }
      ],
      "name": "MintRequested",
      "type": "event"
    },
    {
      "anonymous": false,
      "inputs": [
        {
          "indexed": false,
          "internalType": "uint256",
          "name": "vaultId",
          "type": "uint256"
        },
        {
          "indexed": false,
          "internalType": "address",
          "name": "sender",
          "type": "address"
        }
      ],
      "name": "NewVault",
      "type": "event"
    },
    {
      "anonymous": false,
      "inputs": [
        {
          "indexed": true,
          "internalType": "address",
          "name": "previousOwner",
          "type": "address"
        },
        {
          "indexed": true,
          "internalType": "address",
          "name": "newOwner",
          "type": "address"
        }
      ],
      "name": "OwnershipTransferred",
      "type": "event"
    },
    {
      "anonymous": false,
      "inputs": [
        {
          "indexed": false,
          "internalType": "uint256",
          "name": "vaultId",
          "type": "uint256"
        },
        {
          "indexed": false,
          "internalType": "uint256[]",
          "name": "nftIds",
          "type": "uint256[]"
        },
        {
          "indexed": false,
          "internalType": "uint256",
          "name": "d2Amount",
          "type": "uint256"
        },
        {
          "indexed": false,
          "internalType": "address",
          "name": "sender",
          "type": "address"
        }
      ],
      "name": "Redeem",
      "type": "event"
    },
    {
      "inputs": [
        {
          "internalType": "address",
          "name": "",
          "type": "address"
        },
        {
          "internalType": "address",
          "name": "",
          "type": "address"
        },
        {
          "internalType": "uint256",
          "name": "",
          "type": "uint256"
        },
        {
          "internalType": "bytes",
          "name": "",
          "type": "bytes"
        }
      ],
      "name": "onERC721Received",
      "outputs": [
        {
          "internalType": "bytes4",
          "name": "",
          "type": "bytes4"
        }
      ],
      "stateMutability": "nonpayable",
      "type": "function"
    },
    {
      "inputs": [
        {
          "internalType": "uint256",
          "name": "pauserId",
          "type": "uint256"
        }
      ],
      "name": "onlyOwnerIfPaused",
      "outputs": [],
      "stateMutability": "view",
      "type": "function"
    },
    {
      "inputs": [],
      "name": "owner",
      "outputs": [
        {
          "internalType": "address",
          "name": "",
          "type": "address"
        }
      ],
      "stateMutability": "view",
      "type": "function"
    },
    {
      "inputs": [],
      "name": "renounceOwnership",
      "outputs": [],
      "stateMutability": "nonpayable",
      "type": "function"
    },
    {
      "inputs": [
        {
          "internalType": "uint256",
          "name": "pauserId",
          "type": "uint256"
        },
        {
          "internalType": "bool",
          "name": "_isPaused",
          "type": "bool"
        }
      ],
      "name": "setPaused",
      "outputs": [],
      "stateMutability": "nonpayable",
      "type": "function"
    },
    {
      "inputs": [],
      "name": "store",
      "outputs": [
        {
          "internalType": "contract IXStore",
          "name": "",
          "type": "address"
        }
      ],
      "stateMutability": "view",
      "type": "function"
    },
    {
      "inputs": [
        {
          "internalType": "address",
          "name": "newOwner",
          "type": "address"
        }
      ],
      "name": "transferOwnership",
      "outputs": [],
      "stateMutability": "nonpayable",
      "type": "function"
    },
    {
      "inputs": [
        {
          "internalType": "address",
          "name": "storeAddress",
          "type": "address"
        }
      ],
      "name": "initialize",
      "outputs": [],
      "stateMutability": "nonpayable",
      "type": "function"
    },
    {
      "inputs": [
        {
          "internalType": "uint256",
          "name": "vaultId",
          "type": "uint256"
        },
        {
          "internalType": "uint256",
          "name": "nftId",
          "type": "uint256"
        }
      ],
      "name": "isEligible",
      "outputs": [
        {
          "internalType": "bool",
          "name": "",
          "type": "bool"
        }
      ],
      "stateMutability": "view",
      "type": "function"
    },
    {
      "inputs": [
        {
          "internalType": "uint256",
          "name": "vaultId",
          "type": "uint256"
        }
      ],
      "name": "vaultSize",
      "outputs": [
        {
          "internalType": "uint256",
          "name": "",
          "type": "uint256"
        }
      ],
      "stateMutability": "view",
      "type": "function"
    },
    {
      "inputs": [
        {
          "internalType": "uint256",
          "name": "vaultId",
          "type": "uint256"
        },
        {
          "internalType": "uint256",
          "name": "numTokens",
          "type": "uint256"
        },
        {
          "internalType": "bool",
          "name": "isBurn",
          "type": "bool"
        }
      ],
      "name": "_calcBounty",
      "outputs": [
        {
          "internalType": "uint256",
          "name": "",
          "type": "uint256"
        }
      ],
      "stateMutability": "view",
      "type": "function"
    },
    {
      "inputs": [
        {
          "internalType": "uint256",
          "name": "vaultId",
          "type": "uint256"
        },
        {
          "internalType": "uint256",
          "name": "amount",
          "type": "uint256"
        },
        {
          "internalType": "bool",
          "name": "isBurn",
          "type": "bool"
        }
      ],
      "name": "_calcBountyD2",
      "outputs": [
        {
          "internalType": "uint256",
          "name": "",
          "type": "uint256"
        }
      ],
      "stateMutability": "view",
      "type": "function"
    },
    {
      "inputs": [
        {
          "internalType": "address",
          "name": "_xTokenAddress",
          "type": "address"
        },
        {
          "internalType": "address",
          "name": "_assetAddress",
          "type": "address"
        },
        {
          "internalType": "bool",
          "name": "_isD2Vault",
          "type": "bool"
        }
      ],
      "name": "createVault",
      "outputs": [
        {
          "internalType": "uint256",
          "name": "",
          "type": "uint256"
        }
      ],
      "stateMutability": "nonpayable",
      "type": "function"
    },
    {
      "inputs": [
        {
          "internalType": "uint256",
          "name": "vaultId",
          "type": "uint256"
        }
      ],
      "name": "depositETH",
      "outputs": [],
      "stateMutability": "payable",
      "type": "function"
    },
    {
      "inputs": [
        {
          "internalType": "uint256",
          "name": "vaultId",
          "type": "uint256"
        },
        {
          "internalType": "uint256[]",
          "name": "nftIds",
          "type": "uint256[]"
        }
      ],
      "name": "requestMint",
      "outputs": [],
      "stateMutability": "payable",
      "type": "function"
    },
    {
      "inputs": [
        {
          "internalType": "uint256",
          "name": "vaultId",
          "type": "uint256"
        },
        {
          "internalType": "uint256[]",
          "name": "nftIds",
          "type": "uint256[]"
        }
      ],
      "name": "revokeMintRequests",
      "outputs": [],
      "stateMutability": "nonpayable",
      "type": "function"
    },
    {
      "inputs": [
        {
          "internalType": "uint256",
          "name": "vaultId",
          "type": "uint256"
        },
        {
          "internalType": "uint256[]",
          "name": "nftIds",
          "type": "uint256[]"
        }
      ],
      "name": "approveMintRequest",
      "outputs": [],
      "stateMutability": "nonpayable",
      "type": "function"
    },
    {
      "inputs": [
        {
          "internalType": "uint256",
          "name": "vaultId",
          "type": "uint256"
        },
        {
          "internalType": "uint256[]",
          "name": "nftIds",
          "type": "uint256[]"
        },
        {
          "internalType": "uint256",
          "name": "d2Amount",
          "type": "uint256"
        }
      ],
      "name": "mint",
      "outputs": [],
      "stateMutability": "payable",
      "type": "function"
    },
    {
      "inputs": [
        {
          "internalType": "uint256",
          "name": "vaultId",
          "type": "uint256"
        },
        {
          "internalType": "uint256",
          "name": "amount",
          "type": "uint256"
        }
      ],
      "name": "redeem",
      "outputs": [],
      "stateMutability": "payable",
      "type": "function"
    },
    {
      "inputs": [
        {
          "internalType": "uint256",
          "name": "vaultId",
          "type": "uint256"
        },
        {
          "internalType": "uint256[]",
          "name": "nftIds",
          "type": "uint256[]"
        },
        {
          "internalType": "bool",
          "name": "_boolean",
          "type": "bool"
        }
      ],
      "name": "setIsEligible",
      "outputs": [],
      "stateMutability": "nonpayable",
      "type": "function"
    },
    {
      "inputs": [
        {
          "internalType": "uint256",
          "name": "vaultId",
          "type": "uint256"
        },
        {
          "internalType": "bool",
          "name": "flipElig",
          "type": "bool"
        }
      ],
      "name": "setFlipEligOnRedeem",
      "outputs": [],
      "stateMutability": "nonpayable",
      "type": "function"
    },
    {
      "inputs": [
        {
          "internalType": "uint256",
          "name": "vaultId",
          "type": "uint256"
        },
        {
          "internalType": "bool",
          "name": "shouldNegate",
          "type": "bool"
        }
      ],
      "name": "setNegateEligibility",
      "outputs": [],
      "stateMutability": "nonpayable",
      "type": "function"
    },
    {
      "inputs": [
        {
          "internalType": "uint256",
          "name": "vaultId",
          "type": "uint256"
        },
        {
          "internalType": "string",
          "name": "newName",
          "type": "string"
        }
      ],
      "name": "changeTokenName",
      "outputs": [],
      "stateMutability": "nonpayable",
      "type": "function"
    },
    {
      "inputs": [
        {
          "internalType": "uint256",
          "name": "vaultId",
          "type": "uint256"
        },
        {
          "internalType": "string",
          "name": "newSymbol",
          "type": "string"
        }
      ],
      "name": "changeTokenSymbol",
      "outputs": [],
      "stateMutability": "nonpayable",
      "type": "function"
    },
    {
      "inputs": [
        {
          "internalType": "uint256",
          "name": "vaultId",
          "type": "uint256"
        },
        {
          "internalType": "address",
          "name": "newManager",
          "type": "address"
        }
      ],
      "name": "setManager",
      "outputs": [],
      "stateMutability": "nonpayable",
      "type": "function"
    },
    {
      "inputs": [
        {
          "internalType": "uint256",
          "name": "vaultId",
          "type": "uint256"
        }
      ],
      "name": "finalizeVault",
      "outputs": [],
      "stateMutability": "nonpayable",
      "type": "function"
    },
    {
      "inputs": [
        {
          "internalType": "uint256",
          "name": "vaultId",
          "type": "uint256"
        }
      ],
      "name": "closeVault",
      "outputs": [],
      "stateMutability": "nonpayable",
      "type": "function"
    },
    {
      "inputs": [
        {
          "internalType": "uint256",
          "name": "vaultId",
          "type": "uint256"
        },
        {
          "internalType": "uint256",
          "name": "_ethBase",
          "type": "uint256"
        },
        {
          "internalType": "uint256",
          "name": "_ethStep",
          "type": "uint256"
        }
      ],
      "name": "setMintFees",
      "outputs": [],
      "stateMutability": "nonpayable",
      "type": "function"
    },
    {
      "inputs": [
        {
          "internalType": "uint256",
          "name": "vaultId",
          "type": "uint256"
        },
        {
          "internalType": "uint256",
          "name": "_ethBase",
          "type": "uint256"
        },
        {
          "internalType": "uint256",
          "name": "_ethStep",
          "type": "uint256"
        }
      ],
      "name": "setBurnFees",
      "outputs": [],
      "stateMutability": "nonpayable",
      "type": "function"
    },
    {
      "inputs": [
        {
          "internalType": "uint256",
          "name": "vaultId",
          "type": "uint256"
        },
        {
          "internalType": "uint256",
          "name": "ethMax",
          "type": "uint256"
        },
        {
          "internalType": "uint256",
          "name": "length",
          "type": "uint256"
        }
      ],
      "name": "setSupplierBounty",
      "outputs": [],
      "stateMutability": "nonpayable",
      "type": "function"
    }
  ],
  "bytecode": "0x60806040523480156200001157600080fd5b50618b5080620000226000396000f3fe6080604052600436106101cd5760003560e01c8063715018a6116100f75780639fa9ef7311610095578063f09e82e211610064578063f09e82e214610d34578063f2fde38b14610d91578063f84b40dc14610de2578063fabeaafd14610eb4576101cd565b80639fa9ef7314610aff578063a4ebfede14610bc1578063c4d66de814610c9c578063daff97b514610ced576101cd565b806383e4c539116100d157806383e4c5391461093b57806383e8d7e314610a0a5780638da5cb5b14610a51578063975057e714610aa8576101cd565b8063715018a6146108b15780637c77b616146108c85780637cbc237314610903576101cd565b8063360c32881161016f57806341c116661161013e57806341c11666146106d15780635358fbda146107a357806353e1cb27146107d1578063685c6d8114610862576101cd565b8063360c32881461057d5780633a43a54e146105b85780633c08a6151461061d5780634126372514610682576101cd565b8063150b7a02116101ab578063150b7a02146103285780632911c27d1461048c5780632ad5f0a1146104e757806331f669d51461052e576101cd565b8063065e8c06146101d25780630e4e411c1461020d57806313b0cc391461025c575b600080fd5b3480156101de57600080fd5b5061020b600480360360208110156101f557600080fd5b8101908080359060200190929190505050610f83565b005b34801561021957600080fd5b5061025a6004803603606081101561023057600080fd5b8101908080359060200190929190803590602001909291908035906020019092919050505061114a565b005b6103266004803603606081101561027257600080fd5b81019080803590602001909291908035906020019064010000000081111561029957600080fd5b8201836020820111156102ab57600080fd5b803590602001918460208302840111640100000000831117156102cd57600080fd5b919080806020026020016040519081016040528093929190818152602001838360200280828437600081840152601f19601f820116905080830192505050505050509192919290803590602001909291905050506111f5565b005b34801561033457600080fd5b506104386004803603608081101561034b57600080fd5b81019080803573ffffffffffffffffffffffffffffffffffffffff169060200190929190803573ffffffffffffffffffffffffffffffffffffffff16906020019092919080359060200190929190803590602001906401000000008111156103b257600080fd5b8201836020820111156103c457600080fd5b803590602001918460018302840111640100000000831117156103e657600080fd5b91908080601f016020809104026020016040519081016040528093929190818152602001838380828437600081840152601f19601f820116905080830192505050505050509192919290505050611777565b60405180827bffffffffffffffffffffffffffffffffffffffffffffffffffffffff19167bffffffffffffffffffffffffffffffffffffffffffffffffffffffff1916815260200191505060405180910390f35b34801561049857600080fd5b506104e5600480360360408110156104af57600080fd5b8101908080359060200190929190803573ffffffffffffffffffffffffffffffffffffffff16906020019092919050505061178b565b005b3480156104f357600080fd5b5061052c6004803603604081101561050a57600080fd5b8101908080359060200190929190803515159060200190929190505050611859565b005b34801561053a57600080fd5b506105676004803603602081101561055157600080fd5b8101908080359060200190929190505050611ba0565b6040518082815260200191505060405180910390f35b34801561058957600080fd5b506105b6600480360360208110156105a057600080fd5b8101908080359060200190929190505050611e7c565b005b3480156105c457600080fd5b50610607600480360360608110156105db57600080fd5b810190808035906020019092919080359060200190929190803515159060200190929190505050611f22565b6040518082815260200191505060405180910390f35b34801561062957600080fd5b5061066c6004803603606081101561064057600080fd5b81019080803590602001909291908035906020019092919080351515906020019092919050505061217f565b6040518082815260200191505060405180910390f35b34801561068e57600080fd5b506106cf600480360360608110156106a557600080fd5b81019080803590602001909291908035906020019092919080359060200190929190505050612308565b005b3480156106dd57600080fd5b506107a1600480360360408110156106f457600080fd5b81019080803590602001909291908035906020019064010000000081111561071b57600080fd5b82018360208201111561072d57600080fd5b8035906020019184600183028401116401000000008311171561074f57600080fd5b91908080601f016020809104026020016040519081016040528093929190818152602001838380828437600081840152601f19601f8201169050808301925050505050505091929192905050506123b3565b005b6107cf600480360360208110156107b957600080fd5b810190808035906020019092919050505061253d565b005b3480156107dd57600080fd5b5061084c600480360360608110156107f457600080fd5b81019080803573ffffffffffffffffffffffffffffffffffffffff169060200190929190803573ffffffffffffffffffffffffffffffffffffffff169060200190929190803515159060200190929190505050612694565b6040518082815260200191505060405180910390f35b34801561086e57600080fd5b506108af6004803603606081101561088557600080fd5b81019080803590602001909291908035906020019092919080359060200190929190505050612f5b565b005b3480156108bd57600080fd5b506108c6613006565b005b3480156108d457600080fd5b50610901600480360360208110156108eb57600080fd5b8101908080359060200190929190505050613191565b005b6109396004803603604081101561091957600080fd5b810190808035906020019092919080359060200190929190505050613265565b005b34801561094757600080fd5b50610a086004803603604081101561095e57600080fd5b81019080803590602001909291908035906020019064010000000081111561098557600080fd5b82018360208201111561099757600080fd5b803590602001918460208302840111640100000000831117156109b957600080fd5b919080806020026020016040519081016040528093929190818152602001838360200280828437600081840152601f19601f820116905080830192505050505050509192919290505050613709565b005b348015610a1657600080fd5b50610a4f60048036036040811015610a2d57600080fd5b8101908080359060200190929190803515159060200190929190505050613b9a565b005b348015610a5d57600080fd5b50610a66613c40565b604051808273ffffffffffffffffffffffffffffffffffffffff1673ffffffffffffffffffffffffffffffffffffffff16815260200191505060405180910390f35b348015610ab457600080fd5b50610abd613c6a565b604051808273ffffffffffffffffffffffffffffffffffffffff1673ffffffffffffffffffffffffffffffffffffffff16815260200191505060405180910390f35b610bbf60048036036040811015610b1557600080fd5b810190808035906020019092919080359060200190640100000000811115610b3c57600080fd5b820183602082011115610b4e57600080fd5b80359060200191846020830284011164010000000083111715610b7057600080fd5b919080806020026020016040519081016040528093929190818152602001838360200280828437600081840152601f19601f820116905080830192505050505050509192919290505050613c90565b005b348015610bcd57600080fd5b50610c9a60048036036060811015610be457600080fd5b810190808035906020019092919080359060200190640100000000811115610c0b57600080fd5b820183602082011115610c1d57600080fd5b80359060200191846020830284011164010000000083111715610c3f57600080fd5b919080806020026020016040519081016040528093929190818152602001838360200280828437600081840152601f19601f82011690508083019250505050505050919291929080351515906020019092919050505061444e565b005b348015610ca857600080fd5b50610ceb60048036036020811015610cbf57600080fd5b81019080803573ffffffffffffffffffffffffffffffffffffffff16906020019092919050505061453b565b005b348015610cf957600080fd5b50610d3260048036036040811015610d1057600080fd5b810190808035906020019092919080351515906020019092919050505061468c565b005b348015610d4057600080fd5b50610d7760048036036040811015610d5757600080fd5b810190808035906020019092919080359060200190929190505050614785565b604051808215151515815260200191505060405180910390f35b348015610d9d57600080fd5b50610de060048036036020811015610db457600080fd5b81019080803573ffffffffffffffffffffffffffffffffffffffff1690602001909291905050506149b4565b005b348015610dee57600080fd5b50610eb260048036036040811015610e0557600080fd5b810190808035906020019092919080359060200190640100000000811115610e2c57600080fd5b820183602082011115610e3e57600080fd5b80359060200191846001830284011164010000000083111715610e6057600080fd5b91908080601f016020809104026020016040519081016040528093929190818152602001838380828437600081840152601f19601f820116905080830192505050505050509192919290505050614bc4565b005b348015610ec057600080fd5b50610f8160048036036040811015610ed757600080fd5b810190808035906020019092919080359060200190640100000000811115610efe57600080fd5b820183602082011115610f1057600080fd5b80359060200191846020830284011164010000000083111715610f3257600080fd5b919080806020026020016040519081016040528093929190818152602001838360200280828437600081840152601f19601f820116905080830192505050505050509192919290505050614d4e565b005b610f8c816155ed565b603660009054906101000a900473ffffffffffffffffffffffffffffffffffffffff1673ffffffffffffffffffffffffffffffffffffffff166333727c4d826040518263ffffffff1660e01b81526004018082815260200191505060206040518083038186803b158015610fff57600080fd5b505afa158015611013573d6000803e3d6000fd5b505050506040513d602081101561102957600080fd5b8101908080519060200190929190505050156110ad576040517f08c379a00000000000000000000000000000000000000000000000000000000081526004018080602001828103825260118152602001807f416c72656164792066696e616c697a656400000000000000000000000000000081525060200191505060405180910390fd5b603660009054906101000a900473ffffffffffffffffffffffffffffffffffffffff1673ffffffffffffffffffffffffffffffffffffffff16638991342b8260016040518363ffffffff1660e01b8152600401808381526020018215151515815260200192505050600060405180830381600087803b15801561112f57600080fd5b505af1158015611143573d6000803e3d6000fd5b5050505050565b611153836155ed565b603660009054906101000a900473ffffffffffffffffffffffffffffffffffffffff1673ffffffffffffffffffffffffffffffffffffffff16630e4e411c8484846040518463ffffffff1660e01b8152600401808481526020018381526020018281526020019350505050600060405180830381600087803b1580156111d857600080fd5b505af11580156111ec573d6000803e3d6000fd5b50505050505050565b6002603554141561126e576040517f08c379a000000000000000000000000000000000000000000000000000000000815260040180806020018281038252601f8152602001807f5265656e7472616e637947756172643a207265656e7472616e742063616c6c0081525060200191505060405180910390fd5b60026035819055506112806001613191565b6000603660009054906101000a900473ffffffffffffffffffffffffffffffffffffffff1673ffffffffffffffffffffffffffffffffffffffff16634ca15376856040518263ffffffff1660e01b81526004018082815260200191505060206040518083038186803b1580156112f557600080fd5b505afa158015611309573d6000803e3d6000fd5b505050506040513d602081101561131f57600080fd5b810190808051906020019092919050505061133b57825161133d565b815b90506000603660009054906101000a900473ffffffffffffffffffffffffffffffffffffffff1673ffffffffffffffffffffffffffffffffffffffff16634ca15376866040518263ffffffff1660e01b81526004018082815260200191505060206040518083038186803b1580156113b457600080fd5b505afa1580156113c8573d6000803e3d6000fd5b505050506040513d60208110156113de57600080fd5b8101908080519060200190929190505050611404576113ff8583600061217f565b611411565b61141085846000611f22565b5b9050600080603660009054906101000a900473ffffffffffffffffffffffffffffffffffffffff1673ffffffffffffffffffffffffffffffffffffffff166322af00d4886040518263ffffffff1660e01b815260040180828152602001915050604080518083038186803b15801561148857600080fd5b505afa15801561149c573d6000803e3d6000fd5b505050506040513d60408110156114b257600080fd5b81019080805190602001909291908051906020019092919050505091509150600061158c858484603660009054906101000a900473ffffffffffffffffffffffffffffffffffffffff1673ffffffffffffffffffffffffffffffffffffffff16634ca153768d6040518263ffffffff1660e01b81526004018082815260200191505060206040518083038186803b15801561154c57600080fd5b505afa158015611560573d6000803e3d6000fd5b505050506040513d602081101561157657600080fd5b810190808051906020019092919050505061589f565b9050838111156115b4576115b3886115ad868461597890919063ffffffff16565b346159c2565b5b603660009054906101000a900473ffffffffffffffffffffffffffffffffffffffff1673ffffffffffffffffffffffffffffffffffffffff16634ca15376896040518263ffffffff1660e01b81526004018082815260200191505060206040518083038186803b15801561162757600080fd5b505afa15801561163b573d6000803e3d6000fd5b505050506040513d602081101561165157600080fd5b810190808051906020019092919050505015611676576116718887615bf3565b611683565b61168288886000615f71565b5b808411156116a9576116a8886116a2838761597890919063ffffffff16565b336168c7565b5b7f1870fef12063ecb25738cfa99e018fc7ed7c3073cf1e6d58554470cac39ecf448888883360405180858152602001806020018481526020018373ffffffffffffffffffffffffffffffffffffffff1673ffffffffffffffffffffffffffffffffffffffff168152602001828103825285818151815260200191508051906020019060200280838360005b8381101561174f578082015181840152602081019050611734565b505050509050019550505050505060405180910390a150505050506001603581905550505050565b600063150b7a0260e01b9050949350505050565b611794826155ed565b603660009054906101000a900473ffffffffffffffffffffffffffffffffffffffff1673ffffffffffffffffffffffffffffffffffffffff16632911c27d83836040518363ffffffff1660e01b8152600401808381526020018273ffffffffffffffffffffffffffffffffffffffff1673ffffffffffffffffffffffffffffffffffffffff16815260200192505050600060405180830381600087803b15801561183d57600080fd5b505af1158015611851573d6000803e3d6000fd5b505050505050565b611862826155ed565b6000611a90603660009054906101000a900473ffffffffffffffffffffffffffffffffffffffff1673ffffffffffffffffffffffffffffffffffffffff16635bd1a28e856040518263ffffffff1660e01b81526004018082815260200191505060206040518083038186803b1580156118da57600080fd5b505afa1580156118ee573d6000803e3d6000fd5b505050506040513d602081101561190457600080fd5b8101908080519060200190929190505050611a82603660009054906101000a900473ffffffffffffffffffffffffffffffffffffffff1673ffffffffffffffffffffffffffffffffffffffff1663cc824473876040518263ffffffff1660e01b81526004018082815260200191505060206040518083038186803b15801561198b57600080fd5b505afa15801561199f573d6000803e3d6000fd5b505050506040513d60208110156119b557600080fd5b8101908080519060200190929190505050603660009054906101000a900473ffffffffffffffffffffffffffffffffffffffff1673ffffffffffffffffffffffffffffffffffffffff1663e94dbf89886040518263ffffffff1660e01b81526004018082815260200191505060206040518083038186803b158015611a3957600080fd5b505afa158015611a4d573d6000803e3d6000fd5b505050506040513d6020811015611a6357600080fd5b8101908080519060200190929190505050616a8b90919063ffffffff16565b616a8b90919063ffffffff16565b14611b03576040517f08c379a000000000000000000000000000000000000000000000000000000000815260040180806020018281038252600f8152602001807f5661756c74206e6f7420656d707479000000000000000000000000000000000081525060200191505060405180910390fd5b603660009054906101000a900473ffffffffffffffffffffffffffffffffffffffff1673ffffffffffffffffffffffffffffffffffffffff16632ad5f0a183836040518363ffffffff1660e01b8152600401808381526020018215151515815260200192505050600060405180830381600087803b158015611b8457600080fd5b505af1158015611b98573d6000803e3d6000fd5b505050505050565b6000603660009054906101000a900473ffffffffffffffffffffffffffffffffffffffff1673ffffffffffffffffffffffffffffffffffffffff16634ca15376836040518263ffffffff1660e01b81526004018082815260200191505060206040518083038186803b158015611c1557600080fd5b505afa158015611c29573d6000803e3d6000fd5b505050506040513d6020811015611c3f57600080fd5b8101908080519060200190929190505050611dc657611dc1603660009054906101000a900473ffffffffffffffffffffffffffffffffffffffff1673ffffffffffffffffffffffffffffffffffffffff1663cc824473846040518263ffffffff1660e01b81526004018082815260200191505060206040518083038186803b158015611cca57600080fd5b505afa158015611cde573d6000803e3d6000fd5b505050506040513d6020811015611cf457600080fd5b8101908080519060200190929190505050603660009054906101000a900473ffffffffffffffffffffffffffffffffffffffff1673ffffffffffffffffffffffffffffffffffffffff1663e94dbf89856040518263ffffffff1660e01b81526004018082815260200191505060206040518083038186803b158015611d7857600080fd5b505afa158015611d8c573d6000803e3d6000fd5b505050506040513d6020811015611da257600080fd5b8101908080519060200190929190505050616a8b90919063ffffffff16565b611e75565b603660009054906101000a900473ffffffffffffffffffffffffffffffffffffffff1673ffffffffffffffffffffffffffffffffffffffff16635bd1a28e836040518263ffffffff1660e01b81526004018082815260200191505060206040518083038186803b158015611e3957600080fd5b505afa158015611e4d573d6000803e3d6000fd5b505050506040513d6020811015611e6357600080fd5b81019080805190602001909291905050505b9050919050565b611e85816155ed565b603660009054906101000a900473ffffffffffffffffffffffffffffffffffffffff1673ffffffffffffffffffffffffffffffffffffffff1663be2cbc4f8260016040518363ffffffff1660e01b8152600401808381526020018215151515815260200192505050600060405180830381600087803b158015611f0757600080fd5b505af1158015611f1b573d6000803e3d6000fd5b5050505050565b6000806000603660009054906101000a900473ffffffffffffffffffffffffffffffffffffffff1673ffffffffffffffffffffffffffffffffffffffff1663198e4788876040518263ffffffff1660e01b815260040180828152602001915050604080518083038186803b158015611f9957600080fd5b505afa158015611fad573d6000803e3d6000fd5b505050506040513d6040811015611fc357600080fd5b810190808051906020019092919080519060200190929190505050915091506000811415611ff657600092505050612178565b600061200187611ba0565b905060008282116120245761201f828461597890919063ffffffff16565b612027565b60005b90506000612036858585616b13565b905060008761205f5761205a8961204c8c611ba0565b616a8b90919063ffffffff16565b61207b565b61207a8961206c8c611ba0565b61597890919063ffffffff16565b5b9050600085821161209e57612099828761597890919063ffffffff16565b6120a1565b60005b905060006120b0888885616b13565b905060006120f4670de0b6b3a76400006120e660026120d8898b616b6690919063ffffffff16565b616bec90919063ffffffff16565b616bec90919063ffffffff16565b90506000612138670de0b6b3a764000061212a600261211c8789616b6690919063ffffffff16565b616bec90919063ffffffff16565b616bec90919063ffffffff16565b90508b61215757612152818361597890919063ffffffff16565b61216b565b61216a828261597890919063ffffffff16565b5b9a50505050505050505050505b9392505050565b600080603660009054906101000a900473ffffffffffffffffffffffffffffffffffffffff1673ffffffffffffffffffffffffffffffffffffffff1663198e4788866040518263ffffffff1660e01b815260040180828152602001915050604080518083038186803b1580156121f457600080fd5b505afa158015612208573d6000803e3d6000fd5b505050506040513d604081101561221e57600080fd5b810190808051906020019092919080519060200190929190505050915050600081141561224f576000915050612301565b600080905060008090505b858110156122fa5760008561228957612284826122768a611ba0565b616a8b90919063ffffffff16565b6122b8565b6122b76122a0600184616a8b90919063ffffffff16565b6122a98a611ba0565b61597890919063ffffffff16565b5b905060006122c68983616c36565b90506122db8185616a8b90919063ffffffff16565b935050506122f3600182616a8b90919063ffffffff16565b905061225a565b5080925050505b9392505050565b612311836155ed565b603660009054906101000a900473ffffffffffffffffffffffffffffffffffffffff1673ffffffffffffffffffffffffffffffffffffffff1663412637258484846040518463ffffffff1660e01b8152600401808481526020018381526020018281526020019350505050600060405180830381600087803b15801561239657600080fd5b505af11580156123aa573d6000803e3d6000fd5b50505050505050565b6123bc826155ed565b603660009054906101000a900473ffffffffffffffffffffffffffffffffffffffff1673ffffffffffffffffffffffffffffffffffffffff1663e8e57118836040518263ffffffff1660e01b81526004018082815260200191505060206040518083038186803b15801561242f57600080fd5b505afa158015612443573d6000803e3d6000fd5b505050506040513d602081101561245957600080fd5b810190808051906020019092919050505073ffffffffffffffffffffffffffffffffffffffff1663a3895fff826040518263ffffffff1660e01b81526004018080602001828103825283818151815260200191508051906020019080838360005b838110156124d55780820151818401526020810190506124ba565b50505050905090810190601f1680156125025780820380516001836020036101000a031916815260200191505b5092505050600060405180830381600087803b15801561252157600080fd5b505af1158015612535573d6000803e3d6000fd5b505050505050565b603660009054906101000a900473ffffffffffffffffffffffffffffffffffffffff1673ffffffffffffffffffffffffffffffffffffffff1663299849158261263c34603660009054906101000a900473ffffffffffffffffffffffffffffffffffffffff1673ffffffffffffffffffffffffffffffffffffffff1663bf17f2f2876040518263ffffffff1660e01b81526004018082815260200191505060206040518083038186803b1580156125f357600080fd5b505afa158015612607573d6000803e3d6000fd5b505050506040513d602081101561261d57600080fd5b8101908080519060200190929190505050616a8b90919063ffffffff16565b6040518363ffffffff1660e01b81526004018083815260200182815260200192505050600060405180830381600087803b15801561267957600080fd5b505af115801561268d573d6000803e3d6000fd5b5050505050565b60006002603554141561270f576040517f08c379a000000000000000000000000000000000000000000000000000000000815260040180806020018281038252601f8152602001807f5265656e7472616e637947756172643a207265656e7472616e742063616c6c0081525060200191505060405180910390fd5b60026035819055506127216000613191565b60008490503073ffffffffffffffffffffffffffffffffffffffff168173ffffffffffffffffffffffffffffffffffffffff16638da5cb5b6040518163ffffffff1660e01b8152600401602060405180830381600087803b15801561278557600080fd5b505af1158015612799573d6000803e3d6000fd5b505050506040513d60208110156127af57600080fd5b810190808051906020019092919050505073ffffffffffffffffffffffffffffffffffffffff1614612849576040517f08c379a000000000000000000000000000000000000000000000000000000000815260040180806020018281038252600b8152602001807f57726f6e67206f776e657200000000000000000000000000000000000000000081525060200191505060405180910390fd5b6000603660009054906101000a900473ffffffffffffffffffffffffffffffffffffffff1673ffffffffffffffffffffffffffffffffffffffff1663d80ce5e96040518163ffffffff1660e01b8152600401602060405180830381600087803b1580156128b557600080fd5b505af11580156128c9573d6000803e3d6000fd5b505050506040513d60208110156128df57600080fd5b81019080805190602001909291905050509050603660009054906101000a900473ffffffffffffffffffffffffffffffffffffffff1673ffffffffffffffffffffffffffffffffffffffff16631567925f82886040518363ffffffff1660e01b8152600401808381526020018273ffffffffffffffffffffffffffffffffffffffff1673ffffffffffffffffffffffffffffffffffffffff16815260200192505050600060405180830381600087803b15801561299b57600080fd5b505af11580156129af573d6000803e3d6000fd5b50505050603660009054906101000a900473ffffffffffffffffffffffffffffffffffffffff1673ffffffffffffffffffffffffffffffffffffffff16630fb5def8826040518263ffffffff1660e01b815260040180828152602001915050600060405180830381600087803b158015612a2857600080fd5b505af1158015612a3c573d6000803e3d6000fd5b5050505083612c3257603660009054906101000a900473ffffffffffffffffffffffffffffffffffffffff1673ffffffffffffffffffffffffffffffffffffffff1663894289cc82876040518363ffffffff1660e01b8152600401808381526020018273ffffffffffffffffffffffffffffffffffffffff1673ffffffffffffffffffffffffffffffffffffffff16815260200192505050600060405180830381600087803b158015612aee57600080fd5b505af1158015612b02573d6000803e3d6000fd5b50505050603660009054906101000a900473ffffffffffffffffffffffffffffffffffffffff1673ffffffffffffffffffffffffffffffffffffffff166308b61958826040518263ffffffff1660e01b815260040180828152602001915050600060405180830381600087803b158015612b7b57600080fd5b505af1158015612b8f573d6000803e3d6000fd5b50505050603660009054906101000a900473ffffffffffffffffffffffffffffffffffffffff1673ffffffffffffffffffffffffffffffffffffffff16632ad5f0a18260016040518363ffffffff1660e01b8152600401808381526020018215151515815260200192505050600060405180830381600087803b158015612c1557600080fd5b505af1158015612c29573d6000803e3d6000fd5b50505050612e1b565b603660009054906101000a900473ffffffffffffffffffffffffffffffffffffffff1673ffffffffffffffffffffffffffffffffffffffff16636102815d82876040518363ffffffff1660e01b8152600401808381526020018273ffffffffffffffffffffffffffffffffffffffff1673ffffffffffffffffffffffffffffffffffffffff16815260200192505050600060405180830381600087803b158015612cdb57600080fd5b505af1158015612cef573d6000803e3d6000fd5b50505050603660009054906101000a900473ffffffffffffffffffffffffffffffffffffffff1673ffffffffffffffffffffffffffffffffffffffff16638e3f545f826040518263ffffffff1660e01b815260040180828152602001915050600060405180830381600087803b158015612d6857600080fd5b505af1158015612d7c573d6000803e3d6000fd5b50505050603660009054906101000a900473ffffffffffffffffffffffffffffffffffffffff1673ffffffffffffffffffffffffffffffffffffffff166388779e5d8260016040518363ffffffff1660e01b8152600401808381526020018215151515815260200192505050600060405180830381600087803b158015612e0257600080fd5b505af1158015612e16573d6000803e3d6000fd5b505050505b603660009054906101000a900473ffffffffffffffffffffffffffffffffffffffff1673ffffffffffffffffffffffffffffffffffffffff16632911c27d82336040518363ffffffff1660e01b8152600401808381526020018273ffffffffffffffffffffffffffffffffffffffff1673ffffffffffffffffffffffffffffffffffffffff16815260200192505050600060405180830381600087803b158015612ec457600080fd5b505af1158015612ed8573d6000803e3d6000fd5b505050507fc117b81c381b8c8066e461527733c2f11b87ebf36631b006cb5a74e3c0388b138133604051808381526020018273ffffffffffffffffffffffffffffffffffffffff1673ffffffffffffffffffffffffffffffffffffffff1681526020019250505060405180910390a1809250505060016035819055509392505050565b612f64836155ed565b603660009054906101000a900473ffffffffffffffffffffffffffffffffffffffff1673ffffffffffffffffffffffffffffffffffffffff1663685c6d818484846040518463ffffffff1660e01b8152600401808481526020018381526020018281526020019350505050600060405180830381600087803b158015612fe957600080fd5b505af1158015612ffd573d6000803e3d6000fd5b50505050505050565b61300e616d50565b73ffffffffffffffffffffffffffffffffffffffff16603360009054906101000a900473ffffffffffffffffffffffffffffffffffffffff1673ffffffffffffffffffffffffffffffffffffffff16146130d0576040517f08c379a00000000000000000000000000000000000000000000000000000000081526004018080602001828103825260208152602001807f4f776e61626c653a2063616c6c6572206973206e6f7420746865206f776e657281525060200191505060405180910390fd5b600073ffffffffffffffffffffffffffffffffffffffff16603360009054906101000a900473ffffffffffffffffffffffffffffffffffffffff1673ffffffffffffffffffffffffffffffffffffffff167f8be0079c531659141344cd1fd0a4f28419497f9722a3daafe3b4186f6b6457e060405160405180910390a36000603360006101000a81548173ffffffffffffffffffffffffffffffffffffffff021916908373ffffffffffffffffffffffffffffffffffffffff160217905550565b6034600082815260200190815260200160002060009054906101000a900460ff1615806131f057506131c1613c40565b73ffffffffffffffffffffffffffffffffffffffff163373ffffffffffffffffffffffffffffffffffffffff16145b613262576040517f08c379a00000000000000000000000000000000000000000000000000000000081526004018080602001828103825260068152602001807f506175736564000000000000000000000000000000000000000000000000000081525060200191505060405180910390fd5b50565b600260355414156132de576040517f08c379a000000000000000000000000000000000000000000000000000000000815260040180806020018281038252601f8152602001807f5265656e7472616e637947756172643a207265656e7472616e742063616c6c0081525060200191505060405180910390fd5b60026035819055506132f06002613191565b603660009054906101000a900473ffffffffffffffffffffffffffffffffffffffff1673ffffffffffffffffffffffffffffffffffffffff1663d5c78a28836040518263ffffffff1660e01b81526004018082815260200191505060206040518083038186803b15801561336357600080fd5b505afa158015613377573d6000803e3d6000fd5b505050506040513d602081101561338d57600080fd5b810190808051906020019092919050505061362f576000603660009054906101000a900473ffffffffffffffffffffffffffffffffffffffff1673ffffffffffffffffffffffffffffffffffffffff16634ca15376846040518263ffffffff1660e01b81526004018082815260200191505060206040518083038186803b15801561341757600080fd5b505afa15801561342b573d6000803e3d6000fd5b505050506040513d602081101561344157600080fd5b8101908080519060200190929190505050613467576134628383600161217f565b613474565b61347383836001611f22565b5b9050600080603660009054906101000a900473ffffffffffffffffffffffffffffffffffffffff1673ffffffffffffffffffffffffffffffffffffffff16630342a6ba866040518263ffffffff1660e01b815260040180828152602001915050604080518083038186803b1580156134eb57600080fd5b505afa1580156134ff573d6000803e3d6000fd5b505050506040513d604081101561351557600080fd5b8101908080519060200190929190805190602001909291905050509150915060006135ef858484603660009054906101000a900473ffffffffffffffffffffffffffffffffffffffff1673ffffffffffffffffffffffffffffffffffffffff16634ca153768b6040518263ffffffff1660e01b81526004018082815260200191505060206040518083038186803b1580156135af57600080fd5b505afa1580156135c3573d6000803e3d6000fd5b505050506040513d60208110156135d957600080fd5b810190808051906020019092919050505061589f565b905060006136068286616a8b90919063ffffffff16565b111561362a57613629866136238387616a8b90919063ffffffff16565b346159c2565b5b505050505b603660009054906101000a900473ffffffffffffffffffffffffffffffffffffffff1673ffffffffffffffffffffffffffffffffffffffff16634ca15376836040518263ffffffff1660e01b81526004018082815260200191505060206040518083038186803b1580156136a257600080fd5b505afa1580156136b6573d6000803e3d6000fd5b505050506040513d60208110156136cc57600080fd5b81019080805190602001909291905050506136f2576136ed82826000616d58565b6136fd565b6136fc828261726c565b5b60016035819055505050565b60026035541415613782576040517f08c379a000000000000000000000000000000000000000000000000000000000815260040180806020018281038252601f8152602001807f5265656e7472616e637947756172643a207265656e7472616e742063616c6c0081525060200191505060405180910390fd5b600260358190555060008090505b8151811015613b8d573373ffffffffffffffffffffffffffffffffffffffff16603660009054906101000a900473ffffffffffffffffffffffffffffffffffffffff1673ffffffffffffffffffffffffffffffffffffffff16635770f640858585815181106137fb57fe5b60200260200101516040518363ffffffff1660e01b8152600401808381526020018281526020019250505060206040518083038186803b15801561383e57600080fd5b505afa158015613852573d6000803e3d6000fd5b505050506040513d602081101561386857600080fd5b810190808051906020019092919050505073ffffffffffffffffffffffffffffffffffffffff1614613902576040517f08c379a000000000000000000000000000000000000000000000000000000000815260040180806020018281038252600d8152602001807f4e6f74207265717565737465720000000000000000000000000000000000000081525060200191505060405180910390fd5b603660009054906101000a900473ffffffffffffffffffffffffffffffffffffffff1673ffffffffffffffffffffffffffffffffffffffff16637f10d3148484848151811061394d57fe5b602002602001015160006040518463ffffffff1660e01b8152600401808481526020018381526020018273ffffffffffffffffffffffffffffffffffffffff1673ffffffffffffffffffffffffffffffffffffffff1681526020019350505050600060405180830381600087803b1580156139c757600080fd5b505af11580156139db573d6000803e3d6000fd5b50505050603660009054906101000a900473ffffffffffffffffffffffffffffffffffffffff1673ffffffffffffffffffffffffffffffffffffffff16639d0214cb846040518263ffffffff1660e01b81526004018082815260200191505060206040518083038186803b158015613a5257600080fd5b505afa158015613a66573d6000803e3d6000fd5b505050506040513d6020811015613a7c57600080fd5b810190808051906020019092919050505073ffffffffffffffffffffffffffffffffffffffff166342842e0e3033858581518110613ab657fe5b60200260200101516040518463ffffffff1660e01b8152600401808473ffffffffffffffffffffffffffffffffffffffff1673ffffffffffffffffffffffffffffffffffffffff1681526020018373ffffffffffffffffffffffffffffffffffffffff1673ffffffffffffffffffffffffffffffffffffffff1681526020018281526020019350505050600060405180830381600087803b158015613b5a57600080fd5b505af1158015613b6e573d6000803e3d6000fd5b50505050613b86600182616a8b90919063ffffffff16565b9050613790565b5060016035819055505050565b613ba3826155ed565b603660009054906101000a900473ffffffffffffffffffffffffffffffffffffffff1673ffffffffffffffffffffffffffffffffffffffff166383e8d7e383836040518363ffffffff1660e01b8152600401808381526020018215151515815260200192505050600060405180830381600087803b158015613c2457600080fd5b505af1158015613c38573d6000803e3d6000fd5b505050505050565b6000603360009054906101000a900473ffffffffffffffffffffffffffffffffffffffff16905090565b603660009054906101000a900473ffffffffffffffffffffffffffffffffffffffff1681565b60026035541415613d09576040517f08c379a000000000000000000000000000000000000000000000000000000000815260040180806020018281038252601f8152602001807f5265656e7472616e637947756172643a207265656e7472616e742063616c6c0081525060200191505060405180910390fd5b6002603581905550613d1b6001613191565b60008090505b815181101561438d573073ffffffffffffffffffffffffffffffffffffffff16603660009054906101000a900473ffffffffffffffffffffffffffffffffffffffff1673ffffffffffffffffffffffffffffffffffffffff16639d0214cb856040518263ffffffff1660e01b81526004018082815260200191505060206040518083038186803b158015613db457600080fd5b505afa158015613dc8573d6000803e3d6000fd5b505050506040513d6020811015613dde57600080fd5b810190808051906020019092919050505073ffffffffffffffffffffffffffffffffffffffff16636352211e848481518110613e1657fe5b60200260200101516040518263ffffffff1660e01b81526004018082815260200191505060206040518083038186803b158015613e5257600080fd5b505afa158015613e66573d6000803e3d6000fd5b505050506040513d6020811015613e7c57600080fd5b810190808051906020019092919050505073ffffffffffffffffffffffffffffffffffffffff161415613f17576040517f08c379a000000000000000000000000000000000000000000000000000000000815260040180806020018281038252600d8152602001807f416c7265616479206f776e65720000000000000000000000000000000000000081525060200191505060405180910390fd5b603660009054906101000a900473ffffffffffffffffffffffffffffffffffffffff1673ffffffffffffffffffffffffffffffffffffffff16639d0214cb846040518263ffffffff1660e01b81526004018082815260200191505060206040518083038186803b158015613f8a57600080fd5b505afa158015613f9e573d6000803e3d6000fd5b505050506040513d6020811015613fb457600080fd5b810190808051906020019092919050505073ffffffffffffffffffffffffffffffffffffffff166342842e0e3330858581518110613fee57fe5b60200260200101516040518463ffffffff1660e01b8152600401808473ffffffffffffffffffffffffffffffffffffffff1673ffffffffffffffffffffffffffffffffffffffff1681526020018373ffffffffffffffffffffffffffffffffffffffff1673ffffffffffffffffffffffffffffffffffffffff1681526020018281526020019350505050600060405180830381600087803b15801561409257600080fd5b505af11580156140a6573d6000803e3d6000fd5b505050503073ffffffffffffffffffffffffffffffffffffffff16603660009054906101000a900473ffffffffffffffffffffffffffffffffffffffff1673ffffffffffffffffffffffffffffffffffffffff16639d0214cb856040518263ffffffff1660e01b81526004018082815260200191505060206040518083038186803b15801561413457600080fd5b505afa158015614148573d6000803e3d6000fd5b505050506040513d602081101561415e57600080fd5b810190808051906020019092919050505073ffffffffffffffffffffffffffffffffffffffff16636352211e84848151811061419657fe5b60200260200101516040518263ffffffff1660e01b81526004018082815260200191505060206040518083038186803b1580156141d257600080fd5b505afa1580156141e6573d6000803e3d6000fd5b505050506040513d60208110156141fc57600080fd5b810190808051906020019092919050505073ffffffffffffffffffffffffffffffffffffffff1614614296576040517f08c379a000000000000000000000000000000000000000000000000000000000815260040180806020018281038252600c8152602001807f4e6f74207265636569766564000000000000000000000000000000000000000081525060200191505060405180910390fd5b603660009054906101000a900473ffffffffffffffffffffffffffffffffffffffff1673ffffffffffffffffffffffffffffffffffffffff16637f10d314848484815181106142e157fe5b6020026020010151336040518463ffffffff1660e01b8152600401808481526020018381526020018273ffffffffffffffffffffffffffffffffffffffff1673ffffffffffffffffffffffffffffffffffffffff1681526020019350505050600060405180830381600087803b15801561435a57600080fd5b505af115801561436e573d6000803e3d6000fd5b50505050614386600182616a8b90919063ffffffff16565b9050613d21565b507f7fb9f848633daec03e24ca1fc96c532829a9873a4962860b54b5d7fdb8fd001282823360405180848152602001806020018373ffffffffffffffffffffffffffffffffffffffff1673ffffffffffffffffffffffffffffffffffffffff168152602001828103825284818151815260200191508051906020019060200280838360005b8381101561442d578082015181840152602081019050614412565b5050505090500194505050505060405180910390a160016035819055505050565b614457836155ed565b60008090505b825181101561453557603660009054906101000a900473ffffffffffffffffffffffffffffffffffffffff1673ffffffffffffffffffffffffffffffffffffffff16639989f93a858584815181106144b157fe5b6020026020010151856040518463ffffffff1660e01b815260040180848152602001838152602001821515151581526020019350505050600060405180830381600087803b15801561450257600080fd5b505af1158015614516573d6000803e3d6000fd5b5050505061452e600182616a8b90919063ffffffff16565b905061445d565b50505050565b600060019054906101000a900460ff168061455a57506145596176f1565b5b8061457157506000809054906101000a900460ff16155b6145c6576040517f08c379a000000000000000000000000000000000000000000000000000000000815260040180806020018281038252602e815260200180618ac3602e913960400191505060405180910390fd5b60008060019054906101000a900460ff161590508015614616576001600060016101000a81548160ff02191690831515021790555060016000806101000a81548160ff0219169083151502179055505b61461e617708565b6146266178b0565b81603660006101000a81548173ffffffffffffffffffffffffffffffffffffffff021916908373ffffffffffffffffffffffffffffffffffffffff16021790555080156146885760008060016101000a81548160ff0219169083151502179055505b5050565b614694616d50565b73ffffffffffffffffffffffffffffffffffffffff16603360009054906101000a900473ffffffffffffffffffffffffffffffffffffffff1673ffffffffffffffffffffffffffffffffffffffff1614614756576040517f08c379a00000000000000000000000000000000000000000000000000000000081526004018080602001828103825260208152602001807f4f776e61626c653a2063616c6c6572206973206e6f7420746865206f776e657281525060200191505060405180910390fd5b806034600084815260200190815260200160002060006101000a81548160ff0219169083151502179055505050565b6000603660009054906101000a900473ffffffffffffffffffffffffffffffffffffffff1673ffffffffffffffffffffffffffffffffffffffff1663ec475a1f846040518263ffffffff1660e01b81526004018082815260200191505060206040518083038186803b1580156147fa57600080fd5b505afa15801561480e573d6000803e3d6000fd5b505050506040513d602081101561482457600080fd5b81019080805190602001909291905050506148f457603660009054906101000a900473ffffffffffffffffffffffffffffffffffffffff1673ffffffffffffffffffffffffffffffffffffffff1663f09e82e284846040518363ffffffff1660e01b8152600401808381526020018281526020019250505060206040518083038186803b1580156148b457600080fd5b505afa1580156148c8573d6000803e3d6000fd5b505050506040513d60208110156148de57600080fd5b81019080805190602001909291905050506149ac565b603660009054906101000a900473ffffffffffffffffffffffffffffffffffffffff1673ffffffffffffffffffffffffffffffffffffffff1663f09e82e284846040518363ffffffff1660e01b8152600401808381526020018281526020019250505060206040518083038186803b15801561496f57600080fd5b505afa158015614983573d6000803e3d6000fd5b505050506040513d602081101561499957600080fd5b8101908080519060200190929190505050155b905092915050565b6149bc616d50565b73ffffffffffffffffffffffffffffffffffffffff16603360009054906101000a900473ffffffffffffffffffffffffffffffffffffffff1673ffffffffffffffffffffffffffffffffffffffff1614614a7e576040517f08c379a00000000000000000000000000000000000000000000000000000000081526004018080602001828103825260208152602001807f4f776e61626c653a2063616c6c6572206973206e6f7420746865206f776e657281525060200191505060405180910390fd5b600073ffffffffffffffffffffffffffffffffffffffff168173ffffffffffffffffffffffffffffffffffffffff161415614b04576040517f08c379a0000000000000000000000000000000000000000000000000000000008152600401808060200182810382526026815260200180618a7c6026913960400191505060405180910390fd5b8073ffffffffffffffffffffffffffffffffffffffff16603360009054906101000a900473ffffffffffffffffffffffffffffffffffffffff1673ffffffffffffffffffffffffffffffffffffffff167f8be0079c531659141344cd1fd0a4f28419497f9722a3daafe3b4186f6b6457e060405160405180910390a380603360006101000a81548173ffffffffffffffffffffffffffffffffffffffff021916908373ffffffffffffffffffffffffffffffffffffffff16021790555050565b614bcd826155ed565b603660009054906101000a900473ffffffffffffffffffffffffffffffffffffffff1673ffffffffffffffffffffffffffffffffffffffff1663e8e57118836040518263ffffffff1660e01b81526004018082815260200191505060206040518083038186803b158015614c4057600080fd5b505afa158015614c54573d6000803e3d6000fd5b505050506040513d6020811015614c6a57600080fd5b810190808051906020019092919050505073ffffffffffffffffffffffffffffffffffffffff16635353a2d8826040518263ffffffff1660e01b81526004018080602001828103825283818151815260200191508051906020019080838360005b83811015614ce6578082015181840152602081019050614ccb565b50505050905090810190601f168015614d135780820380516001836020036101000a031916815260200191505b5092505050600060405180830381600087803b158015614d3257600080fd5b505af1158015614d46573d6000803e3d6000fd5b505050505050565b614d57826155ed565b60008090505b81518110156155e8576000603660009054906101000a900473ffffffffffffffffffffffffffffffffffffffff1673ffffffffffffffffffffffffffffffffffffffff16635770f64085858581518110614db357fe5b60200260200101516040518363ffffffff1660e01b8152600401808381526020018281526020019250505060206040518083038186803b158015614df657600080fd5b505afa158015614e0a573d6000803e3d6000fd5b505050506040513d6020811015614e2057600080fd5b81019080805190602001909291905050509050600073ffffffffffffffffffffffffffffffffffffffff168173ffffffffffffffffffffffffffffffffffffffff161415614ed6576040517f08c379a000000000000000000000000000000000000000000000000000000000815260040180806020018281038252600a8152602001807f4e6f20726571756573740000000000000000000000000000000000000000000081525060200191505060405180910390fd5b3073ffffffffffffffffffffffffffffffffffffffff16603660009054906101000a900473ffffffffffffffffffffffffffffffffffffffff1673ffffffffffffffffffffffffffffffffffffffff16639d0214cb866040518263ffffffff1660e01b81526004018082815260200191505060206040518083038186803b158015614f6057600080fd5b505afa158015614f74573d6000803e3d6000fd5b505050506040513d6020811015614f8a57600080fd5b810190808051906020019092919050505073ffffffffffffffffffffffffffffffffffffffff16636352211e858581518110614fc257fe5b60200260200101516040518263ffffffff1660e01b81526004018082815260200191505060206040518083038186803b158015614ffe57600080fd5b505afa158015615012573d6000803e3d6000fd5b505050506040513d602081101561502857600080fd5b810190808051906020019092919050505073ffffffffffffffffffffffffffffffffffffffff16146150c2576040517f08c379a00000000000000000000000000000000000000000000000000000000081526004018080602001828103825260098152602001807f4e6f74206f776e6572000000000000000000000000000000000000000000000081525060200191505060405180910390fd5b603660009054906101000a900473ffffffffffffffffffffffffffffffffffffffff1673ffffffffffffffffffffffffffffffffffffffff16637f10d3148585858151811061510d57fe5b602002602001015160006040518463ffffffff1660e01b8152600401808481526020018381526020018273ffffffffffffffffffffffffffffffffffffffff1673ffffffffffffffffffffffffffffffffffffffff1681526020019350505050600060405180830381600087803b15801561518757600080fd5b505af115801561519b573d6000803e3d6000fd5b50505050603660009054906101000a900473ffffffffffffffffffffffffffffffffffffffff1673ffffffffffffffffffffffffffffffffffffffff16639989f93a858585815181106151ea57fe5b602002602001015160016040518463ffffffff1660e01b815260040180848152602001838152602001821515151581526020019350505050600060405180830381600087803b15801561523c57600080fd5b505af1158015615250573d6000803e3d6000fd5b50505050603660009054906101000a900473ffffffffffffffffffffffffffffffffffffffff1673ffffffffffffffffffffffffffffffffffffffff16634d0cb0988585858151811061529f57fe5b60200260200101516040518363ffffffff1660e01b8152600401808381526020018281526020019250505060206040518083038186803b1580156152e257600080fd5b505afa1580156152f6573d6000803e3d6000fd5b505050506040513d602081101561530c57600080fd5b8101908080519060200190929190505050156153cf57603660009054906101000a900473ffffffffffffffffffffffffffffffffffffffff1673ffffffffffffffffffffffffffffffffffffffff16631ca1e4928585858151811061536d57fe5b60200260200101516040518363ffffffff1660e01b81526004018083815260200182815260200192505050600060405180830381600087803b1580156153b257600080fd5b505af11580156153c6573d6000803e3d6000fd5b50505050615478565b603660009054906101000a900473ffffffffffffffffffffffffffffffffffffffff1673ffffffffffffffffffffffffffffffffffffffff16634cef64658585858151811061541a57fe5b60200260200101516040518363ffffffff1660e01b81526004018083815260200182815260200192505050600060405180830381600087803b15801561545f57600080fd5b505af1158015615473573d6000803e3d6000fd5b505050505b603660009054906101000a900473ffffffffffffffffffffffffffffffffffffffff1673ffffffffffffffffffffffffffffffffffffffff1663e8e57118856040518263ffffffff1660e01b81526004018082815260200191505060206040518083038186803b1580156154eb57600080fd5b505afa1580156154ff573d6000803e3d6000fd5b505050506040513d602081101561551557600080fd5b810190808051906020019092919050505073ffffffffffffffffffffffffffffffffffffffff166340c10f1982670de0b6b3a76400006040518363ffffffff1660e01b8152600401808373ffffffffffffffffffffffffffffffffffffffff1673ffffffffffffffffffffffffffffffffffffffff16815260200182815260200192505050600060405180830381600087803b1580156155b457600080fd5b505af11580156155c8573d6000803e3d6000fd5b50505050506155e1600182616a8b90919063ffffffff16565b9050614d5d565b505050565b603660009054906101000a900473ffffffffffffffffffffffffffffffffffffffff1673ffffffffffffffffffffffffffffffffffffffff166333727c4d826040518263ffffffff1660e01b81526004018082815260200191505060206040518083038186803b15801561566057600080fd5b505afa158015615674573d6000803e3d6000fd5b505050506040513d602081101561568a57600080fd5b81019080805190602001909291905050501561574d576156a8613c40565b73ffffffffffffffffffffffffffffffffffffffff163373ffffffffffffffffffffffffffffffffffffffff1614615748576040517f08c379a00000000000000000000000000000000000000000000000000000000081526004018080602001828103825260098152602001807f4e6f74206f776e6572000000000000000000000000000000000000000000000081525060200191505060405180910390fd5b61589c565b603660009054906101000a900473ffffffffffffffffffffffffffffffffffffffff1673ffffffffffffffffffffffffffffffffffffffff166352981457826040518263ffffffff1660e01b81526004018082815260200191505060206040518083038186803b1580156157c057600080fd5b505afa1580156157d4573d6000803e3d6000fd5b505050506040513d60208110156157ea57600080fd5b810190808051906020019092919050505073ffffffffffffffffffffffffffffffffffffffff163373ffffffffffffffffffffffffffffffffffffffff161461589b576040517f08c379a000000000000000000000000000000000000000000000000000000000815260040180806020018281038252600b8152602001807f4e6f74206d616e6167657200000000000000000000000000000000000000000081525060200191505060405180910390fd5b5b50565b6000808514156158b25760009050615970565b811561591857615911615902670de0b6b3a76400006158f46158e5670de0b6b3a76400008a61597890919063ffffffff16565b87616b6690919063ffffffff16565b616bec90919063ffffffff16565b85616a8b90919063ffffffff16565b9050615970565b60008590506000600187101561592f576000615944565b61594360018361597890919063ffffffff16565b5b905061596b61595c8287616b6690919063ffffffff16565b87616a8b90919063ffffffff16565b925050505b949350505050565b60006159ba83836040518060400160405280601e81526020017f536166654d6174683a207375627472616374696f6e206f766572666c6f7700008152506178ba565b905092915050565b81811015615a38576040517f08c379a000000000000000000000000000000000000000000000000000000000815260040180806020018281038252600d8152602001807f56616c756520746f6f206c6f770000000000000000000000000000000000000081525060200191505060405180910390fd5b603660009054906101000a900473ffffffffffffffffffffffffffffffffffffffff1673ffffffffffffffffffffffffffffffffffffffff16632998491584615b3785603660009054906101000a900473ffffffffffffffffffffffffffffffffffffffff1673ffffffffffffffffffffffffffffffffffffffff1663bf17f2f2896040518263ffffffff1660e01b81526004018082815260200191505060206040518083038186803b158015615aee57600080fd5b505afa158015615b02573d6000803e3d6000fd5b505050506040513d6020811015615b1857600080fd5b8101908080519060200190929190505050616a8b90919063ffffffff16565b6040518363ffffffff1660e01b81526004018083815260200182815260200192505050600060405180830381600087803b158015615b7457600080fd5b505af1158015615b88573d6000803e3d6000fd5b5050505081811115615bee573373ffffffffffffffffffffffffffffffffffffffff166108fc615bc1848461597890919063ffffffff16565b9081150290604051600060405180830381858888f19350505050158015615bec573d6000803e3d6000fd5b505b505050565b615ccd333083603660009054906101000a900473ffffffffffffffffffffffffffffffffffffffff1673ffffffffffffffffffffffffffffffffffffffff166305bb8485876040518263ffffffff1660e01b81526004018082815260200191505060206040518083038186803b158015615c6c57600080fd5b505afa158015615c80573d6000803e3d6000fd5b505050506040513d6020811015615c9657600080fd5b810190808051906020019092919050505073ffffffffffffffffffffffffffffffffffffffff1661797a909392919063ffffffff16565b603660009054906101000a900473ffffffffffffffffffffffffffffffffffffffff1673ffffffffffffffffffffffffffffffffffffffff1663e8e57118836040518263ffffffff1660e01b81526004018082815260200191505060206040518083038186803b158015615d4057600080fd5b505afa158015615d54573d6000803e3d6000fd5b505050506040513d6020811015615d6a57600080fd5b810190808051906020019092919050505073ffffffffffffffffffffffffffffffffffffffff166340c10f1933836040518363ffffffff1660e01b8152600401808373ffffffffffffffffffffffffffffffffffffffff1673ffffffffffffffffffffffffffffffffffffffff16815260200182815260200192505050600060405180830381600087803b158015615e0157600080fd5b505af1158015615e15573d6000803e3d6000fd5b50505050603660009054906101000a900473ffffffffffffffffffffffffffffffffffffffff1673ffffffffffffffffffffffffffffffffffffffff16632ef30ad083615f1884603660009054906101000a900473ffffffffffffffffffffffffffffffffffffffff1673ffffffffffffffffffffffffffffffffffffffff16635bd1a28e886040518263ffffffff1660e01b81526004018082815260200191505060206040518083038186803b158015615ecf57600080fd5b505afa158015615ee3573d6000803e3d6000fd5b505050506040513d6020811015615ef957600080fd5b8101908080519060200190929190505050616a8b90919063ffffffff16565b6040518363ffffffff1660e01b81526004018083815260200182815260200192505050600060405180830381600087803b158015615f5557600080fd5b505af1158015615f69573d6000803e3d6000fd5b505050505050565b60008090505b825181101561674e576000838281518110615f8e57fe5b60200260200101519050615fa28582614785565b616014576040517f08c379a000000000000000000000000000000000000000000000000000000000815260040180806020018281038252600c8152602001807f4e6f7420656c696769626c65000000000000000000000000000000000000000081525060200191505060405180910390fd5b3073ffffffffffffffffffffffffffffffffffffffff16603660009054906101000a900473ffffffffffffffffffffffffffffffffffffffff1673ffffffffffffffffffffffffffffffffffffffff16639d0214cb876040518263ffffffff1660e01b81526004018082815260200191505060206040518083038186803b15801561609e57600080fd5b505afa1580156160b2573d6000803e3d6000fd5b505050506040513d60208110156160c857600080fd5b810190808051906020019092919050505073ffffffffffffffffffffffffffffffffffffffff16636352211e836040518263ffffffff1660e01b81526004018082815260200191505060206040518083038186803b15801561612957600080fd5b505afa15801561613d573d6000803e3d6000fd5b505050506040513d602081101561615357600080fd5b810190808051906020019092919050505073ffffffffffffffffffffffffffffffffffffffff1614156161ee576040517f08c379a000000000000000000000000000000000000000000000000000000000815260040180806020018281038252600d8152602001807f416c7265616479206f776e65720000000000000000000000000000000000000081525060200191505060405180910390fd5b603660009054906101000a900473ffffffffffffffffffffffffffffffffffffffff1673ffffffffffffffffffffffffffffffffffffffff16639d0214cb866040518263ffffffff1660e01b81526004018082815260200191505060206040518083038186803b15801561626157600080fd5b505afa158015616275573d6000803e3d6000fd5b505050506040513d602081101561628b57600080fd5b810190808051906020019092919050505073ffffffffffffffffffffffffffffffffffffffff166342842e0e3330846040518463ffffffff1660e01b8152600401808473ffffffffffffffffffffffffffffffffffffffff1673ffffffffffffffffffffffffffffffffffffffff1681526020018373ffffffffffffffffffffffffffffffffffffffff1673ffffffffffffffffffffffffffffffffffffffff1681526020018281526020019350505050600060405180830381600087803b15801561635657600080fd5b505af115801561636a573d6000803e3d6000fd5b505050503073ffffffffffffffffffffffffffffffffffffffff16603660009054906101000a900473ffffffffffffffffffffffffffffffffffffffff1673ffffffffffffffffffffffffffffffffffffffff16639d0214cb876040518263ffffffff1660e01b81526004018082815260200191505060206040518083038186803b1580156163f857600080fd5b505afa15801561640c573d6000803e3d6000fd5b505050506040513d602081101561642257600080fd5b810190808051906020019092919050505073ffffffffffffffffffffffffffffffffffffffff16636352211e836040518263ffffffff1660e01b81526004018082815260200191505060206040518083038186803b15801561648357600080fd5b505afa158015616497573d6000803e3d6000fd5b505050506040513d60208110156164ad57600080fd5b810190808051906020019092919050505073ffffffffffffffffffffffffffffffffffffffff1614616547576040517f08c379a000000000000000000000000000000000000000000000000000000000815260040180806020018281038252600c8152602001807f4e6f74207265636569766564000000000000000000000000000000000000000081525060200191505060405180910390fd5b603660009054906101000a900473ffffffffffffffffffffffffffffffffffffffff1673ffffffffffffffffffffffffffffffffffffffff16634d0cb09886836040518363ffffffff1660e01b8152600401808381526020018281526020019250505060206040518083038186803b1580156165c257600080fd5b505afa1580156165d6573d6000803e3d6000fd5b505050506040513d60208110156165ec57600080fd5b81019080805190602001909291905050501561669c57603660009054906101000a900473ffffffffffffffffffffffffffffffffffffffff1673ffffffffffffffffffffffffffffffffffffffff16631ca1e49286836040518363ffffffff1660e01b81526004018083815260200182815260200192505050600060405180830381600087803b15801561667f57600080fd5b505af1158015616693573d6000803e3d6000fd5b50505050616732565b603660009054906101000a900473ffffffffffffffffffffffffffffffffffffffff1673ffffffffffffffffffffffffffffffffffffffff16634cef646586836040518363ffffffff1660e01b81526004018083815260200182815260200192505050600060405180830381600087803b15801561671957600080fd5b505af115801561672d573d6000803e3d6000fd5b505050505b50616747600182616a8b90919063ffffffff16565b9050615f77565b50806168c2576000616772670de0b6b3a76400008451616b6690919063ffffffff16565b9050603660009054906101000a900473ffffffffffffffffffffffffffffffffffffffff1673ffffffffffffffffffffffffffffffffffffffff1663e8e57118856040518263ffffffff1660e01b81526004018082815260200191505060206040518083038186803b1580156167e757600080fd5b505afa1580156167fb573d6000803e3d6000fd5b505050506040513d602081101561681157600080fd5b810190808051906020019092919050505073ffffffffffffffffffffffffffffffffffffffff166340c10f1933836040518363ffffffff1660e01b8152600401808373ffffffffffffffffffffffffffffffffffffffff1673ffffffffffffffffffffffffffffffffffffffff16815260200182815260200192505050600060405180830381600087803b1580156168a857600080fd5b505af11580156168bc573d6000803e3d6000fd5b50505050505b505050565b6000603660009054906101000a900473ffffffffffffffffffffffffffffffffffffffff1673ffffffffffffffffffffffffffffffffffffffff1663bf17f2f2856040518263ffffffff1660e01b81526004018082815260200191505060206040518083038186803b15801561693c57600080fd5b505afa158015616950573d6000803e3d6000fd5b505050506040513d602081101561696657600080fd5b810190808051906020019092919050505090506000838210616988578361698a565b815b90506000811115616a8457603660009054906101000a900473ffffffffffffffffffffffffffffffffffffffff1673ffffffffffffffffffffffffffffffffffffffff166329984915866169e7848661597890919063ffffffff16565b6040518363ffffffff1660e01b81526004018083815260200182815260200192505050600060405180830381600087803b158015616a2457600080fd5b505af1158015616a38573d6000803e3d6000fd5b505050508273ffffffffffffffffffffffffffffffffffffffff166108fc829081150290604051600060405180830381858888f19350505050158015616a82573d6000803e3d6000fd5b505b5050505050565b600080828401905083811015616b09576040517f08c379a000000000000000000000000000000000000000000000000000000000815260040180806020018281038252601b8152602001807f536166654d6174683a206164646974696f6e206f766572666c6f77000000000081525060200191505060405180910390fd5b8091505092915050565b6000828210616b255760009050616b5f565b616b5c616b4d84616b3f8588616b6690919063ffffffff16565b616bec90919063ffffffff16565b8561597890919063ffffffff16565b90505b9392505050565b600080831415616b795760009050616be6565b6000828402905082848281616b8a57fe5b0414616be1576040517f08c379a0000000000000000000000000000000000000000000000000000000008152600401808060200182810382526021815260200180618aa26021913960400191505060405180910390fd5b809150505b92915050565b6000616c2e83836040518060400160405280601a81526020017f536166654d6174683a206469766973696f6e206279207a65726f000000000000815250617a67565b905092915050565b6000806000603660009054906101000a900473ffffffffffffffffffffffffffffffffffffffff1673ffffffffffffffffffffffffffffffffffffffff1663198e4788866040518263ffffffff1660e01b815260040180828152602001915050604080518083038186803b158015616cad57600080fd5b505afa158015616cc1573d6000803e3d6000fd5b505050506040513d6040811015616cd757600080fd5b81019080805190602001909291908051906020019092919050505091509150808410616d0857600092505050616d4a565b6000616d1d858361597890919063ffffffff16565b9050616d4482616d368386616b6690919063ffffffff16565b616bec90919063ffffffff16565b93505050505b92915050565b600033905090565b60008090505b82811015617266576060600167ffffffffffffffff81118015616d8057600080fd5b50604051908082528060200260200182016040528015616daf5781602001602082028036833780820191505090505b5090506000603660009054906101000a900473ffffffffffffffffffffffffffffffffffffffff1673ffffffffffffffffffffffffffffffffffffffff1663e94dbf89876040518263ffffffff1660e01b81526004018082815260200191505060206040518083038186803b158015616e2757600080fd5b505afa158015616e3b573d6000803e3d6000fd5b505050506040513d6020811015616e5157600080fd5b81019080805190602001909291905050501115616ff7576000616f20603660009054906101000a900473ffffffffffffffffffffffffffffffffffffffff1673ffffffffffffffffffffffffffffffffffffffff1663e94dbf89886040518263ffffffff1660e01b81526004018082815260200191505060206040518083038186803b158015616ee057600080fd5b505afa158015616ef4573d6000803e3d6000fd5b505050506040513d6020811015616f0a57600080fd5b8101908080519060200190929190505050617b2d565b9050603660009054906101000a900473ffffffffffffffffffffffffffffffffffffffff1673ffffffffffffffffffffffffffffffffffffffff1663645058b387836040518363ffffffff1660e01b8152600401808381526020018281526020019250505060206040518083038186803b158015616f9d57600080fd5b505afa158015616fb1573d6000803e3d6000fd5b505050506040513d6020811015616fc757600080fd5b810190808051906020019092919050505082600081518110616fe557fe5b60200260200101818152505050617182565b60006170af603660009054906101000a900473ffffffffffffffffffffffffffffffffffffffff1673ffffffffffffffffffffffffffffffffffffffff1663cc824473886040518263ffffffff1660e01b81526004018082815260200191505060206040518083038186803b15801561706f57600080fd5b505afa158015617083573d6000803e3d6000fd5b505050506040513d602081101561709957600080fd5b8101908080519060200190929190505050617b2d565b9050603660009054906101000a900473ffffffffffffffffffffffffffffffffffffffff1673ffffffffffffffffffffffffffffffffffffffff1663ec30064a87836040518363ffffffff1660e01b8152600401808381526020018281526020019250505060206040518083038186803b15801561712c57600080fd5b505afa158015617140573d6000803e3d6000fd5b505050506040513d602081101561715657600080fd5b81019080805190602001909291905050508260008151811061717457fe5b602002602001018181525050505b61718d858285617d8c565b7f8dd603fb9fd7fdd0be7a7c282962e1ac7c6d82e51fc34bd602ec1b83cf2dc93c858260003360405180858152602001806020018481526020018373ffffffffffffffffffffffffffffffffffffffff1673ffffffffffffffffffffffffffffffffffffffff168152602001828103825285818151815260200191508051906020019060200280838360005b83811015617234578082015181840152602081019050617219565b505050509050019550505050505060405180910390a15061725f600182616a8b90919063ffffffff16565b9050616d5e565b50505050565b603660009054906101000a900473ffffffffffffffffffffffffffffffffffffffff1673ffffffffffffffffffffffffffffffffffffffff1663e8e57118836040518263ffffffff1660e01b81526004018082815260200191505060206040518083038186803b1580156172df57600080fd5b505afa1580156172f3573d6000803e3d6000fd5b505050506040513d602081101561730957600080fd5b810190808051906020019092919050505073ffffffffffffffffffffffffffffffffffffffff166379cc679033836040518363ffffffff1660e01b8152600401808373ffffffffffffffffffffffffffffffffffffffff1673ffffffffffffffffffffffffffffffffffffffff16815260200182815260200192505050600060405180830381600087803b1580156173a057600080fd5b505af11580156173b4573d6000803e3d6000fd5b505050506174903382603660009054906101000a900473ffffffffffffffffffffffffffffffffffffffff1673ffffffffffffffffffffffffffffffffffffffff166305bb8485866040518263ffffffff1660e01b81526004018082815260200191505060206040518083038186803b15801561743057600080fd5b505afa158015617444573d6000803e3d6000fd5b505050506040513d602081101561745a57600080fd5b810190808051906020019092919050505073ffffffffffffffffffffffffffffffffffffffff166186a39092919063ffffffff16565b603660009054906101000a900473ffffffffffffffffffffffffffffffffffffffff1673ffffffffffffffffffffffffffffffffffffffff16632ef30ad08361758f84603660009054906101000a900473ffffffffffffffffffffffffffffffffffffffff1673ffffffffffffffffffffffffffffffffffffffff16635bd1a28e886040518263ffffffff1660e01b81526004018082815260200191505060206040518083038186803b15801561754657600080fd5b505afa15801561755a573d6000803e3d6000fd5b505050506040513d602081101561757057600080fd5b810190808051906020019092919050505061597890919063ffffffff16565b6040518363ffffffff1660e01b81526004018083815260200182815260200192505050600060405180830381600087803b1580156175cc57600080fd5b505af11580156175e0573d6000803e3d6000fd5b505050506060600067ffffffffffffffff811180156175fe57600080fd5b5060405190808252806020026020018201604052801561762d5781602001602082028036833780820191505090505b5090507f8dd603fb9fd7fdd0be7a7c282962e1ac7c6d82e51fc34bd602ec1b83cf2dc93c8382843360405180858152602001806020018481526020018373ffffffffffffffffffffffffffffffffffffffff1673ffffffffffffffffffffffffffffffffffffffff168152602001828103825285818151815260200191508051906020019060200280838360005b838110156176d65780820151818401526020810190506176bb565b505050509050019550505050505060405180910390a1505050565b6000803090506000813b9050600081149250505090565b600060019054906101000a900460ff168061772757506177266176f1565b5b8061773e57506000809054906101000a900460ff16155b617793576040517f08c379a000000000000000000000000000000000000000000000000000000000815260040180806020018281038252602e815260200180618ac3602e913960400191505060405180910390fd5b60008060019054906101000a900460ff1615905080156177e3576001600060016101000a81548160ff02191690831515021790555060016000806101000a81548160ff0219169083151502179055505b60006177ed616d50565b905080603360006101000a81548173ffffffffffffffffffffffffffffffffffffffff021916908373ffffffffffffffffffffffffffffffffffffffff1602179055508073ffffffffffffffffffffffffffffffffffffffff16600073ffffffffffffffffffffffffffffffffffffffff167f8be0079c531659141344cd1fd0a4f28419497f9722a3daafe3b4186f6b6457e060405160405180910390a35080156178ad5760008060016101000a81548160ff0219169083151502179055505b50565b6001603581905550565b6000838311158290617967576040517f08c379a00000000000000000000000000000000000000000000000000000000081526004018080602001828103825283818151815260200191508051906020019080838360005b8381101561792c578082015181840152602081019050617911565b50505050905090810190601f1680156179595780820380516001836020036101000a031916815260200191505b509250505060405180910390fd5b5060008385039050809150509392505050565b617a61846323b872dd60e01b858585604051602401808473ffffffffffffffffffffffffffffffffffffffff1673ffffffffffffffffffffffffffffffffffffffff1681526020018373ffffffffffffffffffffffffffffffffffffffff1673ffffffffffffffffffffffffffffffffffffffff1681526020018281526020019350505050604051602081830303815290604052907bffffffffffffffffffffffffffffffffffffffffffffffffffffffff19166020820180517bffffffffffffffffffffffffffffffffffffffffffffffffffffffff838183161783525050505061875b565b50505050565b60008083118290617b13576040517f08c379a00000000000000000000000000000000000000000000000000000000081526004018080602001828103825283818151815260200191508051906020019080838360005b83811015617ad8578082015181840152602081019050617abd565b50505050905090810190601f168015617b055780820380516001836020036101000a031916815260200191505b509250505060405180910390fd5b506000838581617b1f57fe5b049050809150509392505050565b6000603660009054906101000a900473ffffffffffffffffffffffffffffffffffffffff1673ffffffffffffffffffffffffffffffffffffffff1663b7d04423617c236001603660009054906101000a900473ffffffffffffffffffffffffffffffffffffffff1673ffffffffffffffffffffffffffffffffffffffff166361e013566040518163ffffffff1660e01b815260040160206040518083038186803b158015617bda57600080fd5b505afa158015617bee573d6000803e3d6000fd5b505050506040513d6020811015617c0457600080fd5b8101908080519060200190929190505050616a8b90919063ffffffff16565b6040518263ffffffff1660e01b815260040180828152602001915050600060405180830381600087803b158015617c5957600080fd5b505af1158015617c6d573d6000803e3d6000fd5b50505050814233603660009054906101000a900473ffffffffffffffffffffffffffffffffffffffff1673ffffffffffffffffffffffffffffffffffffffff166361e013566040518163ffffffff1660e01b815260040160206040518083038186803b158015617cdc57600080fd5b505afa158015617cf0573d6000803e3d6000fd5b505050506040513d6020811015617d0657600080fd5b8101908080519060200190929190505050604051602001808481526020018373ffffffffffffffffffffffffffffffffffffffff1673ffffffffffffffffffffffffffffffffffffffff1660601b815260140182815260200193505050506040516020818303038152906040528051906020012060001c81617d8457fe5b069050919050565b80617ef957603660009054906101000a900473ffffffffffffffffffffffffffffffffffffffff1673ffffffffffffffffffffffffffffffffffffffff1663e8e57118846040518263ffffffff1660e01b81526004018082815260200191505060206040518083038186803b158015617e0457600080fd5b505afa158015617e18573d6000803e3d6000fd5b505050506040513d6020811015617e2e57600080fd5b810190808051906020019092919050505073ffffffffffffffffffffffffffffffffffffffff166379cc679033617e77670de0b6b3a76400008651616b6690919063ffffffff16565b6040518363ffffffff1660e01b8152600401808373ffffffffffffffffffffffffffffffffffffffff1673ffffffffffffffffffffffffffffffffffffffff16815260200182815260200192505050600060405180830381600087803b158015617ee057600080fd5b505af1158015617ef4573d6000803e3d6000fd5b505050505b60008090505b825181101561869d576000838281518110617f1657fe5b60200260200101519050603660009054906101000a900473ffffffffffffffffffffffffffffffffffffffff1673ffffffffffffffffffffffffffffffffffffffff16637cb251d586836040518363ffffffff1660e01b8152600401808381526020018281526020019250505060206040518083038186803b158015617f9b57600080fd5b505afa158015617faf573d6000803e3d6000fd5b505050506040513d6020811015617fc557600080fd5b8101908080519060200190929190505050806180935750603660009054906101000a900473ffffffffffffffffffffffffffffffffffffffff1673ffffffffffffffffffffffffffffffffffffffff166381b10bc786836040518363ffffffff1660e01b8152600401808381526020018281526020019250505060206040518083038186803b15801561805757600080fd5b505afa15801561806b573d6000803e3d6000fd5b505050506040513d602081101561808157600080fd5b81019080805190602001909291905050505b618105576040517f08c379a00000000000000000000000000000000000000000000000000000000081526004018080602001828103825260108152602001807f4e4654206e6f7420696e207661756c740000000000000000000000000000000081525060200191505060405180910390fd5b603660009054906101000a900473ffffffffffffffffffffffffffffffffffffffff1673ffffffffffffffffffffffffffffffffffffffff16637cb251d586836040518363ffffffff1660e01b8152600401808381526020018281526020019250505060206040518083038186803b15801561818057600080fd5b505afa158015618194573d6000803e3d6000fd5b505050506040513d60208110156181aa57600080fd5b81019080805190602001909291905050501561825a57603660009054906101000a900473ffffffffffffffffffffffffffffffffffffffff1673ffffffffffffffffffffffffffffffffffffffff16630f3e56c986836040518363ffffffff1660e01b81526004018083815260200182815260200192505050600060405180830381600087803b15801561823d57600080fd5b505af1158015618251573d6000803e3d6000fd5b505050506182f0565b603660009054906101000a900473ffffffffffffffffffffffffffffffffffffffff1673ffffffffffffffffffffffffffffffffffffffff166334f0fe5086836040518363ffffffff1660e01b81526004018083815260200182815260200192505050600060405180830381600087803b1580156182d757600080fd5b505af11580156182eb573d6000803e3d6000fd5b505050505b603660009054906101000a900473ffffffffffffffffffffffffffffffffffffffff1673ffffffffffffffffffffffffffffffffffffffff166391c2302a866040518263ffffffff1660e01b81526004018082815260200191505060206040518083038186803b15801561836357600080fd5b505afa158015618377573d6000803e3d6000fd5b505050506040513d602081101561838d57600080fd5b810190808051906020019092919050505015618501576000603660009054906101000a900473ffffffffffffffffffffffffffffffffffffffff1673ffffffffffffffffffffffffffffffffffffffff1663f09e82e287846040518363ffffffff1660e01b8152600401808381526020018281526020019250505060206040518083038186803b15801561842057600080fd5b505afa158015618434573d6000803e3d6000fd5b505050506040513d602081101561844a57600080fd5b81019080805190602001909291905050509050603660009054906101000a900473ffffffffffffffffffffffffffffffffffffffff1673ffffffffffffffffffffffffffffffffffffffff16639989f93a878484156040518463ffffffff1660e01b815260040180848152602001838152602001821515151581526020019350505050600060405180830381600087803b1580156184e757600080fd5b505af11580156184fb573d6000803e3d6000fd5b50505050505b603660009054906101000a900473ffffffffffffffffffffffffffffffffffffffff1673ffffffffffffffffffffffffffffffffffffffff16639d0214cb866040518263ffffffff1660e01b81526004018082815260200191505060206040518083038186803b15801561857457600080fd5b505afa158015618588573d6000803e3d6000fd5b505050506040513d602081101561859e57600080fd5b810190808051906020019092919050505073ffffffffffffffffffffffffffffffffffffffff166342842e0e3033846040518463ffffffff1660e01b8152600401808473ffffffffffffffffffffffffffffffffffffffff1673ffffffffffffffffffffffffffffffffffffffff1681526020018373ffffffffffffffffffffffffffffffffffffffff1673ffffffffffffffffffffffffffffffffffffffff1681526020018281526020019350505050600060405180830381600087803b15801561866957600080fd5b505af115801561867d573d6000803e3d6000fd5b5050505050618696600182616a8b90919063ffffffff16565b9050617eff565b50505050565b6187568363a9059cbb60e01b8484604051602401808373ffffffffffffffffffffffffffffffffffffffff1673ffffffffffffffffffffffffffffffffffffffff16815260200182815260200192505050604051602081830303815290604052907bffffffffffffffffffffffffffffffffffffffffffffffffffffffff19166020820180517bffffffffffffffffffffffffffffffffffffffffffffffffffffffff838183161783525050505061875b565b505050565b60606187bd826040518060400160405280602081526020017f5361666545524332303a206c6f772d6c6576656c2063616c6c206661696c65648152508573ffffffffffffffffffffffffffffffffffffffff1661884a9092919063ffffffff16565b9050600081511115618845578080602001905160208110156187de57600080fd5b8101908080519060200190929190505050618844576040517f08c379a000000000000000000000000000000000000000000000000000000000815260040180806020018281038252602a815260200180618af1602a913960400191505060405180910390fd5b5b505050565b60606188598484600085618862565b90509392505050565b606061886d85618a68565b6188df576040517f08c379a000000000000000000000000000000000000000000000000000000000815260040180806020018281038252601d8152602001807f416464726573733a2063616c6c20746f206e6f6e2d636f6e747261637400000081525060200191505060405180910390fd5b600060608673ffffffffffffffffffffffffffffffffffffffff1685876040518082805190602001908083835b6020831061892f578051825260208201915060208101905060208303925061890c565b6001836020036101000a03801982511681845116808217855250505050505090500191505060006040518083038185875af1925050503d8060008114618991576040519150601f19603f3d011682016040523d82523d6000602084013e618996565b606091505b509150915081156189ab578092505050618a60565b6000815111156189be5780518082602001fd5b836040517f08c379a00000000000000000000000000000000000000000000000000000000081526004018080602001828103825283818151815260200191508051906020019080838360005b83811015618a25578082015181840152602081019050618a0a565b50505050905090810190601f168015618a525780820380516001836020036101000a031916815260200191505b509250505060405180910390fd5b949350505050565b600080823b90506000811191505091905056fe4f776e61626c653a206e6577206f776e657220697320746865207a65726f2061646472657373536166654d6174683a206d756c7469706c69636174696f6e206f766572666c6f77436f6e747261637420696e7374616e63652068617320616c7265616479206265656e20696e697469616c697a65645361666545524332303a204552433230206f7065726174696f6e20646964206e6f742073756363656564a264697066735822122021e7a522a8862a7742cf1449f85ca6918a5763d75b5f8878de813d18fa2e961564736f6c63430006080033",
  "immutableReferences": {},
  "source": "// SPDX-License-Identifier: MIT\n\npragma solidity 0.6.8;\n\nimport \"./Pausable.sol\";\nimport \"./IXToken.sol\";\nimport \"./IERC721.sol\";\nimport \"./ReentrancyGuard.sol\";\nimport \"./ERC721Holder.sol\";\nimport \"./IXStore.sol\";\nimport \"./Initializable.sol\";\nimport \"./SafeERC20.sol\";\n\ncontract NFTX is Pausable, ReentrancyGuard, ERC721Holder {\n    using SafeMath for uint256;\n    using SafeERC20 for IERC20;\n\n    event NewVault(uint256 vaultId, address sender);\n    event Mint(\n        uint256 vaultId,\n        uint256[] nftIds,\n        uint256 d2Amount,\n        address sender\n    );\n    event Redeem(\n        uint256 vaultId,\n        uint256[] nftIds,\n        uint256 d2Amount,\n        address sender\n    );\n    event MintRequested(uint256 vaultId, uint256[] nftIds, address sender);\n\n    IXStore public store;\n\n    function initialize(address storeAddress) public initializer {\n        initOwnable();\n        initReentrancyGuard();\n        store = IXStore(storeAddress);\n    }\n\n    /* function onlyManager(uint256 vaultId) internal view {\n        \n    } */\n\n    function onlyPrivileged(uint256 vaultId) internal view {\n        if (store.isFinalized(vaultId)) {\n            require(msg.sender == owner(), \"Not owner\");\n        } else {\n            require(msg.sender == store.manager(vaultId), \"Not manager\");\n        }\n    }\n\n    function isEligible(uint256 vaultId, uint256 nftId)\n        public\n        view\n        virtual\n        returns (bool)\n    {\n        return\n            store.negateEligibility(vaultId)\n                ? !store.isEligible(vaultId, nftId)\n                : store.isEligible(vaultId, nftId);\n    }\n\n    function vaultSize(uint256 vaultId) public view virtual returns (uint256) {\n        return\n            store.isD2Vault(vaultId)\n                ? store.d2Holdings(vaultId)\n                : store.holdingsLength(vaultId).add(\n                    store.reservesLength(vaultId)\n                );\n    }\n\n    function _getPseudoRand(uint256 modulus)\n        internal\n        virtual\n        returns (uint256)\n    {\n        store.setRandNonce(store.randNonce().add(1));\n        return\n            uint256(\n                keccak256(abi.encodePacked(now, msg.sender, store.randNonce()))\n            ) %\n            modulus;\n    }\n\n    function _calcFee(\n        uint256 amount,\n        uint256 ethBase,\n        uint256 ethStep,\n        bool isD2\n    ) internal pure virtual returns (uint256) {\n        if (amount == 0) {\n            return 0;\n        } else if (isD2) {\n            return ethBase.add(ethStep.mul(amount.sub(10**18)).div(10**18));\n        } else {\n            uint256 n = amount;\n            uint256 nSub1 = amount >= 1 ? n.sub(1) : 0;\n            return ethBase.add(ethStep.mul(nSub1));\n        }\n    }\n\n    function _calcBounty(uint256 vaultId, uint256 numTokens, bool isBurn)\n        public\n        view\n        virtual\n        returns (uint256)\n    {\n        (, uint256 length) = store.supplierBounty(vaultId);\n        if (length == 0) return 0;\n        uint256 ethBounty = 0;\n        for (uint256 i = 0; i < numTokens; i = i.add(1)) {\n            uint256 _vaultSize = isBurn\n                ? vaultSize(vaultId).sub(i.add(1))\n                : vaultSize(vaultId).add(i);\n            uint256 _ethBounty = _calcBountyHelper(vaultId, _vaultSize);\n            ethBounty = ethBounty.add(_ethBounty);\n        }\n        return ethBounty;\n    }\n\n    function _calcBountyD2(uint256 vaultId, uint256 amount, bool isBurn)\n        public\n        view\n        virtual\n        returns (uint256)\n    {\n        (uint256 ethMax, uint256 length) = store.supplierBounty(vaultId);\n        if (length == 0) return 0;\n        uint256 prevSize = vaultSize(vaultId);\n        uint256 prevDepth = prevSize > length ? 0 : length.sub(prevSize);\n        uint256 prevReward = _calcBountyD2Helper(ethMax, length, prevSize);\n        uint256 newSize = isBurn\n            ? vaultSize(vaultId).sub(amount)\n            : vaultSize(vaultId).add(amount);\n        uint256 newDepth = newSize > length ? 0 : length.sub(newSize);\n        uint256 newReward = _calcBountyD2Helper(ethMax, length, newSize);\n        uint256 prevTriangle = prevDepth.mul(prevReward).div(2).div(10**18);\n        uint256 newTriangle = newDepth.mul(newReward).div(2).div(10**18);\n        return\n            isBurn\n                ? newTriangle.sub(prevTriangle)\n                : prevTriangle.sub(newTriangle);\n    }\n\n    function _calcBountyD2Helper(uint256 ethMax, uint256 length, uint256 size)\n        internal\n        pure\n        returns (uint256)\n    {\n        if (size >= length) return 0;\n        return ethMax.sub(ethMax.mul(size).div(length));\n    }\n\n    function _calcBountyHelper(uint256 vaultId, uint256 _vaultSize)\n        internal\n        view\n        virtual\n        returns (uint256)\n    {\n        (uint256 ethMax, uint256 length) = store.supplierBounty(vaultId);\n        if (_vaultSize >= length) return 0;\n        uint256 depth = length.sub(_vaultSize);\n        return ethMax.mul(depth).div(length);\n    }\n\n    function createVault(\n        address _xTokenAddress,\n        address _assetAddress,\n        bool _isD2Vault\n    ) public virtual nonReentrant returns (uint256) {\n        onlyOwnerIfPaused(0);\n        IXToken xToken = IXToken(_xTokenAddress);\n        require(xToken.owner() == address(this), \"Wrong owner\");\n        uint256 vaultId = store.addNewVault();\n        store.setXTokenAddress(vaultId, _xTokenAddress);\n\n        store.setXToken(vaultId);\n        if (!_isD2Vault) {\n            store.setNftAddress(vaultId, _assetAddress);\n            store.setNft(vaultId);\n            store.setNegateEligibility(vaultId, true);\n        } else {\n            store.setD2AssetAddress(vaultId, _assetAddress);\n            store.setD2Asset(vaultId);\n            store.setIsD2Vault(vaultId, true);\n        }\n        store.setManager(vaultId, msg.sender);\n        emit NewVault(vaultId, msg.sender);\n        return vaultId;\n    }\n\n    function depositETH(uint256 vaultId) public payable virtual {\n        store.setEthBalance(vaultId, store.ethBalance(vaultId).add(msg.value));\n    }\n\n    function _payEthFromVault(\n        uint256 vaultId,\n        uint256 amount,\n        address payable to\n    ) internal virtual {\n        uint256 ethBalance = store.ethBalance(vaultId);\n        uint256 amountToSend = ethBalance < amount ? ethBalance : amount;\n        if (amountToSend > 0) {\n            store.setEthBalance(vaultId, ethBalance.sub(amountToSend));\n            to.transfer(amountToSend);\n        }\n    }\n\n    function _receiveEthToVault(\n        uint256 vaultId,\n        uint256 amountRequested,\n        uint256 amountSent\n    ) internal virtual {\n        require(amountSent >= amountRequested, \"Value too low\");\n        store.setEthBalance(\n            vaultId,\n            store.ethBalance(vaultId).add(amountRequested)\n        );\n        if (amountSent > amountRequested) {\n            msg.sender.transfer(amountSent.sub(amountRequested));\n        }\n    }\n\n    function requestMint(uint256 vaultId, uint256[] memory nftIds)\n        public\n        payable\n        virtual\n        nonReentrant\n    {\n        onlyOwnerIfPaused(1);\n        // TODO: implement bounty + fees\n        for (uint256 i = 0; i < nftIds.length; i = i.add(1)) {\n            require(\n                store.nft(vaultId).ownerOf(nftIds[i]) != address(this),\n                \"Already owner\"\n            );\n            store.nft(vaultId).safeTransferFrom(\n                msg.sender,\n                address(this),\n                nftIds[i]\n            );\n            require(\n                store.nft(vaultId).ownerOf(nftIds[i]) == address(this),\n                \"Not received\"\n            );\n            store.setRequester(vaultId, nftIds[i], msg.sender);\n        }\n        emit MintRequested(vaultId, nftIds, msg.sender);\n    }\n\n    function revokeMintRequests(uint256 vaultId, uint256[] memory nftIds)\n        public\n        virtual\n        nonReentrant\n    {\n        for (uint256 i = 0; i < nftIds.length; i = i.add(1)) {\n            require(\n                store.requester(vaultId, nftIds[i]) == msg.sender,\n                \"Not requester\"\n            );\n            store.setRequester(vaultId, nftIds[i], address(0));\n            store.nft(vaultId).safeTransferFrom(\n                address(this),\n                msg.sender,\n                nftIds[i]\n            );\n        }\n    }\n\n    function approveMintRequest(uint256 vaultId, uint256[] memory nftIds)\n        public\n        virtual\n    {\n        onlyPrivileged(vaultId);\n        for (uint256 i = 0; i < nftIds.length; i = i.add(1)) {\n            address requester = store.requester(vaultId, nftIds[i]);\n            require(requester != address(0), \"No request\");\n            require(\n                store.nft(vaultId).ownerOf(nftIds[i]) == address(this),\n                \"Not owner\"\n            );\n            store.setRequester(vaultId, nftIds[i], address(0));\n            store.setIsEligible(vaultId, nftIds[i], true);\n            if (store.shouldReserve(vaultId, nftIds[i])) {\n                store.reservesAdd(vaultId, nftIds[i]);\n            } else {\n                store.holdingsAdd(vaultId, nftIds[i]);\n            }\n            store.xToken(vaultId).mint(requester, 10**18);\n        }\n    }\n\n    function _mint(uint256 vaultId, uint256[] memory nftIds, bool isDualOp)\n        internal\n        virtual\n    {\n        for (uint256 i = 0; i < nftIds.length; i = i.add(1)) {\n            uint256 nftId = nftIds[i];\n            require(isEligible(vaultId, nftId), \"Not eligible\");\n            require(\n                store.nft(vaultId).ownerOf(nftId) != address(this),\n                \"Already owner\"\n            );\n            store.nft(vaultId).safeTransferFrom(\n                msg.sender,\n                address(this),\n                nftId\n            );\n            require(\n                store.nft(vaultId).ownerOf(nftId) == address(this),\n                \"Not received\"\n            );\n            if (store.shouldReserve(vaultId, nftId)) {\n                store.reservesAdd(vaultId, nftId);\n            } else {\n                store.holdingsAdd(vaultId, nftId);\n            }\n        }\n        if (!isDualOp) {\n            uint256 amount = nftIds.length.mul(10**18);\n            store.xToken(vaultId).mint(msg.sender, amount);\n        }\n    }\n\n    function _mintD2(uint256 vaultId, uint256 amount) internal virtual {\n        store.d2Asset(vaultId).safeTransferFrom(\n            msg.sender,\n            address(this),\n            amount\n        );\n        store.xToken(vaultId).mint(msg.sender, amount);\n        store.setD2Holdings(vaultId, store.d2Holdings(vaultId).add(amount));\n    }\n\n    function _redeem(uint256 vaultId, uint256 numNFTs, bool isDualOp)\n        internal\n        virtual\n    {\n        for (uint256 i = 0; i < numNFTs; i = i.add(1)) {\n            uint256[] memory nftIds = new uint256[](1);\n            if (store.holdingsLength(vaultId) > 0) {\n                uint256 rand = _getPseudoRand(store.holdingsLength(vaultId));\n                nftIds[0] = store.holdingsAt(vaultId, rand);\n            } else {\n                uint256 rand = _getPseudoRand(store.reservesLength(vaultId));\n                nftIds[0] = store.reservesAt(vaultId, rand);\n            }\n            _redeemHelper(vaultId, nftIds, isDualOp);\n            emit Redeem(vaultId, nftIds, 0, msg.sender);\n        }\n    }\n\n    function _redeemD2(uint256 vaultId, uint256 amount) internal virtual {\n        store.xToken(vaultId).burnFrom(msg.sender, amount);\n        store.d2Asset(vaultId).safeTransfer(msg.sender, amount);\n        store.setD2Holdings(vaultId, store.d2Holdings(vaultId).sub(amount));\n        uint256[] memory nftIds = new uint256[](0);\n        emit Redeem(vaultId, nftIds, amount, msg.sender);\n    }\n\n    function _redeemHelper(\n        uint256 vaultId,\n        uint256[] memory nftIds,\n        bool isDualOp\n    ) internal virtual {\n        if (!isDualOp) {\n            store.xToken(vaultId).burnFrom(\n                msg.sender,\n                nftIds.length.mul(10**18)\n            );\n        }\n        for (uint256 i = 0; i < nftIds.length; i = i.add(1)) {\n            uint256 nftId = nftIds[i];\n            require(\n                store.holdingsContains(vaultId, nftId) ||\n                    store.reservesContains(vaultId, nftId),\n                \"NFT not in vault\"\n            );\n            if (store.holdingsContains(vaultId, nftId)) {\n                store.holdingsRemove(vaultId, nftId);\n            } else {\n                store.reservesRemove(vaultId, nftId);\n            }\n            if (store.flipEligOnRedeem(vaultId)) {\n                bool isElig = store.isEligible(vaultId, nftId);\n                store.setIsEligible(vaultId, nftId, !isElig);\n            }\n            store.nft(vaultId).safeTransferFrom(\n                address(this),\n                msg.sender,\n                nftId\n            );\n        }\n    }\n\n    function mint(uint256 vaultId, uint256[] memory nftIds, uint256 d2Amount)\n        public\n        payable\n        virtual\n        nonReentrant\n    {\n        onlyOwnerIfPaused(1);\n        uint256 amount = store.isD2Vault(vaultId) ? d2Amount : nftIds.length;\n        uint256 ethBounty = store.isD2Vault(vaultId)\n            ? _calcBountyD2(vaultId, d2Amount, false)\n            : _calcBounty(vaultId, amount, false);\n        (uint256 ethBase, uint256 ethStep) = store.mintFees(vaultId);\n        uint256 ethFee = _calcFee(\n            amount,\n            ethBase,\n            ethStep,\n            store.isD2Vault(vaultId)\n        );\n        if (ethFee > ethBounty) {\n            _receiveEthToVault(vaultId, ethFee.sub(ethBounty), msg.value);\n        }\n        if (store.isD2Vault(vaultId)) {\n            _mintD2(vaultId, d2Amount);\n        } else {\n            _mint(vaultId, nftIds, false);\n        }\n        if (ethBounty > ethFee) {\n            _payEthFromVault(vaultId, ethBounty.sub(ethFee), msg.sender);\n        }\n        emit Mint(vaultId, nftIds, d2Amount, msg.sender);\n    }\n\n    function redeem(uint256 vaultId, uint256 amount)\n        public\n        payable\n        virtual\n        nonReentrant\n    {\n        onlyOwnerIfPaused(2);\n        if (!store.isClosed(vaultId)) {\n            uint256 ethBounty = store.isD2Vault(vaultId)\n                ? _calcBountyD2(vaultId, amount, true)\n                : _calcBounty(vaultId, amount, true);\n            (uint256 ethBase, uint256 ethStep) = store.burnFees(vaultId);\n            uint256 ethFee = _calcFee(\n                amount,\n                ethBase,\n                ethStep,\n                store.isD2Vault(vaultId)\n            );\n            if (ethBounty.add(ethFee) > 0) {\n                _receiveEthToVault(vaultId, ethBounty.add(ethFee), msg.value);\n            }\n        }\n        if (!store.isD2Vault(vaultId)) {\n            _redeem(vaultId, amount, false);\n        } else {\n            _redeemD2(vaultId, amount);\n        }\n\n    }\n\n    /* function mintAndRedeem(uint256 vaultId, uint256[] memory nftIds)\n        public\n        payable\n        virtual\n        nonReentrant\n    {\n        onlyOwnerIfPaused(3);\n        require(!store.isD2Vault(vaultId), \"Is D2 vault\");\n        require(!store.isClosed(vaultId), \"Vault is closed\");\n        (uint256 ethBase, uint256 ethStep) = store.dualFees(vaultId);\n        uint256 ethFee = _calcFee(\n            nftIds.length,\n            ethBase,\n            ethStep,\n            store.isD2Vault(vaultId)\n        );\n        if (ethFee > 0) {\n            _receiveEthToVault(vaultId, ethFee, msg.value);\n        }\n        _mint(vaultId, nftIds, true);\n        _redeem(vaultId, nftIds.length, true);\n    } */\n\n    function setIsEligible(\n        uint256 vaultId,\n        uint256[] memory nftIds,\n        bool _boolean\n    ) public virtual {\n        onlyPrivileged(vaultId);\n        for (uint256 i = 0; i < nftIds.length; i = i.add(1)) {\n            store.setIsEligible(vaultId, nftIds[i], _boolean);\n        }\n    }\n\n    function setFlipEligOnRedeem(uint256 vaultId, bool flipElig)\n        public\n        virtual\n    {\n        onlyPrivileged(vaultId);\n        store.setFlipEligOnRedeem(vaultId, flipElig);\n    }\n\n    function setNegateEligibility(uint256 vaultId, bool shouldNegate)\n        public\n        virtual\n    {\n        onlyPrivileged(vaultId);\n        require(\n            store\n                .holdingsLength(vaultId)\n                .add(store.reservesLength(vaultId))\n                .add(store.d2Holdings(vaultId)) ==\n                0,\n            \"Vault not empty\"\n        );\n        store.setNegateEligibility(vaultId, shouldNegate);\n    }\n\n    /* function setShouldReserve(\n        uint256 vaultId,\n        uint256[] memory nftIds,\n        bool _boolean\n    ) public virtual {\n        onlyPrivileged(vaultId);\n        for (uint256 i = 0; i < nftIds.length; i.add(1)) {\n            store.setShouldReserve(vaultId, nftIds[i], _boolean);\n        }\n    } */\n\n    /* function setIsReserved(\n        uint256 vaultId,\n        uint256[] memory nftIds,\n        bool _boolean\n    ) public virtual {\n        onlyPrivileged(vaultId);\n        for (uint256 i = 0; i < nftIds.length; i.add(1)) {\n            uint256 nftId = nftIds[i];\n            if (_boolean) {\n                require(\n                    store.holdingsContains(vaultId, nftId),\n                    \"Invalid nftId\"\n                );\n                store.holdingsRemove(vaultId, nftId);\n                store.reservesAdd(vaultId, nftId);\n            } else {\n                require(\n                    store.reservesContains(vaultId, nftId),\n                    \"Invalid nftId\"\n                );\n                store.reservesRemove(vaultId, nftId);\n                store.holdingsAdd(vaultId, nftId);\n            }\n        }\n    } */\n\n    function changeTokenName(uint256 vaultId, string memory newName)\n        public\n        virtual\n    {\n        onlyPrivileged(vaultId);\n        store.xToken(vaultId).changeName(newName);\n    }\n\n    function changeTokenSymbol(uint256 vaultId, string memory newSymbol)\n        public\n        virtual\n    {\n        onlyPrivileged(vaultId);\n        store.xToken(vaultId).changeSymbol(newSymbol);\n    }\n\n    function setManager(uint256 vaultId, address newManager) public virtual {\n        onlyPrivileged(vaultId);\n        store.setManager(vaultId, newManager);\n    }\n\n    function finalizeVault(uint256 vaultId) public virtual {\n        onlyPrivileged(vaultId);\n        require(!store.isFinalized(vaultId), \"Already finalized\");\n        store.setIsFinalized(vaultId, true);\n    }\n\n    function closeVault(uint256 vaultId) public virtual {\n        onlyPrivileged(vaultId);\n        store.setIsClosed(vaultId, true);\n    }\n\n    function setMintFees(uint256 vaultId, uint256 _ethBase, uint256 _ethStep)\n        public\n        virtual\n    {\n        onlyPrivileged(vaultId);\n        store.setMintFees(vaultId, _ethBase, _ethStep);\n    }\n\n    function setBurnFees(uint256 vaultId, uint256 _ethBase, uint256 _ethStep)\n        public\n        virtual\n    {\n        onlyPrivileged(vaultId);\n        store.setBurnFees(vaultId, _ethBase, _ethStep);\n    }\n\n    /* function setDualFees(uint256 vaultId, uint256 _ethBase, uint256 _ethStep)\n        public\n        virtual\n    {\n        onlyPrivileged(vaultId);\n        store.setDualFees(vaultId, _ethBase, _ethStep);\n    } */\n\n    function setSupplierBounty(uint256 vaultId, uint256 ethMax, uint256 length)\n        public\n        virtual\n    {\n        onlyPrivileged(vaultId);\n        store.setSupplierBounty(vaultId, ethMax, length);\n    }\n\n}\n",
  "sourcePath": "/Applications/MAMP/htdocs/nftx-graph/contracts/NFTX.sol",
  "compiler": {
    "name": "solc",
    "version": "0.6.8+commit.0bbfe453.Emscripten.clang"
  },
  "schemaVersion": "3.3.4",
  "updatedAt": "2021-02-23T14:33:02.154Z",
  "devdoc": {
    "methods": {
      "onERC721Received(address,address,uint256,bytes)": {
        "details": "See {IERC721Receiver-onERC721Received}.     * Always returns `IERC721Receiver.onERC721Received.selector`."
      },
      "owner()": {
        "details": "Returns the address of the current owner."
      },
      "renounceOwnership()": {
        "details": "Leaves the contract without owner. It will not be possible to call `onlyOwner` functions anymore. Can only be called by the current owner.     * NOTE: Renouncing ownership will leave the contract without an owner, thereby removing any functionality that is only available to the owner."
      },
      "transferOwnership(address)": {
        "details": "Transfers ownership of the contract to a new account (`newOwner`). Can only be called by the current owner."
      }
    }
  },
  "userdoc": {
    "methods": {}
  }
}