{
  "contractName": "UpgradeController",
  "abi": [
    {
      "inputs": [
        {
          "internalType": "address",
          "name": "nftx",
          "type": "address"
        },
        {
          "internalType": "address",
          "name": "xController",
          "type": "address"
        }
      ],
      "stateMutability": "nonpayable",
      "type": "constructor"
    },
    {
      "anonymous": false,
      "inputs": [
        {
          "indexed": true,
          "internalType": "address",
          "name": "previousOwner",
          "type": "address"
        },
        {
          "indexed": true,
          "internalType": "address",
          "name": "newOwner",
          "type": "address"
        }
      ],
      "name": "OwnershipTransferred",
      "type": "event"
    },
    {
      "inputs": [
        {
          "internalType": "uint256",
          "name": "",
          "type": "uint256"
        }
      ],
      "name": "addressParam",
      "outputs": [
        {
          "internalType": "address payable",
          "name": "",
          "type": "address"
        }
      ],
      "stateMutability": "view",
      "type": "function"
    },
    {
      "inputs": [
        {
          "internalType": "uint256",
          "name": "fcId",
          "type": "uint256"
        }
      ],
      "name": "cancelFuncCall",
      "outputs": [],
      "stateMutability": "nonpayable",
      "type": "function"
    },
    {
      "inputs": [
        {
          "internalType": "uint256",
          "name": "",
          "type": "uint256"
        }
      ],
      "name": "funcIndex",
      "outputs": [
        {
          "internalType": "uint256",
          "name": "",
          "type": "uint256"
        }
      ],
      "stateMutability": "view",
      "type": "function"
    },
    {
      "inputs": [
        {
          "internalType": "uint256",
          "name": "delayIndex",
          "type": "uint256"
        }
      ],
      "name": "getDelay",
      "outputs": [
        {
          "internalType": "uint256",
          "name": "",
          "type": "uint256"
        }
      ],
      "stateMutability": "view",
      "type": "function"
    },
    {
      "inputs": [],
      "name": "initialize",
      "outputs": [],
      "stateMutability": "nonpayable",
      "type": "function"
    },
    {
      "inputs": [],
      "name": "leadDev",
      "outputs": [
        {
          "internalType": "address",
          "name": "",
          "type": "address"
        }
      ],
      "stateMutability": "view",
      "type": "function"
    },
    {
      "inputs": [],
      "name": "longDelay",
      "outputs": [
        {
          "internalType": "uint256",
          "name": "",
          "type": "uint256"
        }
      ],
      "stateMutability": "view",
      "type": "function"
    },
    {
      "inputs": [],
      "name": "mediumDelay",
      "outputs": [
        {
          "internalType": "uint256",
          "name": "",
          "type": "uint256"
        }
      ],
      "stateMutability": "view",
      "type": "function"
    },
    {
      "inputs": [],
      "name": "owner",
      "outputs": [
        {
          "internalType": "address",
          "name": "",
          "type": "address"
        }
      ],
      "stateMutability": "view",
      "type": "function"
    },
    {
      "inputs": [],
      "name": "renounceOwnership",
      "outputs": [],
      "stateMutability": "nonpayable",
      "type": "function"
    },
    {
      "inputs": [
        {
          "internalType": "address",
          "name": "newLeadDev",
          "type": "address"
        }
      ],
      "name": "setLeadDev",
      "outputs": [],
      "stateMutability": "nonpayable",
      "type": "function"
    },
    {
      "inputs": [],
      "name": "shortDelay",
      "outputs": [
        {
          "internalType": "uint256",
          "name": "",
          "type": "uint256"
        }
      ],
      "stateMutability": "view",
      "type": "function"
    },
    {
      "inputs": [
        {
          "internalType": "uint256",
          "name": "_funcIndex",
          "type": "uint256"
        },
        {
          "internalType": "address payable",
          "name": "_addressParam",
          "type": "address"
        },
        {
          "internalType": "uint256[]",
          "name": "_uintArrayParam",
          "type": "uint256[]"
        }
      ],
      "name": "stageFuncCall",
      "outputs": [],
      "stateMutability": "nonpayable",
      "type": "function"
    },
    {
      "inputs": [
        {
          "internalType": "uint256",
          "name": "",
          "type": "uint256"
        }
      ],
      "name": "time",
      "outputs": [
        {
          "internalType": "uint256",
          "name": "",
          "type": "uint256"
        }
      ],
      "stateMutability": "view",
      "type": "function"
    },
    {
      "inputs": [
        {
          "internalType": "address",
          "name": "newOwner",
          "type": "address"
        }
      ],
      "name": "transferOwnership",
      "outputs": [],
      "stateMutability": "nonpayable",
      "type": "function"
    },
    {
      "inputs": [
        {
          "internalType": "uint256",
          "name": "",
          "type": "uint256"
        },
        {
          "internalType": "uint256",
          "name": "",
          "type": "uint256"
        }
      ],
      "name": "uintArrayParam",
      "outputs": [
        {
          "internalType": "uint256",
          "name": "",
          "type": "uint256"
        }
      ],
      "stateMutability": "view",
      "type": "function"
    },
    {
      "inputs": [
        {
          "internalType": "uint256",
          "name": "fcId",
          "type": "uint256"
        }
      ],
      "name": "executeFuncCall",
      "outputs": [],
      "stateMutability": "nonpayable",
      "type": "function"
    }
  ],
  "bytecode": "0x60806040523480156200001157600080fd5b5060405162001fc838038062001fc8833981810160405260408110156200003757600080fd5b81019080805190602001909291908051906020019092919050505062000067620000f160201b62000f421760201c565b81603d60006101000a81548173ffffffffffffffffffffffffffffffffffffffff021916908373ffffffffffffffffffffffffffffffffffffffff16021790555080603e60006101000a81548173ffffffffffffffffffffffffffffffffffffffff021916908373ffffffffffffffffffffffffffffffffffffffff1602179055505050620003eb565b600060019054906101000a900460ff1680620001195750620001186200020e60201b60201c565b5b806200013157506000809054906101000a900460ff16155b62000188576040517f08c379a000000000000000000000000000000000000000000000000000000000815260040180806020018281038252602e81526020018062001f9a602e913960400191505060405180910390fd5b60008060019054906101000a900460ff161590508015620001d9576001600060016101000a81548160ff02191690831515021790555060016000806101000a81548160ff0219169083151502179055505b620001e96200022560201b60201c565b80156200020b5760008060016101000a81548160ff0219169083151502179055505b50565b6000803090506000813b9050600081149250505090565b600060019054906101000a900460ff16806200024d57506200024c6200020e60201b60201c565b5b806200026557506000809054906101000a900460ff16155b620002bc576040517f08c379a000000000000000000000000000000000000000000000000000000000815260040180806020018281038252602e81526020018062001f9a602e913960400191505060405180910390fd5b60008060019054906101000a900460ff1615905080156200030d576001600060016101000a81548160ff02191690831515021790555060016000806101000a81548160ff0219169083151502179055505b60006200031f620003e360201b60201c565b905080603360006101000a81548173ffffffffffffffffffffffffffffffffffffffff021916908373ffffffffffffffffffffffffffffffffffffffff1602179055508073ffffffffffffffffffffffffffffffffffffffff16600073ffffffffffffffffffffffffffffffffffffffff167f8be0079c531659141344cd1fd0a4f28419497f9722a3daafe3b4186f6b6457e060405160405180910390a3508015620003e05760008060016101000a81548160ff0219169083151502179055505b50565b600033905090565b611b9f80620003fb6000396000f3fe608060405234801561001057600080fd5b506004361061010b5760003560e01c8063715018a6116100a257806393835a481161007157806393835a481461044457806396e35ee514610462578063cc522119146104a4578063de1dddd9146104e6578063f2fde38b146105145761010b565b8063715018a61461039a5780637e87662e146103a45780638129fc1c146103f05780638da5cb5b146103fa5761010b565b806359141f54116100de57806359141f54146102725780635ced7d40146102bc5780636658e5c5146102fe5780637120a0471461036c5761010b565b80632810b7a51461011057806342731364146101f257806349579ae41461021057806358bf564e14610254575b600080fd5b6101f06004803603606081101561012657600080fd5b8101908080359060200190929190803573ffffffffffffffffffffffffffffffffffffffff1690602001909291908035906020019064010000000081111561016d57600080fd5b82018360208201111561017f57600080fd5b803590602001918460208302840111640100000000831117156101a157600080fd5b919080806020026020016040519081016040528093929190818152602001838360200280828437600081840152601f19601f820116905080830192505050505050509192919290505050610558565b005b6101fa6106f5565b6040518082815260200191505060405180910390f35b6102526004803603602081101561022657600080fd5b81019080803573ffffffffffffffffffffffffffffffffffffffff1690602001909291905050506106fb565b005b61025c610809565b6040518082815260200191505060405180910390f35b61027a61080f565b604051808273ffffffffffffffffffffffffffffffffffffffff1673ffffffffffffffffffffffffffffffffffffffff16815260200191505060405180910390f35b6102e8600480360360208110156102d257600080fd5b8101908080359060200190929190505050610835565b6040518082815260200191505060405180910390f35b61032a6004803603602081101561031457600080fd5b810190808035906020019092919050505061084d565b604051808273ffffffffffffffffffffffffffffffffffffffff1673ffffffffffffffffffffffffffffffffffffffff16815260200191505060405180910390f35b6103986004803603602081101561038257600080fd5b8101908080359060200190929190505050610880565b005b6103a2610d89565b005b6103da600480360360408110156103ba57600080fd5b810190808035906020019092919080359060200190929190505050610f14565b6040518082815260200191505060405180910390f35b6103f8610f42565b005b610402611049565b604051808273ffffffffffffffffffffffffffffffffffffffff1673ffffffffffffffffffffffffffffffffffffffff16815260200191505060405180910390f35b61044c611073565b6040518082815260200191505060405180910390f35b61048e6004803603602081101561047857600080fd5b8101908080359060200190929190505050611079565b6040518082815260200191505060405180910390f35b6104d0600480360360208110156104ba57600080fd5b8101908080359060200190929190505050611091565b6040518082815260200191505060405180910390f35b610512600480360360208110156104fc57600080fd5b81019080803590602001909291905050506110d1565b005b6105566004803603602081101561052a57600080fd5b81019080803573ffffffffffffffffffffffffffffffffffffffff1690602001909291905050506111b7565b005b610560611261565b73ffffffffffffffffffffffffffffffffffffffff16603360009054906101000a900473ffffffffffffffffffffffffffffffffffffffff1673ffffffffffffffffffffffffffffffffffffffff1614610622576040517f08c379a00000000000000000000000000000000000000000000000000000000081526004018080602001828103825260208152602001807f4f776e61626c653a2063616c6c6572206973206e6f7420746865206f776e657281525060200191505060405180910390fd5b6000603854905061063f600160385461126990919063ffffffff16565b60388190555042603960008381526020019081526020016000208190555083603a60008381526020019081526020016000208190555082603b600083815260200190815260200160002060006101000a81548173ffffffffffffffffffffffffffffffffffffffff021916908373ffffffffffffffffffffffffffffffffffffffff16021790555081603c600083815260200190815260200160002090805190602001906106ee929190611aa3565b5050505050565b60345481565b610703611261565b73ffffffffffffffffffffffffffffffffffffffff16603360009054906101000a900473ffffffffffffffffffffffffffffffffffffffff1673ffffffffffffffffffffffffffffffffffffffff16146107c5576040517f08c379a00000000000000000000000000000000000000000000000000000000081526004018080602001828103825260208152602001807f4f776e61626c653a2063616c6c6572206973206e6f7420746865206f776e657281525060200191505060405180910390fd5b80603760006101000a81548173ffffffffffffffffffffffffffffffffffffffff021916908373ffffffffffffffffffffffffffffffffffffffff16021790555050565b60365481565b603760009054906101000a900473ffffffffffffffffffffffffffffffffffffffff1681565b60396020528060005260406000206000915090505481565b603b6020528060005260406000206000915054906101000a900473ffffffffffffffffffffffffffffffffffffffff1681565b610888611261565b73ffffffffffffffffffffffffffffffffffffffff16603360009054906101000a900473ffffffffffffffffffffffffffffffffffffffff1673ffffffffffffffffffffffffffffffffffffffff161461094a576040517f08c379a00000000000000000000000000000000000000000000000000000000081526004018080602001828103825260208152602001807f4f776e61626c653a2063616c6c6572206973206e6f7420746865206f776e657281525060200191505060405180910390fd5b610953816112f1565b6003603a6000838152602001908152602001600020541415610a6057603d60009054906101000a900473ffffffffffffffffffffffffffffffffffffffff1673ffffffffffffffffffffffffffffffffffffffff16638f283970603b600084815260200190815260200160002060009054906101000a900473ffffffffffffffffffffffffffffffffffffffff166040518263ffffffff1660e01b8152600401808273ffffffffffffffffffffffffffffffffffffffff1673ffffffffffffffffffffffffffffffffffffffff168152602001915050600060405180830381600087803b158015610a4357600080fd5b505af1158015610a57573d6000803e3d6000fd5b50505050610d86565b6004603a6000838152602001908152602001600020541415610b6d57603d60009054906101000a900473ffffffffffffffffffffffffffffffffffffffff1673ffffffffffffffffffffffffffffffffffffffff16633659cfe6603b600084815260200190815260200160002060009054906101000a900473ffffffffffffffffffffffffffffffffffffffff166040518263ffffffff1660e01b8152600401808273ffffffffffffffffffffffffffffffffffffffff1673ffffffffffffffffffffffffffffffffffffffff168152602001915050600060405180830381600087803b158015610b5057600080fd5b505af1158015610b64573d6000803e3d6000fd5b50505050610d85565b6005603a6000838152602001908152602001600020541415610c7a57603e60009054906101000a900473ffffffffffffffffffffffffffffffffffffffff1673ffffffffffffffffffffffffffffffffffffffff16638f283970603b600084815260200190815260200160002060009054906101000a900473ffffffffffffffffffffffffffffffffffffffff166040518263ffffffff1660e01b8152600401808273ffffffffffffffffffffffffffffffffffffffff1673ffffffffffffffffffffffffffffffffffffffff168152602001915050600060405180830381600087803b158015610c5d57600080fd5b505af1158015610c71573d6000803e3d6000fd5b50505050610d84565b6006603a6000838152602001908152602001600020541415610d8357603e60009054906101000a900473ffffffffffffffffffffffffffffffffffffffff1673ffffffffffffffffffffffffffffffffffffffff16633659cfe6603b600084815260200190815260200160002060009054906101000a900473ffffffffffffffffffffffffffffffffffffffff166040518263ffffffff1660e01b8152600401808273ffffffffffffffffffffffffffffffffffffffff1673ffffffffffffffffffffffffffffffffffffffff168152602001915050600060405180830381600087803b158015610d6a57600080fd5b505af1158015610d7e573d6000803e3d6000fd5b505050505b5b5b5b50565b610d91611261565b73ffffffffffffffffffffffffffffffffffffffff16603360009054906101000a900473ffffffffffffffffffffffffffffffffffffffff1673ffffffffffffffffffffffffffffffffffffffff1614610e53576040517f08c379a00000000000000000000000000000000000000000000000000000000081526004018080602001828103825260208152602001807f4f776e61626c653a2063616c6c6572206973206e6f7420746865206f776e657281525060200191505060405180910390fd5b600073ffffffffffffffffffffffffffffffffffffffff16603360009054906101000a900473ffffffffffffffffffffffffffffffffffffffff1673ffffffffffffffffffffffffffffffffffffffff167f8be0079c531659141344cd1fd0a4f28419497f9722a3daafe3b4186f6b6457e060405160405180910390a36000603360006101000a81548173ffffffffffffffffffffffffffffffffffffffff021916908373ffffffffffffffffffffffffffffffffffffffff160217905550565b603c6020528160005260406000208181548110610f2d57fe5b90600052602060002001600091509150505481565b600060019054906101000a900460ff1680610f615750610f60611625565b5b80610f7857506000809054906101000a900460ff16155b610fcd576040517f08c379a000000000000000000000000000000000000000000000000000000000815260040180806020018281038252602e815260200180611b3c602e913960400191505060405180910390fd5b60008060019054906101000a900460ff16159050801561101d576001600060016101000a81548160ff02191690831515021790555060016000806101000a81548160ff0219169083151502179055505b61102561163c565b80156110465760008060016101000a81548160ff0219169083151502179055505b50565b6000603360009054906101000a900473ffffffffffffffffffffffffffffffffffffffff16905090565b60355481565b603a6020528060005260406000206000915090505481565b6000808214156110a55760345490506110cc565b60018214156110b85760355490506110cc565b60028214156110cb5760365490506110cc565b5b919050565b6110d9611261565b73ffffffffffffffffffffffffffffffffffffffff16603360009054906101000a900473ffffffffffffffffffffffffffffffffffffffff1673ffffffffffffffffffffffffffffffffffffffff161461119b576040517f08c379a00000000000000000000000000000000000000000000000000000000081526004018080602001828103825260208152602001807f4f776e61626c653a2063616c6c6572206973206e6f7420746865206f776e657281525060200191505060405180910390fd5b6000603a60008381526020019081526020016000208190555050565b600060385490506111d4600160385461126990919063ffffffff16565b6038819055504260396000838152602001908152602001600020819055506000603a60008381526020019081526020016000208190555081603b600083815260200190815260200160002060006101000a81548173ffffffffffffffffffffffffffffffffffffffff021916908373ffffffffffffffffffffffffffffffffffffffff1602179055505050565b600033905090565b6000808284019050838110156112e7576040517f08c379a000000000000000000000000000000000000000000000000000000000815260040180806020018281038252601b8152602001807f536166654d6174683a206164646974696f6e206f766572666c6f77000000000081525060200191505060405180910390fd5b8091505092915050565b6000603a600083815260200190815260200160002054141561131257611622565b6001603a60008381526020019081526020016000205414156115a957603c600082815260200190815260200160002060018154811061134d57fe5b9060005260206000200154603c600083815260200190815260200160002060028154811061137757fe5b9060005260206000200154101580156113e25750603c60008281526020019081526020016000206000815481106113aa57fe5b9060005260206000200154603c60008381526020019081526020016000206001815481106113d457fe5b906000526020600020015410155b611454576040517f08c379a000000000000000000000000000000000000000000000000000000000815260040180806020018281038252600e8152602001807f496e76616c69642064656c61797300000000000000000000000000000000000081525060200191505060405180910390fd5b603654603c600083815260200190815260200160002060028154811061147657fe5b9060005260206000200154146114a9576114a4600260396000848152602001908152602001600020546117e4565b61151e565b603554603c60008381526020019081526020016000206001815481106114cb57fe5b9060005260206000200154146114fe576114f9600160396000848152602001908152602001600020546117e4565b61151d565b61151c600060396000848152602001908152602001600020546117e4565b5b5b6115a4603c600083815260200190815260200160002060008154811061154057fe5b9060005260206000200154603c600084815260200190815260200160002060018154811061156a57fe5b9060005260206000200154603c600085815260200190815260200160002060028154811061159457fe5b9060005260206000200154611879565b611621565b6002603a6000838152602001908152602001600020541415611620576115e3600160396000848152602001908152602001600020546117e4565b61161f603b600083815260200190815260200160002060009054906101000a900473ffffffffffffffffffffffffffffffffffffffff16611893565b5b5b5b50565b6000803090506000813b9050600081149250505090565b600060019054906101000a900460ff168061165b575061165a611625565b5b8061167257506000809054906101000a900460ff16155b6116c7576040517f08c379a000000000000000000000000000000000000000000000000000000000815260040180806020018281038252602e815260200180611b3c602e913960400191505060405180910390fd5b60008060019054906101000a900460ff161590508015611717576001600060016101000a81548160ff02191690831515021790555060016000806101000a81548160ff0219169083151502179055505b6000611721611261565b905080603360006101000a81548173ffffffffffffffffffffffffffffffffffffffff021916908373ffffffffffffffffffffffffffffffffffffffff1602179055508073ffffffffffffffffffffffffffffffffffffffff16600073ffffffffffffffffffffffffffffffffffffffff167f8be0079c531659141344cd1fd0a4f28419497f9722a3daafe3b4186f6b6457e060405160405180910390a35080156117e15760008060016101000a81548160ff0219169083151502179055505b50565b6117ff6117f083611091565b8261126990919063ffffffff16565b60011015611875576040517f08c379a000000000000000000000000000000000000000000000000000000000815260040180806020018281038252600e8152602001807f44656c6179206e6f74206f76657200000000000000000000000000000000000081525060200191505060405180910390fd5b5050565b826034819055508160358190555080603681905550505050565b61189b611261565b73ffffffffffffffffffffffffffffffffffffffff16603360009054906101000a900473ffffffffffffffffffffffffffffffffffffffff1673ffffffffffffffffffffffffffffffffffffffff161461195d576040517f08c379a00000000000000000000000000000000000000000000000000000000081526004018080602001828103825260208152602001807f4f776e61626c653a2063616c6c6572206973206e6f7420746865206f776e657281525060200191505060405180910390fd5b600073ffffffffffffffffffffffffffffffffffffffff168173ffffffffffffffffffffffffffffffffffffffff1614156119e3576040517f08c379a0000000000000000000000000000000000000000000000000000000008152600401808060200182810382526026815260200180611b166026913960400191505060405180910390fd5b8073ffffffffffffffffffffffffffffffffffffffff16603360009054906101000a900473ffffffffffffffffffffffffffffffffffffffff1673ffffffffffffffffffffffffffffffffffffffff167f8be0079c531659141344cd1fd0a4f28419497f9722a3daafe3b4186f6b6457e060405160405180910390a380603360006101000a81548173ffffffffffffffffffffffffffffffffffffffff021916908373ffffffffffffffffffffffffffffffffffffffff16021790555050565b828054828255906000526020600020908101928215611adf579160200282015b82811115611ade578251825591602001919060010190611ac3565b5b509050611aec9190611af0565b5090565b611b1291905b80821115611b0e576000816000905550600101611af6565b5090565b9056fe4f776e61626c653a206e6577206f776e657220697320746865207a65726f2061646472657373436f6e747261637420696e7374616e63652068617320616c7265616479206265656e20696e697469616c697a6564a26469706673582212201dd00f75d0e3d89a92eaba2de04d24da77e2225e786adfa827472b74ed79969a64736f6c63430006080033436f6e747261637420696e7374616e63652068617320616c7265616479206265656e20696e697469616c697a6564",
  "immutableReferences": {},
  "source": "// SPDX-License-Identifier: MIT\n\npragma solidity 0.6.8;\n\nimport \"./ITransparentUpgradeableProxy.sol\";\nimport \"./ControllerBase.sol\";\n\ncontract UpgradeController is ControllerBase {\n    using SafeMath for uint256;\n\n    \n    ITransparentUpgradeableProxy private nftxProxy;\n    ITransparentUpgradeableProxy private xControllerProxy;\n\n    constructor(address nftx, address xController) public {\n        ControllerBase.initialize();\n        nftxProxy = ITransparentUpgradeableProxy(nftx);\n        xControllerProxy = ITransparentUpgradeableProxy(xController);\n    }\n\n    function executeFuncCall(uint256 fcId) public override onlyOwner {\n        super.executeFuncCall(fcId);\n        if (funcIndex[fcId] == 3) {\n            nftxProxy.changeAdmin(addressParam[fcId]);\n        } else if (funcIndex[fcId] == 4) {\n            nftxProxy.upgradeTo(addressParam[fcId]);\n        } else if (funcIndex[fcId] == 5) {\n            xControllerProxy.changeAdmin(addressParam[fcId]);\n        } else if (funcIndex[fcId] == 6) {\n            xControllerProxy.upgradeTo(addressParam[fcId]);\n        }\n    }\n\n}\n",
  "sourcePath": "/Applications/MAMP/htdocs/nftx-graph/contracts/UpgradeController.sol",
  "compiler": {
    "name": "solc",
    "version": "0.6.8+commit.0bbfe453.Emscripten.clang"
  },
  "schemaVersion": "3.3.4",
  "updatedAt": "2021-02-23T14:33:02.236Z",
  "devdoc": {
    "methods": {
      "owner()": {
        "details": "Returns the address of the current owner."
      },
      "renounceOwnership()": {
        "details": "Leaves the contract without owner. It will not be possible to call `onlyOwner` functions anymore. Can only be called by the current owner.     * NOTE: Renouncing ownership will leave the contract without an owner, thereby removing any functionality that is only available to the owner."
      }
    }
  },
  "userdoc": {
    "methods": {}
  }
}