{
  "contractName": "XController",
  "abi": [
    {
      "anonymous": false,
      "inputs": [
        {
          "indexed": true,
          "internalType": "address",
          "name": "previousOwner",
          "type": "address"
        },
        {
          "indexed": true,
          "internalType": "address",
          "name": "newOwner",
          "type": "address"
        }
      ],
      "name": "OwnershipTransferred",
      "type": "event"
    },
    {
      "inputs": [
        {
          "internalType": "uint256",
          "name": "",
          "type": "uint256"
        }
      ],
      "name": "addressParam",
      "outputs": [
        {
          "internalType": "address payable",
          "name": "",
          "type": "address"
        }
      ],
      "stateMutability": "view",
      "type": "function"
    },
    {
      "inputs": [
        {
          "internalType": "uint256",
          "name": "",
          "type": "uint256"
        }
      ],
      "name": "boolParam",
      "outputs": [
        {
          "internalType": "bool",
          "name": "",
          "type": "bool"
        }
      ],
      "stateMutability": "view",
      "type": "function"
    },
    {
      "inputs": [
        {
          "internalType": "uint256",
          "name": "",
          "type": "uint256"
        }
      ],
      "name": "funcIndex",
      "outputs": [
        {
          "internalType": "uint256",
          "name": "",
          "type": "uint256"
        }
      ],
      "stateMutability": "view",
      "type": "function"
    },
    {
      "inputs": [
        {
          "internalType": "uint256",
          "name": "delayIndex",
          "type": "uint256"
        }
      ],
      "name": "getDelay",
      "outputs": [
        {
          "internalType": "uint256",
          "name": "",
          "type": "uint256"
        }
      ],
      "stateMutability": "view",
      "type": "function"
    },
    {
      "inputs": [],
      "name": "initialize",
      "outputs": [],
      "stateMutability": "nonpayable",
      "type": "function"
    },
    {
      "inputs": [],
      "name": "leadDev",
      "outputs": [
        {
          "internalType": "address",
          "name": "",
          "type": "address"
        }
      ],
      "stateMutability": "view",
      "type": "function"
    },
    {
      "inputs": [],
      "name": "longDelay",
      "outputs": [
        {
          "internalType": "uint256",
          "name": "",
          "type": "uint256"
        }
      ],
      "stateMutability": "view",
      "type": "function"
    },
    {
      "inputs": [],
      "name": "mediumDelay",
      "outputs": [
        {
          "internalType": "uint256",
          "name": "",
          "type": "uint256"
        }
      ],
      "stateMutability": "view",
      "type": "function"
    },
    {
      "inputs": [],
      "name": "owner",
      "outputs": [
        {
          "internalType": "address",
          "name": "",
          "type": "address"
        }
      ],
      "stateMutability": "view",
      "type": "function"
    },
    {
      "inputs": [
        {
          "internalType": "uint256",
          "name": "",
          "type": "uint256"
        }
      ],
      "name": "pendingEligAdditions",
      "outputs": [
        {
          "internalType": "uint256",
          "name": "",
          "type": "uint256"
        }
      ],
      "stateMutability": "view",
      "type": "function"
    },
    {
      "inputs": [],
      "name": "renounceOwnership",
      "outputs": [],
      "stateMutability": "nonpayable",
      "type": "function"
    },
    {
      "inputs": [
        {
          "internalType": "address",
          "name": "newLeadDev",
          "type": "address"
        }
      ],
      "name": "setLeadDev",
      "outputs": [],
      "stateMutability": "nonpayable",
      "type": "function"
    },
    {
      "inputs": [],
      "name": "shortDelay",
      "outputs": [
        {
          "internalType": "uint256",
          "name": "",
          "type": "uint256"
        }
      ],
      "stateMutability": "view",
      "type": "function"
    },
    {
      "inputs": [
        {
          "internalType": "uint256",
          "name": "",
          "type": "uint256"
        }
      ],
      "name": "stringParam",
      "outputs": [
        {
          "internalType": "string",
          "name": "",
          "type": "string"
        }
      ],
      "stateMutability": "view",
      "type": "function"
    },
    {
      "inputs": [
        {
          "internalType": "uint256",
          "name": "",
          "type": "uint256"
        }
      ],
      "name": "time",
      "outputs": [
        {
          "internalType": "uint256",
          "name": "",
          "type": "uint256"
        }
      ],
      "stateMutability": "view",
      "type": "function"
    },
    {
      "inputs": [
        {
          "internalType": "address",
          "name": "newOwner",
          "type": "address"
        }
      ],
      "name": "transferOwnership",
      "outputs": [],
      "stateMutability": "nonpayable",
      "type": "function"
    },
    {
      "inputs": [
        {
          "internalType": "uint256",
          "name": "",
          "type": "uint256"
        },
        {
          "internalType": "uint256",
          "name": "",
          "type": "uint256"
        }
      ],
      "name": "uintArrayParam",
      "outputs": [
        {
          "internalType": "uint256",
          "name": "",
          "type": "uint256"
        }
      ],
      "stateMutability": "view",
      "type": "function"
    },
    {
      "inputs": [
        {
          "internalType": "uint256",
          "name": "",
          "type": "uint256"
        }
      ],
      "name": "uintParam",
      "outputs": [
        {
          "internalType": "uint256",
          "name": "",
          "type": "uint256"
        }
      ],
      "stateMutability": "view",
      "type": "function"
    },
    {
      "inputs": [
        {
          "internalType": "address",
          "name": "nftxAddress",
          "type": "address"
        }
      ],
      "name": "initXController",
      "outputs": [],
      "stateMutability": "nonpayable",
      "type": "function"
    },
    {
      "inputs": [
        {
          "internalType": "uint256",
          "name": "funcIndex",
          "type": "uint256"
        }
      ],
      "name": "onlyOwnerOrLeadDev",
      "outputs": [],
      "stateMutability": "view",
      "type": "function"
    },
    {
      "inputs": [
        {
          "internalType": "uint256",
          "name": "_funcIndex",
          "type": "uint256"
        },
        {
          "internalType": "address payable",
          "name": "_addressParam",
          "type": "address"
        },
        {
          "internalType": "uint256[]",
          "name": "_uintArrayParam",
          "type": "uint256[]"
        }
      ],
      "name": "stageFuncCall",
      "outputs": [],
      "stateMutability": "nonpayable",
      "type": "function"
    },
    {
      "inputs": [
        {
          "internalType": "uint256",
          "name": "_funcIndex",
          "type": "uint256"
        },
        {
          "internalType": "address payable",
          "name": "_addressParam",
          "type": "address"
        },
        {
          "internalType": "uint256",
          "name": "_uintParam",
          "type": "uint256"
        },
        {
          "internalType": "string",
          "name": "_stringParam",
          "type": "string"
        },
        {
          "internalType": "uint256[]",
          "name": "_uintArrayParam",
          "type": "uint256[]"
        },
        {
          "internalType": "bool",
          "name": "_boolParam",
          "type": "bool"
        }
      ],
      "name": "stageFuncCall",
      "outputs": [],
      "stateMutability": "nonpayable",
      "type": "function"
    },
    {
      "inputs": [
        {
          "internalType": "uint256",
          "name": "fcId",
          "type": "uint256"
        }
      ],
      "name": "cancelFuncCall",
      "outputs": [],
      "stateMutability": "nonpayable",
      "type": "function"
    },
    {
      "inputs": [
        {
          "internalType": "uint256",
          "name": "fcId",
          "type": "uint256"
        }
      ],
      "name": "executeFuncCall",
      "outputs": [],
      "stateMutability": "nonpayable",
      "type": "function"
    }
  ],
  "bytecode": "0x608060405234801561001057600080fd5b50613b88806100206000396000f3fe608060405234801561001057600080fd5b50600436106101585760003560e01c80637120a047116100c357806393835a481161007c57806393835a481461075c57806396e35ee51461077a578063cc522119146107bc578063de1dddd9146107fe578063ee4547a81461082c578063f2fde38b146108d357610158565b80637120a0471461063e578063715018a61461066c5780637e87662e146106765780638129fc1c146106c2578063881a4b1e146106cc5780638da5cb5b1461071257610158565b806349579ae41161011557806349579ae4146104a05780634aea8b14146104e457806358bf564e1461052657806359141f54146105445780635ced7d401461058e5780636658e5c5146105d057610158565b80630ef19b0e1461015d578063110203441461018b5780632535b99b146101cd5780632810b7a51461021157806342731364146102f357806345deeafb14610311575b600080fd5b6101896004803603602081101561017357600080fd5b8101908080359060200190929190505050610917565b005b6101b7600480360360208110156101a157600080fd5b8101908080359060200190929190505050610ae6565b6040518082815260200191505060405180910390f35b61020f600480360360208110156101e357600080fd5b81019080803573ffffffffffffffffffffffffffffffffffffffff169060200190929190505050610afe565b005b6102f16004803603606081101561022757600080fd5b8101908080359060200190929190803573ffffffffffffffffffffffffffffffffffffffff1690602001909291908035906020019064010000000081111561026e57600080fd5b82018360208201111561028057600080fd5b803590602001918460208302840111640100000000831117156102a257600080fd5b919080806020026020016040519081016040528093929190818152602001838360200280828437600081840152601f19601f820116905080830192505050505050509192919290505050610c47565b005b6102fb610de4565b6040518082815260200191505060405180910390f35b61049e600480360360c081101561032757600080fd5b8101908080359060200190929190803573ffffffffffffffffffffffffffffffffffffffff169060200190929190803590602001909291908035906020019064010000000081111561037857600080fd5b82018360208201111561038a57600080fd5b803590602001918460018302840111640100000000831117156103ac57600080fd5b91908080601f016020809104026020016040519081016040528093929190818152602001838380828437600081840152601f19601f8201169050808301925050505050505091929192908035906020019064010000000081111561040f57600080fd5b82018360208201111561042157600080fd5b8035906020019184602083028401116401000000008311171561044357600080fd5b919080806020026020016040519081016040528093929190818152602001838360200280828437600081840152601f19601f820116905080830192505050505050509192919290803515159060200190929190505050610dea565b005b6104e2600480360360208110156104b657600080fd5b81019080803573ffffffffffffffffffffffffffffffffffffffff1690602001909291905050506110bc565b005b610510600480360360208110156104fa57600080fd5b81019080803590602001909291905050506111ca565b6040518082815260200191505060405180910390f35b61052e6111e2565b6040518082815260200191505060405180910390f35b61054c6111e8565b604051808273ffffffffffffffffffffffffffffffffffffffff1673ffffffffffffffffffffffffffffffffffffffff16815260200191505060405180910390f35b6105ba600480360360208110156105a457600080fd5b810190808035906020019092919050505061120e565b6040518082815260200191505060405180910390f35b6105fc600480360360208110156105e657600080fd5b8101908080359060200190929190505050611226565b604051808273ffffffffffffffffffffffffffffffffffffffff1673ffffffffffffffffffffffffffffffffffffffff16815260200191505060405180910390f35b61066a6004803603602081101561065457600080fd5b8101908080359060200190929190505050611259565b005b6106746127fe565b005b6106ac6004803603604081101561068c57600080fd5b810190808035906020019092919080359060200190929190505050612989565b6040518082815260200191505060405180910390f35b6106ca6129b7565b005b6106f8600480360360208110156106e257600080fd5b8101908080359060200190929190505050612abe565b604051808215151515815260200191505060405180910390f35b61071a612ade565b604051808273ffffffffffffffffffffffffffffffffffffffff1673ffffffffffffffffffffffffffffffffffffffff16815260200191505060405180910390f35b610764612b08565b6040518082815260200191505060405180910390f35b6107a66004803603602081101561079057600080fd5b8101908080359060200190929190505050612b0e565b6040518082815260200191505060405180910390f35b6107e8600480360360208110156107d257600080fd5b8101908080359060200190929190505050612b26565b6040518082815260200191505060405180910390f35b61082a6004803603602081101561081457600080fd5b8101908080359060200190929190505050612b66565b005b6108586004803603602081101561084257600080fd5b8101908080359060200190929190505050612daf565b6040518080602001828103825283818151815260200191508051906020019080838360005b8381101561089857808201518184015260208101905061087d565b50505050905090810190601f1680156108c55780820380516001836020036101000a031916815260200191505b509250505060405180910390f35b610915600480360360208110156108e957600080fd5b81019080803573ffffffffffffffffffffffffffffffffffffffff169060200190929190505050612e5f565b005b6003811115610a3357603760009054906101000a900473ffffffffffffffffffffffffffffffffffffffff1673ffffffffffffffffffffffffffffffffffffffff16610961612f09565b73ffffffffffffffffffffffffffffffffffffffff1614806109bc5750610986612ade565b73ffffffffffffffffffffffffffffffffffffffff166109a4612f09565b73ffffffffffffffffffffffffffffffffffffffff16145b610a2e576040517f08c379a00000000000000000000000000000000000000000000000000000000081526004018080602001828103825260148152602001807f4e6f74206f776e6572206f72206c65616444657600000000000000000000000081525060200191505060405180910390fd5b610ae3565b610a3b612ade565b73ffffffffffffffffffffffffffffffffffffffff16610a59612f09565b73ffffffffffffffffffffffffffffffffffffffff1614610ae2576040517f08c379a00000000000000000000000000000000000000000000000000000000081526004018080602001828103825260098152602001807f4e6f74206f776e6572000000000000000000000000000000000000000000000081525060200191505060405180910390fd5b5b50565b60426020528060005260406000206000915090505481565b600060019054906101000a900460ff1680610b1d5750610b1c612f11565b5b80610b3457506000809054906101000a900460ff16155b610b89576040517f08c379a000000000000000000000000000000000000000000000000000000000815260040180806020018281038252602e815260200180613b25602e913960400191505060405180910390fd5b60008060019054906101000a900460ff161590508015610bd9576001600060016101000a81548160ff02191690831515021790555060016000806101000a81548160ff0219169083151502179055505b610be1612f28565b81603d60006101000a81548173ffffffffffffffffffffffffffffffffffffffff021916908373ffffffffffffffffffffffffffffffffffffffff1602179055508015610c435760008060016101000a81548160ff0219169083151502179055505b5050565b610c4f612f09565b73ffffffffffffffffffffffffffffffffffffffff16603360009054906101000a900473ffffffffffffffffffffffffffffffffffffffff1673ffffffffffffffffffffffffffffffffffffffff1614610d11576040517f08c379a00000000000000000000000000000000000000000000000000000000081526004018080602001828103825260208152602001807f4f776e61626c653a2063616c6c6572206973206e6f7420746865206f776e657281525060200191505060405180910390fd5b60006038549050610d2e60016038546130d090919063ffffffff16565b60388190555042603960008381526020019081526020016000208190555083603a60008381526020019081526020016000208190555082603b600083815260200190815260200160002060006101000a81548173ffffffffffffffffffffffffffffffffffffffff021916908373ffffffffffffffffffffffffffffffffffffffff16021790555081603c60008381526020019081526020016000209080519060200190610ddd9291906139eb565b5050505050565b60345481565b610df386610917565b60006038549050610e1060016038546130d090919063ffffffff16565b6038819055506001603960008381526020019081526020016000208190555086603a60008381526020019081526020016000208190555085603b600083815260200190815260200160002060006101000a81548173ffffffffffffffffffffffffffffffffffffffff021916908373ffffffffffffffffffffffffffffffffffffffff16021790555084603f60008381526020019081526020016000208190555083604060008381526020019081526020016000209080519060200190610ed8929190613a38565b5082603c60008381526020019081526020016000209080519060200190610f009291906139eb565b50816041600083815260200190815260200160002060006101000a81548160ff0219169083151502179055506004603a60008381526020019081526020016000205414801561103457506041600082815260200190815260200160002060009054906101000a900460ff16151515603e60009054906101000a900473ffffffffffffffffffffffffffffffffffffffff1673ffffffffffffffffffffffffffffffffffffffff1663ec475a1f603f6000858152602001908152602001600020546040518263ffffffff1660e01b81526004018082815260200191505060206040518083038186803b158015610ff457600080fd5b505afa158015611008573d6000803e3d6000fd5b505050506040513d602081101561101e57600080fd5b8101908080519060200190929190505050151514155b156110b357611088603c60008381526020019081526020016000208054905060426000603f6000868152602001908152602001600020548152602001908152602001600020546130d090919063ffffffff16565b60426000603f6000858152602001908152602001600020548152602001908152602001600020819055505b50505050505050565b6110c4612f09565b73ffffffffffffffffffffffffffffffffffffffff16603360009054906101000a900473ffffffffffffffffffffffffffffffffffffffff1673ffffffffffffffffffffffffffffffffffffffff1614611186576040517f08c379a00000000000000000000000000000000000000000000000000000000081526004018080602001828103825260208152602001807f4f776e61626c653a2063616c6c6572206973206e6f7420746865206f776e657281525060200191505060405180910390fd5b80603760006101000a81548173ffffffffffffffffffffffffffffffffffffffff021916908373ffffffffffffffffffffffffffffffffffffffff16021790555050565b603f6020528060005260406000206000915090505481565b60365481565b603760009054906101000a900473ffffffffffffffffffffffffffffffffffffffff1681565b60396020528060005260406000206000915090505481565b603b6020528060005260406000206000915054906101000a900473ffffffffffffffffffffffffffffffffffffffff1681565b61126281613158565b6003603a600083815260200190815260200160002054141561138d5761129c6002603960008481526020019081526020016000205461348c565b603d60009054906101000a900473ffffffffffffffffffffffffffffffffffffffff1673ffffffffffffffffffffffffffffffffffffffff1663f2fde38b603b600084815260200190815260200160002060009054906101000a900473ffffffffffffffffffffffffffffffffffffffff166040518263ffffffff1660e01b8152600401808273ffffffffffffffffffffffffffffffffffffffff1673ffffffffffffffffffffffffffffffffffffffff168152602001915050600060405180830381600087803b15801561137057600080fd5b505af1158015611384573d6000803e3d6000fd5b505050506127fb565b6004603a60008381526020019081526020016000205414156116d45760006114b7603d60009054906101000a900473ffffffffffffffffffffffffffffffffffffffff1673ffffffffffffffffffffffffffffffffffffffff166331f669d5603f6000868152602001908152602001600020546040518263ffffffff1660e01b81526004018082815260200191505060206040518083038186803b15801561143457600080fd5b505afa158015611448573d6000803e3d6000fd5b505050506040513d602081101561145e57600080fd5b81019080805190602001909291905050506114a9606460426000603f60008981526020019081526020016000205481526020019081526020016000205461352190919063ffffffff16565b6135a790919063ffffffff16565b9050600a8111156114e5576114e06002603960008581526020019081526020016000205461348c565b611531565b60018111156115115761150c6001603960008581526020019081526020016000205461348c565b611530565b61152f6000603960008581526020019081526020016000205461348c565b5b5b603d60009054906101000a900473ffffffffffffffffffffffffffffffffffffffff1673ffffffffffffffffffffffffffffffffffffffff1663a4ebfede603f600085815260200190815260200160002054603c60008681526020019081526020016000206041600087815260200190815260200160002060009054906101000a900460ff166040518463ffffffff1660e01b8152600401808481526020018060200183151515158152602001828103825284818154815260200191508054801561161b57602002820191906000526020600020905b815481526020019060010190808311611607575b5050945050505050600060405180830381600087803b15801561163d57600080fd5b505af1158015611651573d6000803e3d6000fd5b505050506116a4603c60008481526020019081526020016000208054905060426000603f6000878152602001908152602001600020548152602001908152602001600020546135f190919063ffffffff16565b60426000603f600086815260200190815260200160002054815260200190815260200160002081905550506127fa565b6005603a60008381526020019081526020016000205414156117df5761170e6000603960008481526020019081526020016000205461348c565b603d60009054906101000a900473ffffffffffffffffffffffffffffffffffffffff1673ffffffffffffffffffffffffffffffffffffffff16632ad5f0a1603a6000848152602001908152602001600020546041600085815260200190815260200160002060009054906101000a900460ff166040518363ffffffff1660e01b8152600401808381526020018215151515815260200192505050600060405180830381600087803b1580156117c257600080fd5b505af11580156117d6573d6000803e3d6000fd5b505050506127f9565b6006603a6000838152602001908152602001600020541415611942576118196000603960008481526020019081526020016000205461348c565b603d60009054906101000a900473ffffffffffffffffffffffffffffffffffffffff1673ffffffffffffffffffffffffffffffffffffffff1663927c222e603f600084815260200190815260200160002054603c60008581526020019081526020016000206041600086815260200190815260200160002060009054906101000a900460ff166040518463ffffffff1660e01b8152600401808481526020018060200183151515158152602001828103825284818154815260200191508054801561190357602002820191906000526020600020905b8154815260200190600101908083116118ef575b5050945050505050600060405180830381600087803b15801561192557600080fd5b505af1158015611939573d6000803e3d6000fd5b505050506127f8565b6007603a6000838152602001908152602001600020541415611aa55761197c6000603960008481526020019081526020016000205461348c565b603d60009054906101000a900473ffffffffffffffffffffffffffffffffffffffff1673ffffffffffffffffffffffffffffffffffffffff16631036d549603f600084815260200190815260200160002054603c60008581526020019081526020016000206041600086815260200190815260200160002060009054906101000a900460ff166040518463ffffffff1660e01b81526004018084815260200180602001831515151581526020018281038252848181548152602001915080548015611a6657602002820191906000526020600020905b815481526020019060010190808311611a52575b5050945050505050600060405180830381600087803b158015611a8857600080fd5b505af1158015611a9c573d6000803e3d6000fd5b505050506127f7565b6008603a6000838152602001908152602001600020541415611c2057611adf6001603960008481526020019081526020016000205461348c565b603d60009054906101000a900473ffffffffffffffffffffffffffffffffffffffff1673ffffffffffffffffffffffffffffffffffffffff1663f84b40dc603f600084815260200190815260200160002054604060008581526020019081526020016000206040518363ffffffff1660e01b81526004018083815260200180602001828103825283818154600181600116156101000203166002900481526020019150805460018160011615610100020316600290048015611be25780601f10611bb757610100808354040283529160200191611be2565b820191906000526020600020905b815481529060010190602001808311611bc557829003601f168201915b50509350505050600060405180830381600087803b158015611c0357600080fd5b505af1158015611c17573d6000803e3d6000fd5b505050506127f6565b6009603a6000838152602001908152602001600020541415611d9b57611c5a6001603960008481526020019081526020016000205461348c565b603d60009054906101000a900473ffffffffffffffffffffffffffffffffffffffff1673ffffffffffffffffffffffffffffffffffffffff166341c11666603f600084815260200190815260200160002054604060008581526020019081526020016000206040518363ffffffff1660e01b81526004018083815260200180602001828103825283818154600181600116156101000203166002900481526020019150805460018160011615610100020316600290048015611d5d5780601f10611d3257610100808354040283529160200191611d5d565b820191906000526020600020905b815481529060010190602001808311611d4057829003601f168201915b50509350505050600060405180830381600087803b158015611d7e57600080fd5b505af1158015611d92573d6000803e3d6000fd5b505050506127f5565b600a603a6000838152602001908152602001600020541415611e7a57611dd56000603960008481526020019081526020016000205461348c565b603d60009054906101000a900473ffffffffffffffffffffffffffffffffffffffff1673ffffffffffffffffffffffffffffffffffffffff1663360c3288603f6000848152602001908152602001600020546040518263ffffffff1660e01b815260040180828152602001915050600060405180830381600087803b158015611e5d57600080fd5b505af1158015611e71573d6000803e3d6000fd5b505050506127f4565b600b603a6000838152602001908152602001600020541415611fd157611eb46000603960008481526020019081526020016000205461348c565b603d60009054906101000a900473ffffffffffffffffffffffffffffffffffffffff1673ffffffffffffffffffffffffffffffffffffffff1663685c6d81603c6000848152602001908152602001600020600081548110611f1157fe5b9060005260206000200154603c6000858152602001908152602001600020600181548110611f3b57fe5b9060005260206000200154603c6000868152602001908152602001600020600281548110611f6557fe5b90600052602060002001546040518463ffffffff1660e01b8152600401808481526020018381526020018281526020019350505050600060405180830381600087803b158015611fb457600080fd5b505af1158015611fc8573d6000803e3d6000fd5b505050506127f3565b600c603a600083815260200190815260200160002054141561233757600080603e60009054906101000a900473ffffffffffffffffffffffffffffffffffffffff1673ffffffffffffffffffffffffffffffffffffffff16630342a6ba603c600086815260200190815260200160002060008154811061204d57fe5b90600052602060002001546040518263ffffffff1660e01b815260040180828152602001915050604080518083038186803b15801561208b57600080fd5b505afa15801561209f573d6000803e3d6000fd5b505050506040513d60408110156120b557600080fd5b810190808051906020019092919080519060200190929190505050915091506000612125836121176064603c60008981526020019081526020016000206001815481106120fe57fe5b906000526020600020015461352190919063ffffffff16565b6135a790919063ffffffff16565b905060006121788361216a6064603c60008a815260200190815260200160002060028154811061215157fe5b906000526020600020015461352190919063ffffffff16565b6135a790919063ffffffff16565b9050600f61218f82846130d090919063ffffffff16565b11156121b8576121b36002603960008881526020019081526020016000205461348c565b612216565b60056121cd82846130d090919063ffffffff16565b11156121f6576121f16001603960008881526020019081526020016000205461348c565b612215565b6122146000603960008881526020019081526020016000205461348c565b5b5b603d60009054906101000a900473ffffffffffffffffffffffffffffffffffffffff1673ffffffffffffffffffffffffffffffffffffffff16630e4e411c603c600088815260200190815260200160002060008154811061227357fe5b9060005260206000200154603c600089815260200190815260200160002060018154811061229d57fe5b9060005260206000200154603c60008a81526020019081526020016000206002815481106122c757fe5b90600052602060002001546040518463ffffffff1660e01b8152600401808481526020018381526020018281526020019350505050600060405180830381600087803b15801561231657600080fd5b505af115801561232a573d6000803e3d6000fd5b50505050505050506127f2565b600d603a600083815260200190815260200160002054141561248e576123716000603960008481526020019081526020016000205461348c565b603d60009054906101000a900473ffffffffffffffffffffffffffffffffffffffff1673ffffffffffffffffffffffffffffffffffffffff16639078d535603c60008481526020019081526020016000206000815481106123ce57fe5b9060005260206000200154603c60008581526020019081526020016000206001815481106123f857fe5b9060005260206000200154603c600086815260200190815260200160002060028154811061242257fe5b90600052602060002001546040518463ffffffff1660e01b8152600401808481526020018381526020018281526020019350505050600060405180830381600087803b15801561247157600080fd5b505af1158015612485573d6000803e3d6000fd5b505050506127f1565b600e603a60008381526020019081526020016000205414156127f057600080603e60009054906101000a900473ffffffffffffffffffffffffffffffffffffffff1673ffffffffffffffffffffffffffffffffffffffff1663198e4788603c600086815260200190815260200160002060008154811061250a57fe5b90600052602060002001546040518263ffffffff1660e01b815260040180828152602001915050604080518083038186803b15801561254857600080fd5b505afa15801561255c573d6000803e3d6000fd5b505050506040513d604081101561257257600080fd5b8101908080519060200190929190805190602001909291905050509150915060006125e2836125d46064603c60008981526020019081526020016000206001815481106125bb57fe5b906000526020600020015461352190919063ffffffff16565b6135a790919063ffffffff16565b90506000612635836126276064603c60008a815260200190815260200160002060028154811061260e57fe5b906000526020600020015461352190919063ffffffff16565b6135a790919063ffffffff16565b9050601461264c82846130d090919063ffffffff16565b1115612675576126706002603960008881526020019081526020016000205461348c565b6126d3565b600561268a82846130d090919063ffffffff16565b11156126b3576126ae6001603960008881526020019081526020016000205461348c565b6126d2565b6126d16000603960008881526020019081526020016000205461348c565b5b5b603d60009054906101000a900473ffffffffffffffffffffffffffffffffffffffff1673ffffffffffffffffffffffffffffffffffffffff166341263725603c600088815260200190815260200160002060008154811061273057fe5b9060005260206000200154603c600089815260200190815260200160002060018154811061275a57fe5b9060005260206000200154603c60008a815260200190815260200160002060028154811061278457fe5b90600052602060002001546040518463ffffffff1660e01b8152600401808481526020018381526020018281526020019350505050600060405180830381600087803b1580156127d357600080fd5b505af11580156127e7573d6000803e3d6000fd5b50505050505050505b5b5b5b5b5b5b5b5b5b5b5b50565b612806612f09565b73ffffffffffffffffffffffffffffffffffffffff16603360009054906101000a900473ffffffffffffffffffffffffffffffffffffffff1673ffffffffffffffffffffffffffffffffffffffff16146128c8576040517f08c379a00000000000000000000000000000000000000000000000000000000081526004018080602001828103825260208152602001807f4f776e61626c653a2063616c6c6572206973206e6f7420746865206f776e657281525060200191505060405180910390fd5b600073ffffffffffffffffffffffffffffffffffffffff16603360009054906101000a900473ffffffffffffffffffffffffffffffffffffffff1673ffffffffffffffffffffffffffffffffffffffff167f8be0079c531659141344cd1fd0a4f28419497f9722a3daafe3b4186f6b6457e060405160405180910390a36000603360006101000a81548173ffffffffffffffffffffffffffffffffffffffff021916908373ffffffffffffffffffffffffffffffffffffffff160217905550565b603c60205281600052604060002081815481106129a257fe5b90600052602060002001600091509150505481565b600060019054906101000a900460ff16806129d657506129d5612f11565b5b806129ed57506000809054906101000a900460ff16155b612a42576040517f08c379a000000000000000000000000000000000000000000000000000000000815260040180806020018281038252602e815260200180613b25602e913960400191505060405180910390fd5b60008060019054906101000a900460ff161590508015612a92576001600060016101000a81548160ff02191690831515021790555060016000806101000a81548160ff0219169083151502179055505b612a9a612f28565b8015612abb5760008060016101000a81548160ff0219169083151502179055505b50565b60416020528060005260406000206000915054906101000a900460ff1681565b6000603360009054906101000a900473ffffffffffffffffffffffffffffffffffffffff16905090565b60355481565b603a6020528060005260406000206000915090505481565b600080821415612b3a576034549050612b61565b6001821415612b4d576035549050612b61565b6002821415612b60576036549050612b61565b5b919050565b612b82603a600083815260200190815260200160002054610917565b6000603a6000838152602001908152602001600020541415612c0c576040517f08c379a00000000000000000000000000000000000000000000000000000000081526004018080602001828103825260118152602001807f416c72656164792063616e63656c6c656400000000000000000000000000000081525060200191505060405180910390fd5b6000603a6000838152602001908152602001600020819055506003603a600083815260200190815260200160002054148015612d2d57506041600082815260200190815260200160002060009054906101000a900460ff16151515603e60009054906101000a900473ffffffffffffffffffffffffffffffffffffffff1673ffffffffffffffffffffffffffffffffffffffff1663ec475a1f603f6000858152602001908152602001600020546040518263ffffffff1660e01b81526004018082815260200191505060206040518083038186803b158015612ced57600080fd5b505afa158015612d01573d6000803e3d6000fd5b505050506040513d6020811015612d1757600080fd5b8101908080519060200190929190505050151514155b15612dac57612d81603c60008381526020019081526020016000208054905060426000603f6000868152602001908152602001600020548152602001908152602001600020546135f190919063ffffffff16565b60426000603f6000858152602001908152602001600020548152602001908152602001600020819055505b50565b60406020528060005260406000206000915090508054600181600116156101000203166002900480601f016020809104026020016040519081016040528092919081815260200182805460018160011615610100020316600290048015612e575780601f10612e2c57610100808354040283529160200191612e57565b820191906000526020600020905b815481529060010190602001808311612e3a57829003601f168201915b505050505081565b60006038549050612e7c60016038546130d090919063ffffffff16565b6038819055504260396000838152602001908152602001600020819055506000603a60008381526020019081526020016000208190555081603b600083815260200190815260200160002060006101000a81548173ffffffffffffffffffffffffffffffffffffffff021916908373ffffffffffffffffffffffffffffffffffffffff1602179055505050565b600033905090565b6000803090506000813b9050600081149250505090565b600060019054906101000a900460ff1680612f475750612f46612f11565b5b80612f5e57506000809054906101000a900460ff16155b612fb3576040517f08c379a000000000000000000000000000000000000000000000000000000000815260040180806020018281038252602e815260200180613b25602e913960400191505060405180910390fd5b60008060019054906101000a900460ff161590508015613003576001600060016101000a81548160ff02191690831515021790555060016000806101000a81548160ff0219169083151502179055505b600061300d612f09565b905080603360006101000a81548173ffffffffffffffffffffffffffffffffffffffff021916908373ffffffffffffffffffffffffffffffffffffffff1602179055508073ffffffffffffffffffffffffffffffffffffffff16600073ffffffffffffffffffffffffffffffffffffffff167f8be0079c531659141344cd1fd0a4f28419497f9722a3daafe3b4186f6b6457e060405160405180910390a35080156130cd5760008060016101000a81548160ff0219169083151502179055505b50565b60008082840190508381101561314e576040517f08c379a000000000000000000000000000000000000000000000000000000000815260040180806020018281038252601b8152602001807f536166654d6174683a206164646974696f6e206f766572666c6f77000000000081525060200191505060405180910390fd5b8091505092915050565b6000603a600083815260200190815260200160002054141561317957613489565b6001603a600083815260200190815260200160002054141561341057603c60008281526020019081526020016000206001815481106131b457fe5b9060005260206000200154603c60008381526020019081526020016000206002815481106131de57fe5b9060005260206000200154101580156132495750603c600082815260200190815260200160002060008154811061321157fe5b9060005260206000200154603c600083815260200190815260200160002060018154811061323b57fe5b906000526020600020015410155b6132bb576040517f08c379a000000000000000000000000000000000000000000000000000000000815260040180806020018281038252600e8152602001807f496e76616c69642064656c61797300000000000000000000000000000000000081525060200191505060405180910390fd5b603654603c60008381526020019081526020016000206002815481106132dd57fe5b9060005260206000200154146133105761330b6002603960008481526020019081526020016000205461348c565b613385565b603554603c600083815260200190815260200160002060018154811061333257fe5b906000526020600020015414613365576133606001603960008481526020019081526020016000205461348c565b613384565b6133836000603960008481526020019081526020016000205461348c565b5b5b61340b603c60008381526020019081526020016000206000815481106133a757fe5b9060005260206000200154603c60008481526020019081526020016000206001815481106133d157fe5b9060005260206000200154603c60008581526020019081526020016000206002815481106133fb57fe5b906000526020600020015461363b565b613488565b6002603a60008381526020019081526020016000205414156134875761344a6001603960008481526020019081526020016000205461348c565b613486603b600083815260200190815260200160002060009054906101000a900473ffffffffffffffffffffffffffffffffffffffff16613655565b5b5b5b50565b6134a761349883612b26565b826130d090919063ffffffff16565b6001101561351d576040517f08c379a000000000000000000000000000000000000000000000000000000000815260040180806020018281038252600e8152602001807f44656c6179206e6f74206f76657200000000000000000000000000000000000081525060200191505060405180910390fd5b5050565b60008083141561353457600090506135a1565b600082840290508284828161354557fe5b041461359c576040517f08c379a0000000000000000000000000000000000000000000000000000000008152600401808060200182810382526021815260200180613b046021913960400191505060405180910390fd5b809150505b92915050565b60006135e983836040518060400160405280601a81526020017f536166654d6174683a206469766973696f6e206279207a65726f000000000000815250613865565b905092915050565b600061363383836040518060400160405280601e81526020017f536166654d6174683a207375627472616374696f6e206f766572666c6f77000081525061392b565b905092915050565b826034819055508160358190555080603681905550505050565b61365d612f09565b73ffffffffffffffffffffffffffffffffffffffff16603360009054906101000a900473ffffffffffffffffffffffffffffffffffffffff1673ffffffffffffffffffffffffffffffffffffffff161461371f576040517f08c379a00000000000000000000000000000000000000000000000000000000081526004018080602001828103825260208152602001807f4f776e61626c653a2063616c6c6572206973206e6f7420746865206f776e657281525060200191505060405180910390fd5b600073ffffffffffffffffffffffffffffffffffffffff168173ffffffffffffffffffffffffffffffffffffffff1614156137a5576040517f08c379a0000000000000000000000000000000000000000000000000000000008152600401808060200182810382526026815260200180613ade6026913960400191505060405180910390fd5b8073ffffffffffffffffffffffffffffffffffffffff16603360009054906101000a900473ffffffffffffffffffffffffffffffffffffffff1673ffffffffffffffffffffffffffffffffffffffff167f8be0079c531659141344cd1fd0a4f28419497f9722a3daafe3b4186f6b6457e060405160405180910390a380603360006101000a81548173ffffffffffffffffffffffffffffffffffffffff021916908373ffffffffffffffffffffffffffffffffffffffff16021790555050565b60008083118290613911576040517f08c379a00000000000000000000000000000000000000000000000000000000081526004018080602001828103825283818151815260200191508051906020019080838360005b838110156138d65780820151818401526020810190506138bb565b50505050905090810190601f1680156139035780820380516001836020036101000a031916815260200191505b509250505060405180910390fd5b50600083858161391d57fe5b049050809150509392505050565b60008383111582906139d8576040517f08c379a00000000000000000000000000000000000000000000000000000000081526004018080602001828103825283818151815260200191508051906020019080838360005b8381101561399d578082015181840152602081019050613982565b50505050905090810190601f1680156139ca5780820380516001836020036101000a031916815260200191505b509250505060405180910390fd5b5060008385039050809150509392505050565b828054828255906000526020600020908101928215613a27579160200282015b82811115613a26578251825591602001919060010190613a0b565b5b509050613a349190613ab8565b5090565b828054600181600116156101000203166002900490600052602060002090601f016020900481019282601f10613a7957805160ff1916838001178555613aa7565b82800160010185558215613aa7579182015b82811115613aa6578251825591602001919060010190613a8b565b5b509050613ab49190613ab8565b5090565b613ada91905b80821115613ad6576000816000905550600101613abe565b5090565b9056fe4f776e61626c653a206e6577206f776e657220697320746865207a65726f2061646472657373536166654d6174683a206d756c7469706c69636174696f6e206f766572666c6f77436f6e747261637420696e7374616e63652068617320616c7265616479206265656e20696e697469616c697a6564a2646970667358221220b735775aea8ce24c37a80967953af69c1e4819ba052a08d5bc5ea436ebc72c8f64736f6c63430006080033",
  "immutableReferences": {},
  "source": "// SPDX-License-Identifier: MIT\n\npragma solidity 0.6.8;\n\nimport \"./ControllerBase.sol\";\nimport \"./INFTX.sol\";\nimport \"./IXStore.sol\";\nimport \"./Initializable.sol\";\n\ncontract XController is ControllerBase {\n    INFTX private nftx;\n    IXStore store;\n\n    /* uint256 numFuncCalls;\n\n    mapping(uint256 => uint256) public time;\n    mapping(uint256 => uint256) public funcIndex;\n    mapping(uint256 => address payable) public addressParam;\n    mapping(uint256 => uint256[]) public uintArrayParam; */\n    mapping(uint256 => uint256) public uintParam;\n    mapping(uint256 => string) public stringParam;\n    mapping(uint256 => bool) public boolParam;\n\n    mapping(uint256 => uint256) public pendingEligAdditions;\n\n    function initXController(address nftxAddress) public initializer {\n        initOwnable();\n        nftx = INFTX(nftxAddress);\n    }\n\n    function onlyOwnerOrLeadDev(uint256 funcIndex) public view virtual {\n        if (funcIndex > 3) {\n            require(\n                _msgSender() == leadDev || _msgSender() == owner(),\n                \"Not owner or leadDev\"\n            );\n        } else {\n            require(_msgSender() == owner(), \"Not owner\");\n        }\n    }\n\n    function stageFuncCall(\n        uint256 _funcIndex,\n        address payable _addressParam,\n        uint256 _uintParam,\n        string memory _stringParam,\n        uint256[] memory _uintArrayParam,\n        bool _boolParam\n    ) public virtual {\n        onlyOwnerOrLeadDev(_funcIndex);\n        uint256 fcId = numFuncCalls;\n        numFuncCalls = numFuncCalls.add(1);\n        time[fcId] = 1;\n        funcIndex[fcId] = _funcIndex;\n        addressParam[fcId] = _addressParam;\n        uintParam[fcId] = _uintParam;\n        stringParam[fcId] = _stringParam;\n        uintArrayParam[fcId] = _uintArrayParam;\n        boolParam[fcId] = _boolParam;\n        if (\n            funcIndex[fcId] == 4 &&\n            store.negateEligibility(uintParam[fcId]) != !boolParam[fcId]\n        ) {\n            pendingEligAdditions[uintParam[fcId]] = pendingEligAdditions[uintParam[fcId]]\n                .add(uintArrayParam[fcId].length);\n        }\n    }\n\n    function cancelFuncCall(uint256 fcId) public override virtual {\n        onlyOwnerOrLeadDev(funcIndex[fcId]);\n        require(funcIndex[fcId] != 0, \"Already cancelled\");\n        funcIndex[fcId] = 0;\n        if (\n            funcIndex[fcId] == 3 &&\n            store.negateEligibility(uintParam[fcId]) != !boolParam[fcId]\n        ) {\n            pendingEligAdditions[uintParam[fcId]] = pendingEligAdditions[uintParam[fcId]]\n                .sub(uintArrayParam[fcId].length);\n        }\n    }\n\n    function executeFuncCall(uint256 fcId) public override virtual {\n        super.executeFuncCall(fcId);\n        if (funcIndex[fcId] == 3) {\n            onlyIfPastDelay(2, time[fcId]);\n            nftx.transferOwnership(addressParam[fcId]);\n        } else if (funcIndex[fcId] == 4) {\n            uint256 percentInc = pendingEligAdditions[uintParam[fcId]]\n                .mul(100)\n                .div(nftx.vaultSize(uintParam[fcId]));\n            if (percentInc > 10) {\n                onlyIfPastDelay(2, time[fcId]);\n            } else if (percentInc > 1) {\n                onlyIfPastDelay(1, time[fcId]);\n            } else {\n                onlyIfPastDelay(0, time[fcId]);\n            }\n            nftx.setIsEligible(\n                uintParam[fcId],\n                uintArrayParam[fcId],\n                boolParam[fcId]\n            );\n            pendingEligAdditions[uintParam[fcId]] = pendingEligAdditions[uintParam[fcId]]\n                .sub(uintArrayParam[fcId].length);\n        } else if (funcIndex[fcId] == 5) {\n            onlyIfPastDelay(0, time[fcId]); // vault must be empty\n            nftx.setNegateEligibility(funcIndex[fcId], boolParam[fcId]);\n        } else if (funcIndex[fcId] == 6) {\n            onlyIfPastDelay(0, time[fcId]);\n            nftx.setShouldReserve(\n                uintParam[fcId],\n                uintArrayParam[fcId],\n                boolParam[fcId]\n            );\n        } else if (funcIndex[fcId] == 7) {\n            onlyIfPastDelay(0, time[fcId]);\n            nftx.setIsReserved(\n                uintParam[fcId],\n                uintArrayParam[fcId],\n                boolParam[fcId]\n            );\n        } else if (funcIndex[fcId] == 8) {\n            onlyIfPastDelay(1, time[fcId]);\n            nftx.changeTokenName(uintParam[fcId], stringParam[fcId]);\n        } else if (funcIndex[fcId] == 9) {\n            onlyIfPastDelay(1, time[fcId]);\n            nftx.changeTokenSymbol(uintParam[fcId], stringParam[fcId]);\n        } else if (funcIndex[fcId] == 10) {\n            onlyIfPastDelay(0, time[fcId]);\n            nftx.closeVault(uintParam[fcId]);\n        } else if (funcIndex[fcId] == 11) {\n            onlyIfPastDelay(0, time[fcId]);\n            nftx.setMintFees(\n                uintArrayParam[fcId][0],\n                uintArrayParam[fcId][1],\n                uintArrayParam[fcId][2]\n            );\n        } else if (funcIndex[fcId] == 12) {\n            (uint256 ethBase, uint256 ethStep) = store.burnFees(\n                uintArrayParam[fcId][0]\n            );\n            uint256 ethBasePercentInc = uintArrayParam[fcId][1].mul(100).div(\n                ethBase\n            );\n            uint256 ethStepPercentInc = uintArrayParam[fcId][2].mul(100).div(\n                ethStep\n            );\n            if (ethBasePercentInc.add(ethStepPercentInc) > 15) {\n                onlyIfPastDelay(2, time[fcId]);\n            } else if (ethBasePercentInc.add(ethStepPercentInc) > 5) {\n                onlyIfPastDelay(1, time[fcId]);\n            } else {\n                onlyIfPastDelay(0, time[fcId]);\n            }\n            nftx.setBurnFees(\n                uintArrayParam[fcId][0],\n                uintArrayParam[fcId][1],\n                uintArrayParam[fcId][2]\n            );\n        } else if (funcIndex[fcId] == 13) {\n            onlyIfPastDelay(0, time[fcId]);\n            nftx.setDualFees(\n                uintArrayParam[fcId][0],\n                uintArrayParam[fcId][1],\n                uintArrayParam[fcId][2]\n            );\n        } else if (funcIndex[fcId] == 14) {\n            (uint256 ethMax, uint256 length) = store.supplierBounty(\n                uintArrayParam[fcId][0]\n            );\n            uint256 ethMaxPercentInc = uintArrayParam[fcId][1].mul(100).div(\n                ethMax\n            );\n            uint256 lengthPercentInc = uintArrayParam[fcId][2].mul(100).div(\n                length\n            );\n            if (ethMaxPercentInc.add(lengthPercentInc) > 20) {\n                onlyIfPastDelay(2, time[fcId]);\n            } else if (ethMaxPercentInc.add(lengthPercentInc) > 5) {\n                onlyIfPastDelay(1, time[fcId]);\n            } else {\n                onlyIfPastDelay(0, time[fcId]);\n            }\n            nftx.setSupplierBounty(\n                uintArrayParam[fcId][0],\n                uintArrayParam[fcId][1],\n                uintArrayParam[fcId][2]\n            );\n        }\n    }\n\n}\n",
  "sourcePath": "/Applications/MAMP/htdocs/nftx-graph/contracts/XController.sol",
  "compiler": {
    "name": "solc",
    "version": "0.6.8+commit.0bbfe453.Emscripten.clang"
  },
  "schemaVersion": "3.3.4",
  "updatedAt": "2021-02-23T14:33:02.239Z",
  "devdoc": {
    "methods": {
      "owner()": {
        "details": "Returns the address of the current owner."
      },
      "renounceOwnership()": {
        "details": "Leaves the contract without owner. It will not be possible to call `onlyOwner` functions anymore. Can only be called by the current owner.     * NOTE: Renouncing ownership will leave the contract without an owner, thereby removing any functionality that is only available to the owner."
      }
    }
  },
  "userdoc": {
    "methods": {}
  }
}