{
  "contractName": "XSale",
  "abi": [
    {
      "inputs": [
        {
          "internalType": "address",
          "name": "_nftx",
          "type": "address"
        },
        {
          "internalType": "address",
          "name": "_nftxToken",
          "type": "address"
        },
        {
          "internalType": "address",
          "name": "_tokenManager",
          "type": "address"
        }
      ],
      "stateMutability": "nonpayable",
      "type": "constructor"
    },
    {
      "anonymous": false,
      "inputs": [
        {
          "indexed": true,
          "internalType": "address",
          "name": "previousOwner",
          "type": "address"
        },
        {
          "indexed": true,
          "internalType": "address",
          "name": "newOwner",
          "type": "address"
        }
      ],
      "name": "OwnershipTransferred",
      "type": "event"
    },
    {
      "inputs": [],
      "name": "nftx",
      "outputs": [
        {
          "internalType": "contract INFTX",
          "name": "",
          "type": "address"
        }
      ],
      "stateMutability": "view",
      "type": "function"
    },
    {
      "inputs": [],
      "name": "nftxToken",
      "outputs": [
        {
          "internalType": "contract IERC20",
          "name": "",
          "type": "address"
        }
      ],
      "stateMutability": "view",
      "type": "function"
    },
    {
      "inputs": [
        {
          "internalType": "uint256",
          "name": "pauserId",
          "type": "uint256"
        }
      ],
      "name": "onlyOwnerIfPaused",
      "outputs": [],
      "stateMutability": "view",
      "type": "function"
    },
    {
      "inputs": [],
      "name": "owner",
      "outputs": [
        {
          "internalType": "address",
          "name": "",
          "type": "address"
        }
      ],
      "stateMutability": "view",
      "type": "function"
    },
    {
      "inputs": [],
      "name": "renounceOwnership",
      "outputs": [],
      "stateMutability": "nonpayable",
      "type": "function"
    },
    {
      "inputs": [
        {
          "internalType": "uint256",
          "name": "pauserId",
          "type": "uint256"
        },
        {
          "internalType": "bool",
          "name": "_isPaused",
          "type": "bool"
        }
      ],
      "name": "setPaused",
      "outputs": [],
      "stateMutability": "nonpayable",
      "type": "function"
    },
    {
      "inputs": [],
      "name": "tokenManager",
      "outputs": [
        {
          "internalType": "contract ITokenManager",
          "name": "",
          "type": "address"
        }
      ],
      "stateMutability": "view",
      "type": "function"
    },
    {
      "inputs": [
        {
          "internalType": "address",
          "name": "newOwner",
          "type": "address"
        }
      ],
      "name": "transferOwnership",
      "outputs": [],
      "stateMutability": "nonpayable",
      "type": "function"
    },
    {
      "inputs": [],
      "name": "vestedUntil",
      "outputs": [
        {
          "internalType": "uint64",
          "name": "",
          "type": "uint64"
        }
      ],
      "stateMutability": "view",
      "type": "function"
    },
    {
      "inputs": [
        {
          "internalType": "uint256",
          "name": "",
          "type": "uint256"
        },
        {
          "internalType": "uint256",
          "name": "",
          "type": "uint256"
        }
      ],
      "name": "xBounties",
      "outputs": [
        {
          "internalType": "uint256",
          "name": "reward",
          "type": "uint256"
        },
        {
          "internalType": "uint256",
          "name": "request",
          "type": "uint256"
        }
      ],
      "stateMutability": "view",
      "type": "function"
    },
    {
      "inputs": [],
      "name": "xStore",
      "outputs": [
        {
          "internalType": "contract IXStore",
          "name": "",
          "type": "address"
        }
      ],
      "stateMutability": "view",
      "type": "function"
    },
    {
      "inputs": [
        {
          "internalType": "uint256",
          "name": "vaultId",
          "type": "uint256"
        },
        {
          "internalType": "uint256",
          "name": "reward",
          "type": "uint256"
        },
        {
          "internalType": "uint256",
          "name": "request",
          "type": "uint256"
        }
      ],
      "name": "addXBounty",
      "outputs": [],
      "stateMutability": "nonpayable",
      "type": "function"
    },
    {
      "inputs": [
        {
          "internalType": "uint256",
          "name": "vaultId",
          "type": "uint256"
        },
        {
          "internalType": "uint256",
          "name": "xBountyIndex",
          "type": "uint256"
        },
        {
          "internalType": "uint256",
          "name": "newReward",
          "type": "uint256"
        },
        {
          "internalType": "uint256",
          "name": "newRequest",
          "type": "uint256"
        }
      ],
      "name": "setXBounty",
      "outputs": [],
      "stateMutability": "nonpayable",
      "type": "function"
    },
    {
      "inputs": [
        {
          "internalType": "address",
          "name": "to",
          "type": "address"
        },
        {
          "internalType": "uint256",
          "name": "amount",
          "type": "uint256"
        }
      ],
      "name": "withdrawNFTX",
      "outputs": [],
      "stateMutability": "nonpayable",
      "type": "function"
    },
    {
      "inputs": [
        {
          "internalType": "uint256",
          "name": "vaultId",
          "type": "uint256"
        },
        {
          "internalType": "address",
          "name": "to",
          "type": "address"
        },
        {
          "internalType": "uint256",
          "name": "amount",
          "type": "uint256"
        }
      ],
      "name": "withdrawXToken",
      "outputs": [],
      "stateMutability": "nonpayable",
      "type": "function"
    },
    {
      "inputs": [
        {
          "internalType": "address payable",
          "name": "to",
          "type": "address"
        },
        {
          "internalType": "uint256",
          "name": "amount",
          "type": "uint256"
        }
      ],
      "name": "withdrawETH",
      "outputs": [],
      "stateMutability": "nonpayable",
      "type": "function"
    },
    {
      "inputs": [
        {
          "internalType": "uint256",
          "name": "vaultId",
          "type": "uint256"
        },
        {
          "internalType": "uint256",
          "name": "xBountyIndex",
          "type": "uint256"
        },
        {
          "internalType": "uint256",
          "name": "amount",
          "type": "uint256"
        }
      ],
      "name": "fillXBounty",
      "outputs": [],
      "stateMutability": "nonpayable",
      "type": "function"
    }
  ],
  "bytecode": "0x60806040523480156200001157600080fd5b506040516200220d3803806200220d833981810160405260608110156200003757600080fd5b810190808051906020019092919080519060200190929190805190602001909291905050506200006c6200022060201b60201c565b82603660006101000a81548173ffffffffffffffffffffffffffffffffffffffff021916908373ffffffffffffffffffffffffffffffffffffffff160217905550603660009054906101000a900473ffffffffffffffffffffffffffffffffffffffff1673ffffffffffffffffffffffffffffffffffffffff1663975057e76040518163ffffffff1660e01b8152600401602060405180830381600087803b1580156200011857600080fd5b505af11580156200012d573d6000803e3d6000fd5b505050506040513d60208110156200014457600080fd5b8101908080519060200190929190505050603760006101000a81548173ffffffffffffffffffffffffffffffffffffffff021916908373ffffffffffffffffffffffffffffffffffffffff16021790555081603860006101000a81548173ffffffffffffffffffffffffffffffffffffffff021916908373ffffffffffffffffffffffffffffffffffffffff16021790555080603960006101000a81548173ffffffffffffffffffffffffffffffffffffffff021916908373ffffffffffffffffffffffffffffffffffffffff160217905550505050620003fd565b600060019054906101000a900460ff168062000248575062000247620003de60201b60201c565b5b806200026057506000809054906101000a900460ff16155b620002b7576040517f08c379a000000000000000000000000000000000000000000000000000000000815260040180806020018281038252602e815260200180620021df602e913960400191505060405180910390fd5b60008060019054906101000a900460ff16159050801562000308576001600060016101000a81548160ff02191690831515021790555060016000806101000a81548160ff0219169083151502179055505b60006200031a620003f560201b60201c565b905080603360006101000a81548173ffffffffffffffffffffffffffffffffffffffff021916908373ffffffffffffffffffffffffffffffffffffffff1602179055508073ffffffffffffffffffffffffffffffffffffffff16600073ffffffffffffffffffffffffffffffffffffffff167f8be0079c531659141344cd1fd0a4f28419497f9722a3daafe3b4186f6b6457e060405160405180910390a3508015620003db5760008060016101000a81548160ff0219169083151502179055505b50565b6000803090506000813b9050600081149250505090565b600033905090565b611dd2806200040d6000396000f3fe608060405234801561001057600080fd5b506004361061010b5760003560e01c80638da5cb5b116100a2578063bfd1068a11610071578063bfd1068a1461041f578063c08b38261461046b578063c2d35f0f146104b9578063daff97b514610503578063f2fde38b1461053d5761010b565b80638da5cb5b1461031f578063b7491c2114610369578063b939f6581461039b578063ba291b22146103dd5761010b565b806364432b66116100de57806364432b661461023c578063715018a6146102945780637c77b6161461029e5780638458ae43146102cc5761010b565b80632a709b1414610110578063337b15001461015a5780634782f779146101a457806349746968146101f2575b600080fd5b610118610581565b604051808273ffffffffffffffffffffffffffffffffffffffff1673ffffffffffffffffffffffffffffffffffffffff16815260200191505060405180910390f35b6101626105a7565b604051808273ffffffffffffffffffffffffffffffffffffffff1673ffffffffffffffffffffffffffffffffffffffff16815260200191505060405180910390f35b6101f0600480360360408110156101ba57600080fd5b81019080803573ffffffffffffffffffffffffffffffffffffffff169060200190929190803590602001909291905050506105cd565b005b6101fa6106e2565b604051808273ffffffffffffffffffffffffffffffffffffffff1673ffffffffffffffffffffffffffffffffffffffff16815260200191505060405180910390f35b6102926004803603606081101561025257600080fd5b8101908080359060200190929190803573ffffffffffffffffffffffffffffffffffffffff16906020019092919080359060200190929190505050610708565b005b61029c610947565b005b6102ca600480360360208110156102b457600080fd5b8101908080359060200190929190505050610ad2565b005b610302600480360360408110156102e257600080fd5b810190808035906020019092919080359060200190929190505050610ba6565b604051808381526020018281526020019250505060405180910390f35b610327610be4565b604051808273ffffffffffffffffffffffffffffffffffffffff1673ffffffffffffffffffffffffffffffffffffffff16815260200191505060405180910390f35b610371610c0e565b604051808267ffffffffffffffff1667ffffffffffffffff16815260200191505060405180910390f35b6103db600480360360608110156103b157600080fd5b81019080803590602001909291908035906020019092919080359060200190929190505050610c18565b005b61041d600480360360608110156103f357600080fd5b81019080803590602001909291908035906020019092919080359060200190929190505050610d57565b005b6104696004803603608081101561043557600080fd5b810190808035906020019092919080359060200190929190803590602001909291908035906020019092919050505061149e565b005b6104b76004803603604081101561048157600080fd5b81019080803573ffffffffffffffffffffffffffffffffffffffff169060200190929190803590602001909291905050506115b1565b005b6104c1611764565b604051808273ffffffffffffffffffffffffffffffffffffffff1673ffffffffffffffffffffffffffffffffffffffff16815260200191505060405180910390f35b61053b6004803603604081101561051957600080fd5b810190808035906020019092919080351515906020019092919050505061178a565b005b61057f6004803603602081101561055357600080fd5b81019080803573ffffffffffffffffffffffffffffffffffffffff169060200190929190505050611883565b005b603960009054906101000a900473ffffffffffffffffffffffffffffffffffffffff1681565b603760009054906101000a900473ffffffffffffffffffffffffffffffffffffffff1681565b6105d5611a93565b73ffffffffffffffffffffffffffffffffffffffff16603360009054906101000a900473ffffffffffffffffffffffffffffffffffffffff1673ffffffffffffffffffffffffffffffffffffffff1614610697576040517f08c379a00000000000000000000000000000000000000000000000000000000081526004018080602001828103825260208152602001807f4f776e61626c653a2063616c6c6572206973206e6f7420746865206f776e657281525060200191505060405180910390fd5b8173ffffffffffffffffffffffffffffffffffffffff166108fc829081150290604051600060405180830381858888f193505050501580156106dd573d6000803e3d6000fd5b505050565b603860009054906101000a900473ffffffffffffffffffffffffffffffffffffffff1681565b610710611a93565b73ffffffffffffffffffffffffffffffffffffffff16603360009054906101000a900473ffffffffffffffffffffffffffffffffffffffff1673ffffffffffffffffffffffffffffffffffffffff16146107d2576040517f08c379a00000000000000000000000000000000000000000000000000000000081526004018080602001828103825260208152602001807f4f776e61626c653a2063616c6c6572206973206e6f7420746865206f776e657281525060200191505060405180910390fd5b603760009054906101000a900473ffffffffffffffffffffffffffffffffffffffff1673ffffffffffffffffffffffffffffffffffffffff1663e8e57118846040518263ffffffff1660e01b81526004018082815260200191505060206040518083038186803b15801561084557600080fd5b505afa158015610859573d6000803e3d6000fd5b505050506040513d602081101561086f57600080fd5b810190808051906020019092919050505073ffffffffffffffffffffffffffffffffffffffff1663a9059cbb83836040518363ffffffff1660e01b8152600401808373ffffffffffffffffffffffffffffffffffffffff1673ffffffffffffffffffffffffffffffffffffffff16815260200182815260200192505050602060405180830381600087803b15801561090657600080fd5b505af115801561091a573d6000803e3d6000fd5b505050506040513d602081101561093057600080fd5b810190808051906020019092919050505050505050565b61094f611a93565b73ffffffffffffffffffffffffffffffffffffffff16603360009054906101000a900473ffffffffffffffffffffffffffffffffffffffff1673ffffffffffffffffffffffffffffffffffffffff1614610a11576040517f08c379a00000000000000000000000000000000000000000000000000000000081526004018080602001828103825260208152602001807f4f776e61626c653a2063616c6c6572206973206e6f7420746865206f776e657281525060200191505060405180910390fd5b600073ffffffffffffffffffffffffffffffffffffffff16603360009054906101000a900473ffffffffffffffffffffffffffffffffffffffff1673ffffffffffffffffffffffffffffffffffffffff167f8be0079c531659141344cd1fd0a4f28419497f9722a3daafe3b4186f6b6457e060405160405180910390a36000603360006101000a81548173ffffffffffffffffffffffffffffffffffffffff021916908373ffffffffffffffffffffffffffffffffffffffff160217905550565b6034600082815260200190815260200160002060009054906101000a900460ff161580610b315750610b02610be4565b73ffffffffffffffffffffffffffffffffffffffff163373ffffffffffffffffffffffffffffffffffffffff16145b610ba3576040517f08c379a00000000000000000000000000000000000000000000000000000000081526004018080602001828103825260068152602001807f506175736564000000000000000000000000000000000000000000000000000081525060200191505060405180910390fd5b50565b603a6020528160005260406000208181548110610bbf57fe5b9060005260206000209060020201600091509150508060000154908060010154905082565b6000603360009054906101000a900473ffffffffffffffffffffffffffffffffffffffff16905090565b650177050eec0081565b610c20611a93565b73ffffffffffffffffffffffffffffffffffffffff16603360009054906101000a900473ffffffffffffffffffffffffffffffffffffffff1673ffffffffffffffffffffffffffffffffffffffff1614610ce2576040517f08c379a00000000000000000000000000000000000000000000000000000000081526004018080602001828103825260208152602001807f4f776e61626c653a2063616c6c6572206973206e6f7420746865206f776e657281525060200191505060405180910390fd5b610cea611d3b565b8281600001818152505081816020018181525050603a60008581526020019081526020016000208190806001815401808255809150506001900390600052602060002090600202016000909190919091506000820151816000015560208201518160010155505050505050565b60026035541415610dd0576040517f08c379a000000000000000000000000000000000000000000000000000000000815260040180806020018281038252601f8152602001807f5265656e7472616e637947756172643a207265656e7472616e742063616c6c0081525060200191505060405180910390fd5b60026035819055506000603a60008581526020019081526020016000208381548110610df857fe5b906000526020600020906002020190508060010154821115610e82576040517f08c379a000000000000000000000000000000000000000000000000000000000815260040180806020018281038252600f8152602001807f416d6f756e74203e20626f756e7479000000000000000000000000000000000081525060200191505060405180910390fd5b603860009054906101000a900473ffffffffffffffffffffffffffffffffffffffff1673ffffffffffffffffffffffffffffffffffffffff166370a08231603660009054906101000a900473ffffffffffffffffffffffffffffffffffffffff166040518263ffffffff1660e01b8152600401808273ffffffffffffffffffffffffffffffffffffffff1673ffffffffffffffffffffffffffffffffffffffff16815260200191505060206040518083038186803b158015610f4357600080fd5b505afa158015610f57573d6000803e3d6000fd5b505050506040513d6020811015610f6d57600080fd5b8101908080519060200190929190505050821115610ff3576040517f08c379a00000000000000000000000000000000000000000000000000000000081526004018080602001828103825260108152602001807f416d6f756e74203e2062616c616e63650000000000000000000000000000000081525060200191505060405180910390fd5b603760009054906101000a900473ffffffffffffffffffffffffffffffffffffffff1673ffffffffffffffffffffffffffffffffffffffff1663e8e57118856040518263ffffffff1660e01b81526004018082815260200191505060206040518083038186803b15801561106657600080fd5b505afa15801561107a573d6000803e3d6000fd5b505050506040513d602081101561109057600080fd5b810190808051906020019092919050505073ffffffffffffffffffffffffffffffffffffffff166323b872dd6110c4611a93565b603660009054906101000a900473ffffffffffffffffffffffffffffffffffffffff16856040518463ffffffff1660e01b8152600401808473ffffffffffffffffffffffffffffffffffffffff1673ffffffffffffffffffffffffffffffffffffffff1681526020018373ffffffffffffffffffffffffffffffffffffffff1673ffffffffffffffffffffffffffffffffffffffff1681526020018281526020019350505050602060405180830381600087803b15801561118457600080fd5b505af1158015611198573d6000803e3d6000fd5b505050506040513d60208110156111ae57600080fd5b81019080805190602001909291905050505060006111ef82600101546111e1858560000154611a9b90919063ffffffff16565b611b2190919063ffffffff16565b9050611208838360010154611b6b90919063ffffffff16565b8260010181905550611227818360000154611b6b90919063ffffffff16565b8260000181905550603860009054906101000a900473ffffffffffffffffffffffffffffffffffffffff1673ffffffffffffffffffffffffffffffffffffffff1663a9059cbb603960009054906101000a900473ffffffffffffffffffffffffffffffffffffffff16836040518363ffffffff1660e01b8152600401808373ffffffffffffffffffffffffffffffffffffffff1673ffffffffffffffffffffffffffffffffffffffff16815260200182815260200192505050602060405180830381600087803b1580156112fa57600080fd5b505af115801561130e573d6000803e3d6000fd5b505050506040513d602081101561132457600080fd5b810190808051906020019092919050505050603960009054906101000a900473ffffffffffffffffffffffffffffffffffffffff1673ffffffffffffffffffffffffffffffffffffffff166321cb18cd61137c611a93565b83650177050eec0080650177050eec0060006040518763ffffffff1660e01b8152600401808773ffffffffffffffffffffffffffffffffffffffff1673ffffffffffffffffffffffffffffffffffffffff1681526020018681526020018567ffffffffffffffff1667ffffffffffffffff1681526020018467ffffffffffffffff1667ffffffffffffffff1681526020018367ffffffffffffffff1667ffffffffffffffff168152602001821515151581526020019650505050505050602060405180830381600087803b15801561145357600080fd5b505af1158015611467573d6000803e3d6000fd5b505050506040513d602081101561147d57600080fd5b81019080805190602001909291905050505050506001603581905550505050565b6114a6611a93565b73ffffffffffffffffffffffffffffffffffffffff16603360009054906101000a900473ffffffffffffffffffffffffffffffffffffffff1673ffffffffffffffffffffffffffffffffffffffff1614611568576040517f08c379a00000000000000000000000000000000000000000000000000000000081526004018080602001828103825260208152602001807f4f776e61626c653a2063616c6c6572206973206e6f7420746865206f776e657281525060200191505060405180910390fd5b6000603a6000868152602001908152602001600020848154811061158857fe5b906000526020600020906002020190508281600001819055508181600101819055505050505050565b6115b9611a93565b73ffffffffffffffffffffffffffffffffffffffff16603360009054906101000a900473ffffffffffffffffffffffffffffffffffffffff1673ffffffffffffffffffffffffffffffffffffffff161461167b576040517f08c379a00000000000000000000000000000000000000000000000000000000081526004018080602001828103825260208152602001807f4f776e61626c653a2063616c6c6572206973206e6f7420746865206f776e657281525060200191505060405180910390fd5b603860009054906101000a900473ffffffffffffffffffffffffffffffffffffffff1673ffffffffffffffffffffffffffffffffffffffff1663a9059cbb83836040518363ffffffff1660e01b8152600401808373ffffffffffffffffffffffffffffffffffffffff1673ffffffffffffffffffffffffffffffffffffffff16815260200182815260200192505050602060405180830381600087803b15801561172457600080fd5b505af1158015611738573d6000803e3d6000fd5b505050506040513d602081101561174e57600080fd5b8101908080519060200190929190505050505050565b603660009054906101000a900473ffffffffffffffffffffffffffffffffffffffff1681565b611792611a93565b73ffffffffffffffffffffffffffffffffffffffff16603360009054906101000a900473ffffffffffffffffffffffffffffffffffffffff1673ffffffffffffffffffffffffffffffffffffffff1614611854576040517f08c379a00000000000000000000000000000000000000000000000000000000081526004018080602001828103825260208152602001807f4f776e61626c653a2063616c6c6572206973206e6f7420746865206f776e657281525060200191505060405180910390fd5b806034600084815260200190815260200160002060006101000a81548160ff0219169083151502179055505050565b61188b611a93565b73ffffffffffffffffffffffffffffffffffffffff16603360009054906101000a900473ffffffffffffffffffffffffffffffffffffffff1673ffffffffffffffffffffffffffffffffffffffff161461194d576040517f08c379a00000000000000000000000000000000000000000000000000000000081526004018080602001828103825260208152602001807f4f776e61626c653a2063616c6c6572206973206e6f7420746865206f776e657281525060200191505060405180910390fd5b600073ffffffffffffffffffffffffffffffffffffffff168173ffffffffffffffffffffffffffffffffffffffff1614156119d3576040517f08c379a0000000000000000000000000000000000000000000000000000000008152600401808060200182810382526026815260200180611d566026913960400191505060405180910390fd5b8073ffffffffffffffffffffffffffffffffffffffff16603360009054906101000a900473ffffffffffffffffffffffffffffffffffffffff1673ffffffffffffffffffffffffffffffffffffffff167f8be0079c531659141344cd1fd0a4f28419497f9722a3daafe3b4186f6b6457e060405160405180910390a380603360006101000a81548173ffffffffffffffffffffffffffffffffffffffff021916908373ffffffffffffffffffffffffffffffffffffffff16021790555050565b600033905090565b600080831415611aae5760009050611b1b565b6000828402905082848281611abf57fe5b0414611b16576040517f08c379a0000000000000000000000000000000000000000000000000000000008152600401808060200182810382526021815260200180611d7c6021913960400191505060405180910390fd5b809150505b92915050565b6000611b6383836040518060400160405280601a81526020017f536166654d6174683a206469766973696f6e206279207a65726f000000000000815250611bb5565b905092915050565b6000611bad83836040518060400160405280601e81526020017f536166654d6174683a207375627472616374696f6e206f766572666c6f770000815250611c7b565b905092915050565b60008083118290611c61576040517f08c379a00000000000000000000000000000000000000000000000000000000081526004018080602001828103825283818151815260200191508051906020019080838360005b83811015611c26578082015181840152602081019050611c0b565b50505050905090810190601f168015611c535780820380516001836020036101000a031916815260200191505b509250505060405180910390fd5b506000838581611c6d57fe5b049050809150509392505050565b6000838311158290611d28576040517f08c379a00000000000000000000000000000000000000000000000000000000081526004018080602001828103825283818151815260200191508051906020019080838360005b83811015611ced578082015181840152602081019050611cd2565b50505050905090810190601f168015611d1a5780820380516001836020036101000a031916815260200191505b509250505060405180910390fd5b5060008385039050809150509392505050565b60405180604001604052806000815260200160008152509056fe4f776e61626c653a206e6577206f776e657220697320746865207a65726f2061646472657373536166654d6174683a206d756c7469706c69636174696f6e206f766572666c6f77a26469706673582212201d10644234bd3aeb048a8f2a5d44fd21b5c62abf209b5a6273fe96c878f6856664736f6c63430006080033436f6e747261637420696e7374616e63652068617320616c7265616479206265656e20696e697469616c697a6564",
  "immutableReferences": {},
  "source": "// SPDX-License-Identifier: MIT\n\npragma solidity 0.6.8;\n\nimport \"./SafeMath.sol\";\nimport \"./Pausable.sol\";\nimport \"./INFTX.sol\";\nimport \"./IXStore.sol\";\nimport \"./IERC721.sol\";\nimport \"./ITokenManager.sol\";\nimport \"./Context.sol\";\nimport \"./ReentrancyGuard.sol\";\n\ncontract XSale is Pausable, ReentrancyGuard {\n    using SafeMath for uint256;\n    using EnumerableSet for EnumerableSet.UintSet;\n\n    INFTX public nftx;\n    IXStore public xStore;\n    IERC20 public nftxToken;\n    ITokenManager public tokenManager;\n\n    uint64 public constant vestedUntil = 1610697600000; // Fri Jan 15 2021 00:00:00 GMT-0800\n\n    // Bounty[] public ethBounties;\n    mapping(uint256 => Bounty[]) public xBounties;\n\n    struct Bounty {\n        uint256 reward;\n        uint256 request;\n    }\n\n    constructor(address _nftx, address _nftxToken, address _tokenManager)\n        public\n    {\n        initOwnable();\n        nftx = INFTX(_nftx);\n        xStore = IXStore(nftx.store());\n        nftxToken = IERC20(_nftxToken);\n        tokenManager = ITokenManager(_tokenManager);\n    }\n\n    function addXBounty(uint256 vaultId, uint256 reward, uint256 request)\n        public\n        onlyOwner\n    {\n        Bounty memory newXBounty;\n        newXBounty.reward = reward;\n        newXBounty.request = request;\n        xBounties[vaultId].push(newXBounty);\n    }\n\n    function setXBounty(\n        uint256 vaultId,\n        uint256 xBountyIndex,\n        uint256 newReward,\n        uint256 newRequest\n    ) public onlyOwner {\n        Bounty storage xBounty = xBounties[vaultId][xBountyIndex];\n        xBounty.reward = newReward;\n        xBounty.request = newRequest;\n    }\n\n    function withdrawNFTX(address to, uint256 amount) public onlyOwner {\n        nftxToken.transfer(to, amount);\n    }\n\n    function withdrawXToken(uint256 vaultId, address to, uint256 amount)\n        public\n        onlyOwner\n    {\n        xStore.xToken(vaultId).transfer(to, amount);\n    }\n\n    function withdrawETH(address payable to, uint256 amount) public onlyOwner {\n        to.transfer(amount);\n    }\n\n    function fillXBounty(uint256 vaultId, uint256 xBountyIndex, uint256 amount)\n        public\n        nonReentrant\n    {\n        Bounty storage xBounty = xBounties[vaultId][xBountyIndex];\n        require(amount <= xBounty.request, \"Amount > bounty\");\n        require(\n            amount <= nftxToken.balanceOf(address(nftx)),\n            \"Amount > balance\"\n        );\n        xStore.xToken(vaultId).transferFrom(\n            _msgSender(),\n            address(nftx),\n            amount\n        );\n        uint256 reward = xBounty.reward.mul(amount).div(xBounty.request);\n        xBounty.request = xBounty.request.sub(amount);\n        xBounty.reward = xBounty.reward.sub(reward);\n        nftxToken.transfer(address(tokenManager), reward);\n        tokenManager.assignVested(\n            _msgSender(),\n            reward,\n            vestedUntil,\n            vestedUntil,\n            vestedUntil,\n            false\n        );\n    }\n}\n",
  "sourcePath": "/Applications/MAMP/htdocs/nftx-graph/contracts/XSale.sol",
  "compiler": {
    "name": "solc",
    "version": "0.6.8+commit.0bbfe453.Emscripten.clang"
  },
  "schemaVersion": "3.3.4",
  "updatedAt": "2021-02-23T14:33:02.323Z",
  "devdoc": {
    "methods": {
      "owner()": {
        "details": "Returns the address of the current owner."
      },
      "renounceOwnership()": {
        "details": "Leaves the contract without owner. It will not be possible to call `onlyOwner` functions anymore. Can only be called by the current owner.     * NOTE: Renouncing ownership will leave the contract without an owner, thereby removing any functionality that is only available to the owner."
      },
      "transferOwnership(address)": {
        "details": "Transfers ownership of the contract to a new account (`newOwner`). Can only be called by the current owner."
      }
    }
  },
  "userdoc": {
    "methods": {}
  }
}