{
  "contractName": "XStore",
  "abi": [
    {
      "inputs": [],
      "stateMutability": "nonpayable",
      "type": "constructor"
    },
    {
      "anonymous": false,
      "inputs": [
        {
          "indexed": true,
          "internalType": "uint256",
          "name": "vaultId",
          "type": "uint256"
        },
        {
          "indexed": false,
          "internalType": "uint256",
          "name": "ethBase",
          "type": "uint256"
        },
        {
          "indexed": false,
          "internalType": "uint256",
          "name": "ethStep",
          "type": "uint256"
        }
      ],
      "name": "BurnFeesSet",
      "type": "event"
    },
    {
      "anonymous": false,
      "inputs": [
        {
          "indexed": true,
          "internalType": "uint256",
          "name": "vaultId",
          "type": "uint256"
        },
        {
          "indexed": false,
          "internalType": "address",
          "name": "_d2Asset",
          "type": "address"
        }
      ],
      "name": "D2AssetAddressSet",
      "type": "event"
    },
    {
      "anonymous": false,
      "inputs": [
        {
          "indexed": true,
          "internalType": "uint256",
          "name": "vaultId",
          "type": "uint256"
        }
      ],
      "name": "D2AssetSet",
      "type": "event"
    },
    {
      "anonymous": false,
      "inputs": [
        {
          "indexed": true,
          "internalType": "uint256",
          "name": "vaultId",
          "type": "uint256"
        },
        {
          "indexed": false,
          "internalType": "uint256",
          "name": "_d2Holdings",
          "type": "uint256"
        }
      ],
      "name": "D2HoldingsSet",
      "type": "event"
    },
    {
      "anonymous": false,
      "inputs": [
        {
          "indexed": true,
          "internalType": "uint256",
          "name": "vaultId",
          "type": "uint256"
        },
        {
          "indexed": false,
          "internalType": "uint256",
          "name": "ethBase",
          "type": "uint256"
        },
        {
          "indexed": false,
          "internalType": "uint256",
          "name": "ethStep",
          "type": "uint256"
        }
      ],
      "name": "DualFeesSet",
      "type": "event"
    },
    {
      "anonymous": false,
      "inputs": [
        {
          "indexed": true,
          "internalType": "uint256",
          "name": "vaultId",
          "type": "uint256"
        },
        {
          "indexed": false,
          "internalType": "uint256",
          "name": "_ethBalance",
          "type": "uint256"
        }
      ],
      "name": "EthBalanceSet",
      "type": "event"
    },
    {
      "anonymous": false,
      "inputs": [
        {
          "indexed": true,
          "internalType": "uint256",
          "name": "vaultId",
          "type": "uint256"
        },
        {
          "indexed": false,
          "internalType": "bool",
          "name": "_bool",
          "type": "bool"
        }
      ],
      "name": "FlipEligOnRedeemSet",
      "type": "event"
    },
    {
      "anonymous": false,
      "inputs": [
        {
          "indexed": true,
          "internalType": "uint256",
          "name": "vaultId",
          "type": "uint256"
        },
        {
          "indexed": false,
          "internalType": "uint256",
          "name": "id",
          "type": "uint256"
        }
      ],
      "name": "HoldingsAdded",
      "type": "event"
    },
    {
      "anonymous": false,
      "inputs": [
        {
          "indexed": true,
          "internalType": "uint256",
          "name": "vaultId",
          "type": "uint256"
        },
        {
          "indexed": false,
          "internalType": "uint256",
          "name": "id",
          "type": "uint256"
        }
      ],
      "name": "HoldingsRemoved",
      "type": "event"
    },
    {
      "anonymous": false,
      "inputs": [
        {
          "indexed": true,
          "internalType": "uint256",
          "name": "vaultId",
          "type": "uint256"
        },
        {
          "indexed": false,
          "internalType": "bool",
          "name": "_isClosed",
          "type": "bool"
        }
      ],
      "name": "IsClosedSet",
      "type": "event"
    },
    {
      "anonymous": false,
      "inputs": [
        {
          "indexed": true,
          "internalType": "uint256",
          "name": "vaultId",
          "type": "uint256"
        },
        {
          "indexed": false,
          "internalType": "bool",
          "name": "_isD2Vault",
          "type": "bool"
        }
      ],
      "name": "IsD2VaultSet",
      "type": "event"
    },
    {
      "anonymous": false,
      "inputs": [
        {
          "indexed": true,
          "internalType": "uint256",
          "name": "vaultId",
          "type": "uint256"
        },
        {
          "indexed": false,
          "internalType": "uint256",
          "name": "id",
          "type": "uint256"
        },
        {
          "indexed": false,
          "internalType": "bool",
          "name": "_bool",
          "type": "bool"
        }
      ],
      "name": "IsEligibleSet",
      "type": "event"
    },
    {
      "anonymous": false,
      "inputs": [
        {
          "indexed": false,
          "internalType": "address",
          "name": "addr",
          "type": "address"
        },
        {
          "indexed": false,
          "internalType": "bool",
          "name": "_isExtension",
          "type": "bool"
        }
      ],
      "name": "IsExtensionSet",
      "type": "event"
    },
    {
      "anonymous": false,
      "inputs": [
        {
          "indexed": true,
          "internalType": "uint256",
          "name": "vaultId",
          "type": "uint256"
        },
        {
          "indexed": false,
          "internalType": "bool",
          "name": "_isFinalized",
          "type": "bool"
        }
      ],
      "name": "IsFinalizedSet",
      "type": "event"
    },
    {
      "anonymous": false,
      "inputs": [
        {
          "indexed": true,
          "internalType": "uint256",
          "name": "vaultId",
          "type": "uint256"
        },
        {
          "indexed": false,
          "internalType": "address",
          "name": "manager",
          "type": "address"
        }
      ],
      "name": "ManagerSet",
      "type": "event"
    },
    {
      "anonymous": false,
      "inputs": [
        {
          "indexed": true,
          "internalType": "uint256",
          "name": "vaultId",
          "type": "uint256"
        },
        {
          "indexed": false,
          "internalType": "uint256",
          "name": "ethBase",
          "type": "uint256"
        },
        {
          "indexed": false,
          "internalType": "uint256",
          "name": "ethStep",
          "type": "uint256"
        }
      ],
      "name": "MintFeesSet",
      "type": "event"
    },
    {
      "anonymous": false,
      "inputs": [
        {
          "indexed": true,
          "internalType": "uint256",
          "name": "vaultId",
          "type": "uint256"
        },
        {
          "indexed": false,
          "internalType": "bool",
          "name": "_bool",
          "type": "bool"
        }
      ],
      "name": "NegateEligibilitySet",
      "type": "event"
    },
    {
      "anonymous": false,
      "inputs": [
        {
          "indexed": true,
          "internalType": "uint256",
          "name": "vaultId",
          "type": "uint256"
        }
      ],
      "name": "NewVaultAdded",
      "type": "event"
    },
    {
      "anonymous": false,
      "inputs": [
        {
          "indexed": true,
          "internalType": "uint256",
          "name": "vaultId",
          "type": "uint256"
        },
        {
          "indexed": false,
          "internalType": "address",
          "name": "asset",
          "type": "address"
        }
      ],
      "name": "NftAddressSet",
      "type": "event"
    },
    {
      "anonymous": false,
      "inputs": [
        {
          "indexed": true,
          "internalType": "uint256",
          "name": "vaultId",
          "type": "uint256"
        }
      ],
      "name": "NftSet",
      "type": "event"
    },
    {
      "anonymous": false,
      "inputs": [
        {
          "indexed": true,
          "internalType": "address",
          "name": "previousOwner",
          "type": "address"
        },
        {
          "indexed": true,
          "internalType": "address",
          "name": "newOwner",
          "type": "address"
        }
      ],
      "name": "OwnershipTransferred",
      "type": "event"
    },
    {
      "anonymous": false,
      "inputs": [
        {
          "indexed": false,
          "internalType": "uint256",
          "name": "_randNonce",
          "type": "uint256"
        }
      ],
      "name": "RandNonceSet",
      "type": "event"
    },
    {
      "anonymous": false,
      "inputs": [
        {
          "indexed": true,
          "internalType": "uint256",
          "name": "vaultId",
          "type": "uint256"
        },
        {
          "indexed": false,
          "internalType": "uint256",
          "name": "id",
          "type": "uint256"
        },
        {
          "indexed": false,
          "internalType": "address",
          "name": "requester",
          "type": "address"
        }
      ],
      "name": "RequesterSet",
      "type": "event"
    },
    {
      "anonymous": false,
      "inputs": [
        {
          "indexed": true,
          "internalType": "uint256",
          "name": "vaultId",
          "type": "uint256"
        },
        {
          "indexed": false,
          "internalType": "uint256",
          "name": "id",
          "type": "uint256"
        }
      ],
      "name": "ReservesAdded",
      "type": "event"
    },
    {
      "anonymous": false,
      "inputs": [
        {
          "indexed": true,
          "internalType": "uint256",
          "name": "vaultId",
          "type": "uint256"
        },
        {
          "indexed": false,
          "internalType": "uint256",
          "name": "id",
          "type": "uint256"
        }
      ],
      "name": "ReservesRemoved",
      "type": "event"
    },
    {
      "anonymous": false,
      "inputs": [
        {
          "indexed": true,
          "internalType": "uint256",
          "name": "vaultId",
          "type": "uint256"
        },
        {
          "indexed": false,
          "internalType": "uint256",
          "name": "id",
          "type": "uint256"
        },
        {
          "indexed": false,
          "internalType": "bool",
          "name": "_bool",
          "type": "bool"
        }
      ],
      "name": "ShouldReserveSet",
      "type": "event"
    },
    {
      "anonymous": false,
      "inputs": [
        {
          "indexed": true,
          "internalType": "uint256",
          "name": "vaultId",
          "type": "uint256"
        },
        {
          "indexed": false,
          "internalType": "uint256",
          "name": "ethMax",
          "type": "uint256"
        },
        {
          "indexed": false,
          "internalType": "uint256",
          "name": "length",
          "type": "uint256"
        }
      ],
      "name": "SupplierBountySet",
      "type": "event"
    },
    {
      "anonymous": false,
      "inputs": [
        {
          "indexed": true,
          "internalType": "uint256",
          "name": "vaultId",
          "type": "uint256"
        },
        {
          "indexed": false,
          "internalType": "uint256",
          "name": "_tokenBalance",
          "type": "uint256"
        }
      ],
      "name": "TokenBalanceSet",
      "type": "event"
    },
    {
      "anonymous": false,
      "inputs": [
        {
          "indexed": true,
          "internalType": "uint256",
          "name": "vaultId",
          "type": "uint256"
        },
        {
          "indexed": false,
          "internalType": "address",
          "name": "token",
          "type": "address"
        }
      ],
      "name": "XTokenAddressSet",
      "type": "event"
    },
    {
      "anonymous": false,
      "inputs": [
        {
          "indexed": true,
          "internalType": "uint256",
          "name": "vaultId",
          "type": "uint256"
        }
      ],
      "name": "XTokenSet",
      "type": "event"
    },
    {
      "inputs": [
        {
          "internalType": "address",
          "name": "",
          "type": "address"
        }
      ],
      "name": "isExtension",
      "outputs": [
        {
          "internalType": "bool",
          "name": "",
          "type": "bool"
        }
      ],
      "stateMutability": "view",
      "type": "function",
      "constant": true
    },
    {
      "inputs": [],
      "name": "owner",
      "outputs": [
        {
          "internalType": "address",
          "name": "",
          "type": "address"
        }
      ],
      "stateMutability": "view",
      "type": "function",
      "constant": true
    },
    {
      "inputs": [],
      "name": "randNonce",
      "outputs": [
        {
          "internalType": "uint256",
          "name": "",
          "type": "uint256"
        }
      ],
      "stateMutability": "view",
      "type": "function",
      "constant": true
    },
    {
      "inputs": [],
      "name": "renounceOwnership",
      "outputs": [],
      "stateMutability": "nonpayable",
      "type": "function"
    },
    {
      "inputs": [
        {
          "internalType": "address",
          "name": "newOwner",
          "type": "address"
        }
      ],
      "name": "transferOwnership",
      "outputs": [],
      "stateMutability": "nonpayable",
      "type": "function"
    },
    {
      "inputs": [],
      "name": "vaultsLength",
      "outputs": [
        {
          "internalType": "uint256",
          "name": "",
          "type": "uint256"
        }
      ],
      "stateMutability": "view",
      "type": "function",
      "constant": true
    },
    {
      "inputs": [
        {
          "internalType": "uint256",
          "name": "vaultId",
          "type": "uint256"
        }
      ],
      "name": "xTokenAddress",
      "outputs": [
        {
          "internalType": "address",
          "name": "",
          "type": "address"
        }
      ],
      "stateMutability": "view",
      "type": "function",
      "constant": true
    },
    {
      "inputs": [
        {
          "internalType": "uint256",
          "name": "vaultId",
          "type": "uint256"
        }
      ],
      "name": "nftAddress",
      "outputs": [
        {
          "internalType": "address",
          "name": "",
          "type": "address"
        }
      ],
      "stateMutability": "view",
      "type": "function",
      "constant": true
    },
    {
      "inputs": [
        {
          "internalType": "uint256",
          "name": "vaultId",
          "type": "uint256"
        }
      ],
      "name": "manager",
      "outputs": [
        {
          "internalType": "address",
          "name": "",
          "type": "address"
        }
      ],
      "stateMutability": "view",
      "type": "function",
      "constant": true
    },
    {
      "inputs": [
        {
          "internalType": "uint256",
          "name": "vaultId",
          "type": "uint256"
        }
      ],
      "name": "xToken",
      "outputs": [
        {
          "internalType": "contract IXToken",
          "name": "",
          "type": "address"
        }
      ],
      "stateMutability": "view",
      "type": "function",
      "constant": true
    },
    {
      "inputs": [
        {
          "internalType": "uint256",
          "name": "vaultId",
          "type": "uint256"
        }
      ],
      "name": "nft",
      "outputs": [
        {
          "internalType": "contract IERC721",
          "name": "",
          "type": "address"
        }
      ],
      "stateMutability": "view",
      "type": "function",
      "constant": true
    },
    {
      "inputs": [
        {
          "internalType": "uint256",
          "name": "vaultId",
          "type": "uint256"
        }
      ],
      "name": "holdingsLength",
      "outputs": [
        {
          "internalType": "uint256",
          "name": "",
          "type": "uint256"
        }
      ],
      "stateMutability": "view",
      "type": "function",
      "constant": true
    },
    {
      "inputs": [
        {
          "internalType": "uint256",
          "name": "vaultId",
          "type": "uint256"
        },
        {
          "internalType": "uint256",
          "name": "elem",
          "type": "uint256"
        }
      ],
      "name": "holdingsContains",
      "outputs": [
        {
          "internalType": "bool",
          "name": "",
          "type": "bool"
        }
      ],
      "stateMutability": "view",
      "type": "function",
      "constant": true
    },
    {
      "inputs": [
        {
          "internalType": "uint256",
          "name": "vaultId",
          "type": "uint256"
        },
        {
          "internalType": "uint256",
          "name": "index",
          "type": "uint256"
        }
      ],
      "name": "holdingsAt",
      "outputs": [
        {
          "internalType": "uint256",
          "name": "",
          "type": "uint256"
        }
      ],
      "stateMutability": "view",
      "type": "function",
      "constant": true
    },
    {
      "inputs": [
        {
          "internalType": "uint256",
          "name": "vaultId",
          "type": "uint256"
        }
      ],
      "name": "reservesLength",
      "outputs": [
        {
          "internalType": "uint256",
          "name": "",
          "type": "uint256"
        }
      ],
      "stateMutability": "view",
      "type": "function",
      "constant": true
    },
    {
      "inputs": [
        {
          "internalType": "uint256",
          "name": "vaultId",
          "type": "uint256"
        },
        {
          "internalType": "uint256",
          "name": "elem",
          "type": "uint256"
        }
      ],
      "name": "reservesContains",
      "outputs": [
        {
          "internalType": "bool",
          "name": "",
          "type": "bool"
        }
      ],
      "stateMutability": "view",
      "type": "function",
      "constant": true
    },
    {
      "inputs": [
        {
          "internalType": "uint256",
          "name": "vaultId",
          "type": "uint256"
        },
        {
          "internalType": "uint256",
          "name": "index",
          "type": "uint256"
        }
      ],
      "name": "reservesAt",
      "outputs": [
        {
          "internalType": "uint256",
          "name": "",
          "type": "uint256"
        }
      ],
      "stateMutability": "view",
      "type": "function",
      "constant": true
    },
    {
      "inputs": [
        {
          "internalType": "uint256",
          "name": "vaultId",
          "type": "uint256"
        },
        {
          "internalType": "uint256",
          "name": "id",
          "type": "uint256"
        }
      ],
      "name": "requester",
      "outputs": [
        {
          "internalType": "address",
          "name": "",
          "type": "address"
        }
      ],
      "stateMutability": "view",
      "type": "function",
      "constant": true
    },
    {
      "inputs": [
        {
          "internalType": "uint256",
          "name": "vaultId",
          "type": "uint256"
        },
        {
          "internalType": "uint256",
          "name": "id",
          "type": "uint256"
        }
      ],
      "name": "isEligible",
      "outputs": [
        {
          "internalType": "bool",
          "name": "",
          "type": "bool"
        }
      ],
      "stateMutability": "view",
      "type": "function",
      "constant": true
    },
    {
      "inputs": [
        {
          "internalType": "uint256",
          "name": "vaultId",
          "type": "uint256"
        },
        {
          "internalType": "uint256",
          "name": "id",
          "type": "uint256"
        }
      ],
      "name": "shouldReserve",
      "outputs": [
        {
          "internalType": "bool",
          "name": "",
          "type": "bool"
        }
      ],
      "stateMutability": "view",
      "type": "function",
      "constant": true
    },
    {
      "inputs": [
        {
          "internalType": "uint256",
          "name": "vaultId",
          "type": "uint256"
        }
      ],
      "name": "flipEligOnRedeem",
      "outputs": [
        {
          "internalType": "bool",
          "name": "",
          "type": "bool"
        }
      ],
      "stateMutability": "view",
      "type": "function",
      "constant": true
    },
    {
      "inputs": [
        {
          "internalType": "uint256",
          "name": "vaultId",
          "type": "uint256"
        }
      ],
      "name": "negateEligibility",
      "outputs": [
        {
          "internalType": "bool",
          "name": "",
          "type": "bool"
        }
      ],
      "stateMutability": "view",
      "type": "function",
      "constant": true
    },
    {
      "inputs": [
        {
          "internalType": "uint256",
          "name": "vaultId",
          "type": "uint256"
        }
      ],
      "name": "isFinalized",
      "outputs": [
        {
          "internalType": "bool",
          "name": "",
          "type": "bool"
        }
      ],
      "stateMutability": "view",
      "type": "function",
      "constant": true
    },
    {
      "inputs": [
        {
          "internalType": "uint256",
          "name": "vaultId",
          "type": "uint256"
        }
      ],
      "name": "isClosed",
      "outputs": [
        {
          "internalType": "bool",
          "name": "",
          "type": "bool"
        }
      ],
      "stateMutability": "view",
      "type": "function",
      "constant": true
    },
    {
      "inputs": [
        {
          "internalType": "uint256",
          "name": "vaultId",
          "type": "uint256"
        }
      ],
      "name": "mintFees",
      "outputs": [
        {
          "internalType": "uint256",
          "name": "",
          "type": "uint256"
        },
        {
          "internalType": "uint256",
          "name": "",
          "type": "uint256"
        }
      ],
      "stateMutability": "view",
      "type": "function",
      "constant": true
    },
    {
      "inputs": [
        {
          "internalType": "uint256",
          "name": "vaultId",
          "type": "uint256"
        }
      ],
      "name": "burnFees",
      "outputs": [
        {
          "internalType": "uint256",
          "name": "",
          "type": "uint256"
        },
        {
          "internalType": "uint256",
          "name": "",
          "type": "uint256"
        }
      ],
      "stateMutability": "view",
      "type": "function",
      "constant": true
    },
    {
      "inputs": [
        {
          "internalType": "uint256",
          "name": "vaultId",
          "type": "uint256"
        }
      ],
      "name": "dualFees",
      "outputs": [
        {
          "internalType": "uint256",
          "name": "",
          "type": "uint256"
        },
        {
          "internalType": "uint256",
          "name": "",
          "type": "uint256"
        }
      ],
      "stateMutability": "view",
      "type": "function",
      "constant": true
    },
    {
      "inputs": [
        {
          "internalType": "uint256",
          "name": "vaultId",
          "type": "uint256"
        }
      ],
      "name": "supplierBounty",
      "outputs": [
        {
          "internalType": "uint256",
          "name": "",
          "type": "uint256"
        },
        {
          "internalType": "uint256",
          "name": "",
          "type": "uint256"
        }
      ],
      "stateMutability": "view",
      "type": "function",
      "constant": true
    },
    {
      "inputs": [
        {
          "internalType": "uint256",
          "name": "vaultId",
          "type": "uint256"
        }
      ],
      "name": "ethBalance",
      "outputs": [
        {
          "internalType": "uint256",
          "name": "",
          "type": "uint256"
        }
      ],
      "stateMutability": "view",
      "type": "function",
      "constant": true
    },
    {
      "inputs": [
        {
          "internalType": "uint256",
          "name": "vaultId",
          "type": "uint256"
        }
      ],
      "name": "tokenBalance",
      "outputs": [
        {
          "internalType": "uint256",
          "name": "",
          "type": "uint256"
        }
      ],
      "stateMutability": "view",
      "type": "function",
      "constant": true
    },
    {
      "inputs": [
        {
          "internalType": "uint256",
          "name": "vaultId",
          "type": "uint256"
        }
      ],
      "name": "isD2Vault",
      "outputs": [
        {
          "internalType": "bool",
          "name": "",
          "type": "bool"
        }
      ],
      "stateMutability": "view",
      "type": "function",
      "constant": true
    },
    {
      "inputs": [
        {
          "internalType": "uint256",
          "name": "vaultId",
          "type": "uint256"
        }
      ],
      "name": "d2AssetAddress",
      "outputs": [
        {
          "internalType": "address",
          "name": "",
          "type": "address"
        }
      ],
      "stateMutability": "view",
      "type": "function",
      "constant": true
    },
    {
      "inputs": [
        {
          "internalType": "uint256",
          "name": "vaultId",
          "type": "uint256"
        }
      ],
      "name": "d2Asset",
      "outputs": [
        {
          "internalType": "contract IERC20",
          "name": "",
          "type": "address"
        }
      ],
      "stateMutability": "view",
      "type": "function",
      "constant": true
    },
    {
      "inputs": [
        {
          "internalType": "uint256",
          "name": "vaultId",
          "type": "uint256"
        }
      ],
      "name": "d2Holdings",
      "outputs": [
        {
          "internalType": "uint256",
          "name": "",
          "type": "uint256"
        }
      ],
      "stateMutability": "view",
      "type": "function",
      "constant": true
    },
    {
      "inputs": [
        {
          "internalType": "uint256",
          "name": "vaultId",
          "type": "uint256"
        },
        {
          "internalType": "address",
          "name": "_xTokenAddress",
          "type": "address"
        }
      ],
      "name": "setXTokenAddress",
      "outputs": [],
      "stateMutability": "nonpayable",
      "type": "function"
    },
    {
      "inputs": [
        {
          "internalType": "uint256",
          "name": "vaultId",
          "type": "uint256"
        },
        {
          "internalType": "address",
          "name": "_nft",
          "type": "address"
        }
      ],
      "name": "setNftAddress",
      "outputs": [],
      "stateMutability": "nonpayable",
      "type": "function"
    },
    {
      "inputs": [
        {
          "internalType": "uint256",
          "name": "vaultId",
          "type": "uint256"
        },
        {
          "internalType": "address",
          "name": "_manager",
          "type": "address"
        }
      ],
      "name": "setManager",
      "outputs": [],
      "stateMutability": "nonpayable",
      "type": "function"
    },
    {
      "inputs": [
        {
          "internalType": "uint256",
          "name": "vaultId",
          "type": "uint256"
        }
      ],
      "name": "setXToken",
      "outputs": [],
      "stateMutability": "nonpayable",
      "type": "function"
    },
    {
      "inputs": [
        {
          "internalType": "uint256",
          "name": "vaultId",
          "type": "uint256"
        }
      ],
      "name": "setNft",
      "outputs": [],
      "stateMutability": "nonpayable",
      "type": "function"
    },
    {
      "inputs": [
        {
          "internalType": "uint256",
          "name": "vaultId",
          "type": "uint256"
        },
        {
          "internalType": "uint256",
          "name": "elem",
          "type": "uint256"
        }
      ],
      "name": "holdingsAdd",
      "outputs": [],
      "stateMutability": "nonpayable",
      "type": "function"
    },
    {
      "inputs": [
        {
          "internalType": "uint256",
          "name": "vaultId",
          "type": "uint256"
        },
        {
          "internalType": "uint256",
          "name": "elem",
          "type": "uint256"
        }
      ],
      "name": "holdingsRemove",
      "outputs": [],
      "stateMutability": "nonpayable",
      "type": "function"
    },
    {
      "inputs": [
        {
          "internalType": "uint256",
          "name": "vaultId",
          "type": "uint256"
        },
        {
          "internalType": "uint256",
          "name": "elem",
          "type": "uint256"
        }
      ],
      "name": "reservesAdd",
      "outputs": [],
      "stateMutability": "nonpayable",
      "type": "function"
    },
    {
      "inputs": [
        {
          "internalType": "uint256",
          "name": "vaultId",
          "type": "uint256"
        },
        {
          "internalType": "uint256",
          "name": "elem",
          "type": "uint256"
        }
      ],
      "name": "reservesRemove",
      "outputs": [],
      "stateMutability": "nonpayable",
      "type": "function"
    },
    {
      "inputs": [
        {
          "internalType": "uint256",
          "name": "vaultId",
          "type": "uint256"
        },
        {
          "internalType": "uint256",
          "name": "id",
          "type": "uint256"
        },
        {
          "internalType": "address",
          "name": "_requester",
          "type": "address"
        }
      ],
      "name": "setRequester",
      "outputs": [],
      "stateMutability": "nonpayable",
      "type": "function"
    },
    {
      "inputs": [
        {
          "internalType": "uint256",
          "name": "vaultId",
          "type": "uint256"
        },
        {
          "internalType": "uint256",
          "name": "id",
          "type": "uint256"
        },
        {
          "internalType": "bool",
          "name": "_bool",
          "type": "bool"
        }
      ],
      "name": "setIsEligible",
      "outputs": [],
      "stateMutability": "nonpayable",
      "type": "function"
    },
    {
      "inputs": [
        {
          "internalType": "uint256",
          "name": "vaultId",
          "type": "uint256"
        },
        {
          "internalType": "uint256",
          "name": "id",
          "type": "uint256"
        },
        {
          "internalType": "bool",
          "name": "_shouldReserve",
          "type": "bool"
        }
      ],
      "name": "setShouldReserve",
      "outputs": [],
      "stateMutability": "nonpayable",
      "type": "function"
    },
    {
      "inputs": [
        {
          "internalType": "uint256",
          "name": "vaultId",
          "type": "uint256"
        },
        {
          "internalType": "bool",
          "name": "flipElig",
          "type": "bool"
        }
      ],
      "name": "setFlipEligOnRedeem",
      "outputs": [],
      "stateMutability": "nonpayable",
      "type": "function"
    },
    {
      "inputs": [
        {
          "internalType": "uint256",
          "name": "vaultId",
          "type": "uint256"
        },
        {
          "internalType": "bool",
          "name": "negateElig",
          "type": "bool"
        }
      ],
      "name": "setNegateEligibility",
      "outputs": [],
      "stateMutability": "nonpayable",
      "type": "function"
    },
    {
      "inputs": [
        {
          "internalType": "uint256",
          "name": "vaultId",
          "type": "uint256"
        },
        {
          "internalType": "bool",
          "name": "_isFinalized",
          "type": "bool"
        }
      ],
      "name": "setIsFinalized",
      "outputs": [],
      "stateMutability": "nonpayable",
      "type": "function"
    },
    {
      "inputs": [
        {
          "internalType": "uint256",
          "name": "vaultId",
          "type": "uint256"
        },
        {
          "internalType": "bool",
          "name": "_isClosed",
          "type": "bool"
        }
      ],
      "name": "setIsClosed",
      "outputs": [],
      "stateMutability": "nonpayable",
      "type": "function"
    },
    {
      "inputs": [
        {
          "internalType": "uint256",
          "name": "vaultId",
          "type": "uint256"
        },
        {
          "internalType": "uint256",
          "name": "ethBase",
          "type": "uint256"
        },
        {
          "internalType": "uint256",
          "name": "ethStep",
          "type": "uint256"
        }
      ],
      "name": "setMintFees",
      "outputs": [],
      "stateMutability": "nonpayable",
      "type": "function"
    },
    {
      "inputs": [
        {
          "internalType": "uint256",
          "name": "vaultId",
          "type": "uint256"
        },
        {
          "internalType": "uint256",
          "name": "ethBase",
          "type": "uint256"
        },
        {
          "internalType": "uint256",
          "name": "ethStep",
          "type": "uint256"
        }
      ],
      "name": "setBurnFees",
      "outputs": [],
      "stateMutability": "nonpayable",
      "type": "function"
    },
    {
      "inputs": [
        {
          "internalType": "uint256",
          "name": "vaultId",
          "type": "uint256"
        },
        {
          "internalType": "uint256",
          "name": "ethBase",
          "type": "uint256"
        },
        {
          "internalType": "uint256",
          "name": "ethStep",
          "type": "uint256"
        }
      ],
      "name": "setDualFees",
      "outputs": [],
      "stateMutability": "nonpayable",
      "type": "function"
    },
    {
      "inputs": [
        {
          "internalType": "uint256",
          "name": "vaultId",
          "type": "uint256"
        },
        {
          "internalType": "uint256",
          "name": "ethMax",
          "type": "uint256"
        },
        {
          "internalType": "uint256",
          "name": "length",
          "type": "uint256"
        }
      ],
      "name": "setSupplierBounty",
      "outputs": [],
      "stateMutability": "nonpayable",
      "type": "function"
    },
    {
      "inputs": [
        {
          "internalType": "uint256",
          "name": "vaultId",
          "type": "uint256"
        },
        {
          "internalType": "uint256",
          "name": "_ethBalance",
          "type": "uint256"
        }
      ],
      "name": "setEthBalance",
      "outputs": [],
      "stateMutability": "nonpayable",
      "type": "function"
    },
    {
      "inputs": [
        {
          "internalType": "uint256",
          "name": "vaultId",
          "type": "uint256"
        },
        {
          "internalType": "uint256",
          "name": "_tokenBalance",
          "type": "uint256"
        }
      ],
      "name": "setTokenBalance",
      "outputs": [],
      "stateMutability": "nonpayable",
      "type": "function"
    },
    {
      "inputs": [
        {
          "internalType": "uint256",
          "name": "vaultId",
          "type": "uint256"
        },
        {
          "internalType": "bool",
          "name": "_isD2Vault",
          "type": "bool"
        }
      ],
      "name": "setIsD2Vault",
      "outputs": [],
      "stateMutability": "nonpayable",
      "type": "function"
    },
    {
      "inputs": [
        {
          "internalType": "uint256",
          "name": "vaultId",
          "type": "uint256"
        },
        {
          "internalType": "address",
          "name": "_d2Asset",
          "type": "address"
        }
      ],
      "name": "setD2AssetAddress",
      "outputs": [],
      "stateMutability": "nonpayable",
      "type": "function"
    },
    {
      "inputs": [
        {
          "internalType": "uint256",
          "name": "vaultId",
          "type": "uint256"
        }
      ],
      "name": "setD2Asset",
      "outputs": [],
      "stateMutability": "nonpayable",
      "type": "function"
    },
    {
      "inputs": [
        {
          "internalType": "uint256",
          "name": "vaultId",
          "type": "uint256"
        },
        {
          "internalType": "uint256",
          "name": "_d2Holdings",
          "type": "uint256"
        }
      ],
      "name": "setD2Holdings",
      "outputs": [],
      "stateMutability": "nonpayable",
      "type": "function"
    },
    {
      "inputs": [],
      "name": "addNewVault",
      "outputs": [
        {
          "internalType": "uint256",
          "name": "",
          "type": "uint256"
        }
      ],
      "stateMutability": "nonpayable",
      "type": "function"
    },
    {
      "inputs": [
        {
          "internalType": "address",
          "name": "addr",
          "type": "address"
        },
        {
          "internalType": "bool",
          "name": "_isExtension",
          "type": "bool"
        }
      ],
      "name": "setIsExtension",
      "outputs": [],
      "stateMutability": "nonpayable",
      "type": "function"
    },
    {
      "inputs": [
        {
          "internalType": "uint256",
          "name": "_randNonce",
          "type": "uint256"
        }
      ],
      "name": "setRandNonce",
      "outputs": [],
      "stateMutability": "nonpayable",
      "type": "function"
    }
  ],
  "bytecode": "0x60806040523480156200001157600080fd5b50620000226200002860201b60201c565b62000205565b600060019054906101000a900460ff16806200005057506200004f620001e660201b60201c565b5b806200006857506000809054906101000a900460ff16155b620000bf576040517f08c379a000000000000000000000000000000000000000000000000000000000815260040180806020018281038252602e8152602001806200507e602e913960400191505060405180910390fd5b60008060019054906101000a900460ff16159050801562000110576001600060016101000a81548160ff02191690831515021790555060016000806101000a81548160ff0219169083151502179055505b600062000122620001fd60201b60201c565b905080603360006101000a81548173ffffffffffffffffffffffffffffffffffffffff021916908373ffffffffffffffffffffffffffffffffffffffff1602179055508073ffffffffffffffffffffffffffffffffffffffff16600073ffffffffffffffffffffffffffffffffffffffff167f8be0079c531659141344cd1fd0a4f28419497f9722a3daafe3b4186f6b6457e060405160405180910390a3508015620001e35760008060016101000a81548160ff0219169083151502179055505b50565b6000803090506000813b9050600081149250505090565b600033905090565b614e6980620002156000396000f3fe608060405234801561001057600080fd5b50600436106103c55760003560e01c80637cb251d5116101ff578063b9f862021161011a578063e94dbf89116100ad578063f2fde38b1161007c578063f2fde38b146113b1578063f76c6f67146113f5578063f847ed481461143e578063f88fba8c1461149a576103c5565b8063e94dbf891461128d578063ec30064a146112cf578063ec475a1f1461131b578063f09e82e214611361576103c5565b8063d4816108116100e9578063d48161081461116b578063d5c78a28146111bb578063d80ce5e914611201578063e8e571181461121f576103c5565b8063b9f8620214611075578063be2cbc4f146110ad578063bf17f2f2146110e7578063cc82447314611129576103c5565b80638da5cb5b116101925780639989f93a116101615780639989f93a14610f275780639d0214cb14610f6b578063b7d0442314610fd9578063b980441b14611007576103c5565b80638da5cb5b14610e275780638e3f545f14610e715780639078d53514610e9f57806391c2302a14610ee1576103c5565b806383e8d7e3116101ce57806383e8d7e314610d2b57806388779e5d14610d65578063894289cc14610d9f5780638991342b14610ded576103c5565b80637cb251d514610c155780637f10d31414610c6557806381b10bc714610cbd57806382af54c914610d0d576103c5565b806333727c4d116102ef578063529814571161028257806361e013561161025157806361e0135614610b5f578063645058b314610b7d578063685c6d8114610bc9578063715018a614610c0b576103c5565b806352981457146109e95780635770f64014610a575780635bd1a28e14610acf5780636102815d14610b11576103c5565b806349afc6e5116102be57806349afc6e5146108d95780634ca153761461091b5780634cef6465146109615780634d0cb09814610999576103c5565b806333727c4d146107ab57806334f0fe50146107f15780634126372514610829578063485c4dc61461086b576103c5565b8063198e4788116103675780632911c27d116103365780632911c27d146106b357806329984915146107015780632ad5f0a1146107395780632ef30ad014610773576103c5565b8063198e4788146105a55780631ca1e492146105ee578063229d20731461062657806322af00d41461066a576103c5565b80630e4e411c116103a35780630e4e411c146104af5780630f3e56c9146104f15780630fb5def8146105295780631567925f14610557576103c5565b80630342a6ba146103ca57806305bb84851461041357806308b6195814610481575b600080fd5b6103f6600480360360208110156103e057600080fd5b8101908080359060200190929190505050611508565b604051808381526020018281526020019250505060405180910390f35b61043f6004803603602081101561042957600080fd5b8101908080359060200190929190505050611532565b604051808273ffffffffffffffffffffffffffffffffffffffff1673ffffffffffffffffffffffffffffffffffffffff16815260200191505060405180910390f35b6104ad6004803603602081101561049757600080fd5b810190808035906020019092919050505061156d565b005b6104ef600480360360608110156104c557600080fd5b810190808035906020019092919080359060200190929190803590602001909291905050506116dc565b005b6105276004803603604081101561050757600080fd5b810190808035906020019092919080359060200190929190505050611829565b005b6105556004803603602081101561053f57600080fd5b8101908080359060200190929190505050611954565b005b6105a36004803603604081101561056d57600080fd5b8101908080359060200190929190803573ffffffffffffffffffffffffffffffffffffffff169060200190929190505050611ac3565b005b6105d1600480360360208110156105bb57600080fd5b8101908080359060200190929190505050611c46565b604051808381526020018281526020019250505060405180910390f35b6106246004803603604081101561060457600080fd5b810190808035906020019092919080359060200190929190505050611c70565b005b6106686004803603606081101561063c57600080fd5b810190808035906020019092919080359060200190929190803515159060200190929190505050611d9b565b005b6106966004803603602081101561068057600080fd5b8101908080359060200190929190505050611ee9565b604051808381526020018281526020019250505060405180910390f35b6106ff600480360360408110156106c957600080fd5b8101908080359060200190929190803573ffffffffffffffffffffffffffffffffffffffff169060200190929190505050611f13565b005b6107376004803603604081101561071757600080fd5b810190808035906020019092919080359060200190929190505050612096565b005b6107716004803603604081101561074f57600080fd5b81019080803590602001909291908035151590602001909291905050506121b3565b005b6107a96004803603604081101561078957600080fd5b8101908080359060200190929190803590602001909291905050506122e7565b005b6107d7600480360360208110156107c157600080fd5b8101908080359060200190929190505050612404565b604051808215151515815260200191505060405180910390f35b6108276004803603604081101561080757600080fd5b81019080803590602001909291908035906020019092919050505061242c565b005b6108696004803603606081101561083f57600080fd5b81019080803590602001909291908035906020019092919080359060200190929190505050612557565b005b6108976004803603602081101561088157600080fd5b81019080803590602001909291905050506126a4565b604051808273ffffffffffffffffffffffffffffffffffffffff1673ffffffffffffffffffffffffffffffffffffffff16815260200191505060405180910390f35b610905600480360360208110156108ef57600080fd5b81019080803590602001909291905050506126df565b6040518082815260200191505060405180910390f35b6109476004803603602081101561093157600080fd5b81019080803590602001909291905050506126fa565b604051808215151515815260200191505060405180910390f35b6109976004803603604081101561097757600080fd5b810190808035906020019092919080359060200190929190505050612722565b005b6109cf600480360360408110156109af57600080fd5b81019080803590602001909291908035906020019092919050505061284d565b604051808215151515815260200191505060405180910390f35b610a15600480360360208110156109ff57600080fd5b8101908080359060200190929190505050612887565b604051808273ffffffffffffffffffffffffffffffffffffffff1673ffffffffffffffffffffffffffffffffffffffff16815260200191505060405180910390f35b610a8d60048036036040811015610a6d57600080fd5b8101908080359060200190929190803590602001909291905050506128c2565b604051808273ffffffffffffffffffffffffffffffffffffffff1673ffffffffffffffffffffffffffffffffffffffff16815260200191505060405180910390f35b610afb60048036036020811015610ae557600080fd5b810190808035906020019092919050505061290f565b6040518082815260200191505060405180910390f35b610b5d60048036036040811015610b2757600080fd5b8101908080359060200190929190803573ffffffffffffffffffffffffffffffffffffffff16906020019092919050505061292a565b005b610b67612aad565b6040518082815260200191505060405180910390f35b610bb360048036036040811015610b9357600080fd5b810190808035906020019092919080359060200190929190505050612ab3565b6040518082815260200191505060405180910390f35b610c0960048036036060811015610bdf57600080fd5b81019080803590602001909291908035906020019092919080359060200190929190505050612ae0565b005b610c13612c2d565b005b610c4b60048036036040811015610c2b57600080fd5b810190808035906020019092919080359060200190929190505050612db8565b604051808215151515815260200191505060405180910390f35b610cbb60048036036060811015610c7b57600080fd5b810190808035906020019092919080359060200190929190803573ffffffffffffffffffffffffffffffffffffffff169060200190929190505050612de5565b005b610cf360048036036040811015610cd357600080fd5b810190808035906020019092919080359060200190929190505050612f82565b604051808215151515815260200191505060405180910390f35b610d15612faf565b6040518082815260200191505060405180910390f35b610d6360048036036040811015610d4157600080fd5b8101908080359060200190929190803515159060200190929190505050612fbc565b005b610d9d60048036036040811015610d7b57600080fd5b81019080803590602001909291908035151590602001909291905050506130f0565b005b610deb60048036036040811015610db557600080fd5b8101908080359060200190929190803573ffffffffffffffffffffffffffffffffffffffff169060200190929190505050613224565b005b610e2560048036036040811015610e0357600080fd5b81019080803590602001909291908035151590602001909291905050506133a7565b005b610e2f6134db565b604051808273ffffffffffffffffffffffffffffffffffffffff1673ffffffffffffffffffffffffffffffffffffffff16815260200191505060405180910390f35b610e9d60048036036020811015610e8757600080fd5b8101908080359060200190929190505050613505565b005b610edf60048036036060811015610eb557600080fd5b81019080803590602001909291908035906020019092919080359060200190929190505050613674565b005b610f0d60048036036020811015610ef757600080fd5b81019080803590602001909291905050506137c1565b604051808215151515815260200191505060405180910390f35b610f6960048036036060811015610f3d57600080fd5b8101908080359060200190929190803590602001909291908035151590602001909291905050506137e9565b005b610f9760048036036020811015610f8157600080fd5b8101908080359060200190929190505050613937565b604051808273ffffffffffffffffffffffffffffffffffffffff1673ffffffffffffffffffffffffffffffffffffffff16815260200191505060405180910390f35b61100560048036036020811015610fef57600080fd5b8101908080359060200190929190505050613972565b005b6110336004803603602081101561101d57600080fd5b8101908080359060200190929190505050613a7d565b604051808273ffffffffffffffffffffffffffffffffffffffff1673ffffffffffffffffffffffffffffffffffffffff16815260200191505060405180910390f35b6110ab6004803603604081101561108b57600080fd5b810190808035906020019092919080359060200190929190505050613ab8565b005b6110e5600480360360408110156110c357600080fd5b8101908080359060200190929190803515159060200190929190505050613bd5565b005b611113600480360360208110156110fd57600080fd5b8101908080359060200190929190505050613d09565b6040518082815260200191505060405180910390f35b6111556004803603602081101561113f57600080fd5b8101908080359060200190929190505050613d24565b6040518082815260200191505060405180910390f35b6111b96004803603604081101561118157600080fd5b81019080803573ffffffffffffffffffffffffffffffffffffffff169060200190929190803515159060200190929190505050613d46565b005b6111e7600480360360208110156111d157600080fd5b8101908080359060200190929190505050613eda565b604051808215151515815260200191505060405180910390f35b611209613f02565b6040518082815260200191505060405180910390f35b61124b6004803603602081101561123557600080fd5b81019080803590602001909291905050506143f4565b604051808273ffffffffffffffffffffffffffffffffffffffff1673ffffffffffffffffffffffffffffffffffffffff16815260200191505060405180910390f35b6112b9600480360360208110156112a357600080fd5b810190808035906020019092919050505061442f565b6040518082815260200191505060405180910390f35b611305600480360360408110156112e557600080fd5b810190808035906020019092919080359060200190929190505050614451565b6040518082815260200191505060405180910390f35b6113476004803603602081101561133157600080fd5b810190808035906020019092919050505061447e565b604051808215151515815260200191505060405180910390f35b6113976004803603604081101561137757600080fd5b8101908080359060200190929190803590602001909291905050506144a6565b604051808215151515815260200191505060405180910390f35b6113f3600480360360208110156113c757600080fd5b81019080803573ffffffffffffffffffffffffffffffffffffffff1690602001909291905050506144e0565b005b6114216004803603602081101561140b57600080fd5b81019080803590602001909291905050506146f0565b604051808381526020018281526020019250505060405180910390f35b6114806004803603602081101561145457600080fd5b81019080803573ffffffffffffffffffffffffffffffffffffffff16906020019092919050505061471a565b604051808215151515815260200191505060405180910390f35b6114c6600480360360208110156114b057600080fd5b810190808035906020019092919050505061473a565b604051808273ffffffffffffffffffffffffffffffffffffffff1673ffffffffffffffffffffffffffffffffffffffff16815260200191505060405180910390f35b600080600061151684614775565b905080600f016000015481600f01600101549250925050915091565b60008061153e83614775565b90508060180160009054906101000a900473ffffffffffffffffffffffffffffffffffffffff16915050919050565b611575614813565b73ffffffffffffffffffffffffffffffffffffffff16603360009054906101000a900473ffffffffffffffffffffffffffffffffffffffff1673ffffffffffffffffffffffffffffffffffffffff1614611637576040517f08c379a00000000000000000000000000000000000000000000000000000000081526004018080602001828103825260208152602001807f4f776e61626c653a2063616c6c6572206973206e6f7420746865206f776e657281525060200191505060405180910390fd5b600061164282614775565b90508060010160009054906101000a900473ffffffffffffffffffffffffffffffffffffffff168160040160006101000a81548173ffffffffffffffffffffffffffffffffffffffff021916908373ffffffffffffffffffffffffffffffffffffffff160217905550817f5ea84bd5113a46322cd62f10d4359965a8d9c7d7c0656dd9dcebbb66ee4aa22060405160405180910390a25050565b6116e4614813565b73ffffffffffffffffffffffffffffffffffffffff16603360009054906101000a900473ffffffffffffffffffffffffffffffffffffffff1673ffffffffffffffffffffffffffffffffffffffff16146117a6576040517f08c379a00000000000000000000000000000000000000000000000000000000081526004018080602001828103825260208152602001807f4f776e61626c653a2063616c6c6572206973206e6f7420746865206f776e657281525060200191505060405180910390fd5b60006117b184614775565b905060405180604001604052808481526020018381525081600f016000820151816000015560208201518160010155905050837f5dc1f1a57cb73632df40add69dc9003777a380b1d8885828588e95ae6fe67c088484604051808381526020018281526020019250505060405180910390a250505050565b611831614813565b73ffffffffffffffffffffffffffffffffffffffff16603360009054906101000a900473ffffffffffffffffffffffffffffffffffffffff1673ffffffffffffffffffffffffffffffffffffffff16146118f3576040517f08c379a00000000000000000000000000000000000000000000000000000000081526004018080602001828103825260208152602001807f4f776e61626c653a2063616c6c6572206973206e6f7420746865206f776e657281525060200191505060405180910390fd5b60006118fe83614775565b9050611916828260050161481b90919063ffffffff16565b50827f57aeca9ebcbf8518388faad0c10995a3cf7c3e0aade228ef966ae5448ec26251836040518082815260200191505060405180910390a2505050565b61195c614813565b73ffffffffffffffffffffffffffffffffffffffff16603360009054906101000a900473ffffffffffffffffffffffffffffffffffffffff1673ffffffffffffffffffffffffffffffffffffffff1614611a1e576040517f08c379a00000000000000000000000000000000000000000000000000000000081526004018080602001828103825260208152602001807f4f776e61626c653a2063616c6c6572206973206e6f7420746865206f776e657281525060200191505060405180910390fd5b6000611a2982614775565b90508060000160009054906101000a900473ffffffffffffffffffffffffffffffffffffffff168160030160006101000a81548173ffffffffffffffffffffffffffffffffffffffff021916908373ffffffffffffffffffffffffffffffffffffffff160217905550817f5e03c476139fa16bd35951ba1d63195510a502060869841d8fda64204dccd29960405160405180910390a25050565b611acb614813565b73ffffffffffffffffffffffffffffffffffffffff16603360009054906101000a900473ffffffffffffffffffffffffffffffffffffffff1673ffffffffffffffffffffffffffffffffffffffff1614611b8d576040517f08c379a00000000000000000000000000000000000000000000000000000000081526004018080602001828103825260208152602001807f4f776e61626c653a2063616c6c6572206973206e6f7420746865206f776e657281525060200191505060405180910390fd5b6000611b9883614775565b9050818160000160006101000a81548173ffffffffffffffffffffffffffffffffffffffff021916908373ffffffffffffffffffffffffffffffffffffffff160217905550827f6c2aff17454a55ad5289ade279d69ef2eeb971ef80dd12206a4a360884b2ee9183604051808273ffffffffffffffffffffffffffffffffffffffff1673ffffffffffffffffffffffffffffffffffffffff16815260200191505060405180910390a2505050565b6000806000611c5484614775565b9050806013016000015481601301600101549250925050915091565b611c78614813565b73ffffffffffffffffffffffffffffffffffffffff16603360009054906101000a900473ffffffffffffffffffffffffffffffffffffffff1673ffffffffffffffffffffffffffffffffffffffff1614611d3a576040517f08c379a00000000000000000000000000000000000000000000000000000000081526004018080602001828103825260208152602001807f4f776e61626c653a2063616c6c6572206973206e6f7420746865206f776e657281525060200191505060405180910390fd5b6000611d4583614775565b9050611d5d828260070161483590919063ffffffff16565b50827f84e321d5b280b3d196d0cfcf27880cd8df90687442a64b8ed057d44bb264bf3c836040518082815260200191505060405180910390a2505050565b611da3614813565b73ffffffffffffffffffffffffffffffffffffffff16603360009054906101000a900473ffffffffffffffffffffffffffffffffffffffff1673ffffffffffffffffffffffffffffffffffffffff1614611e65576040517f08c379a00000000000000000000000000000000000000000000000000000000081526004018080602001828103825260208152602001807f4f776e61626c653a2063616c6c6572206973206e6f7420746865206f776e657281525060200191505060405180910390fd5b6000611e7084614775565b90508181600b01600085815260200190815260200160002060006101000a81548160ff021916908315150217905550837f084f1fbd73d04641975de2d232a3764d8ded45c5a6ba3a116a535906848f617a848460405180838152602001821515151581526020019250505060405180910390a250505050565b6000806000611ef784614775565b905080600d016000015481600d01600101549250925050915091565b611f1b614813565b73ffffffffffffffffffffffffffffffffffffffff16603360009054906101000a900473ffffffffffffffffffffffffffffffffffffffff1673ffffffffffffffffffffffffffffffffffffffff1614611fdd576040517f08c379a00000000000000000000000000000000000000000000000000000000081526004018080602001828103825260208152602001807f4f776e61626c653a2063616c6c6572206973206e6f7420746865206f776e657281525060200191505060405180910390fd5b6000611fe883614775565b9050818160020160006101000a81548173ffffffffffffffffffffffffffffffffffffffff021916908373ffffffffffffffffffffffffffffffffffffffff160217905550827fc8000246c1d9811c2ba92768bbeb769a4d08827c5c08ce9f63c92372e2cca4cc83604051808273ffffffffffffffffffffffffffffffffffffffff1673ffffffffffffffffffffffffffffffffffffffff16815260200191505060405180910390a2505050565b61209e614813565b73ffffffffffffffffffffffffffffffffffffffff16603360009054906101000a900473ffffffffffffffffffffffffffffffffffffffff1673ffffffffffffffffffffffffffffffffffffffff1614612160576040517f08c379a00000000000000000000000000000000000000000000000000000000081526004018080602001828103825260208152602001807f4f776e61626c653a2063616c6c6572206973206e6f7420746865206f776e657281525060200191505060405180910390fd5b600061216b83614775565b9050818160150181905550827f2d8abdddd30bdc963a2127e0e539acaf009041c64dcdec91d19750fb025ce31b836040518082815260200191505060405180910390a2505050565b6121bb614813565b73ffffffffffffffffffffffffffffffffffffffff16603360009054906101000a900473ffffffffffffffffffffffffffffffffffffffff1673ffffffffffffffffffffffffffffffffffffffff161461227d576040517f08c379a00000000000000000000000000000000000000000000000000000000081526004018080602001828103825260208152602001807f4f776e61626c653a2063616c6c6572206973206e6f7420746865206f776e657281525060200191505060405180910390fd5b600061228883614775565b90508181600c0160016101000a81548160ff021916908315150217905550827fddb9f51590fe0bdecdc57e23ae697887db11555067d9a1078d489a999fa8b8a283604051808215151515815260200191505060405180910390a2505050565b6122ef614813565b73ffffffffffffffffffffffffffffffffffffffff16603360009054906101000a900473ffffffffffffffffffffffffffffffffffffffff1673ffffffffffffffffffffffffffffffffffffffff16146123b1576040517f08c379a00000000000000000000000000000000000000000000000000000000081526004018080602001828103825260208152602001807f4f776e61626c653a2063616c6c6572206973206e6f7420746865206f776e657281525060200191505060405180910390fd5b60006123bc83614775565b9050818160190181905550827f1efa48cd90700ef86b22272ae3640598c5e73992ed59a8f73d01bceb3990633a836040518082815260200191505060405180910390a2505050565b60008061241083614775565b905080600c0160029054906101000a900460ff16915050919050565b612434614813565b73ffffffffffffffffffffffffffffffffffffffff16603360009054906101000a900473ffffffffffffffffffffffffffffffffffffffff1673ffffffffffffffffffffffffffffffffffffffff16146124f6576040517f08c379a00000000000000000000000000000000000000000000000000000000081526004018080602001828103825260208152602001807f4f776e61626c653a2063616c6c6572206973206e6f7420746865206f776e657281525060200191505060405180910390fd5b600061250183614775565b9050612519828260070161481b90919063ffffffff16565b50827f7630c227de7ca3d22592f5e527db44534ba07b636b21054277f090461ad8e71d836040518082815260200191505060405180910390a2505050565b61255f614813565b73ffffffffffffffffffffffffffffffffffffffff16603360009054906101000a900473ffffffffffffffffffffffffffffffffffffffff1673ffffffffffffffffffffffffffffffffffffffff1614612621576040517f08c379a00000000000000000000000000000000000000000000000000000000081526004018080602001828103825260208152602001807f4f776e61626c653a2063616c6c6572206973206e6f7420746865206f776e657281525060200191505060405180910390fd5b600061262c84614775565b9050604051806040016040528084815260200183815250816013016000820151816000015560208201518160010155905050837f0eda34ba8045293eb97451661d939ea3ed7ffce35d0eb73a19be2cc507ff03c38484604051808381526020018281526020019250505060405180910390a250505050565b6000806126b083614775565b90508060170160019054906101000a900473ffffffffffffffffffffffffffffffffffffffff16915050919050565b6000806126eb83614775565b90508060160154915050919050565b60008061270683614775565b90508060170160009054906101000a900460ff16915050919050565b61272a614813565b73ffffffffffffffffffffffffffffffffffffffff16603360009054906101000a900473ffffffffffffffffffffffffffffffffffffffff1673ffffffffffffffffffffffffffffffffffffffff16146127ec576040517f08c379a00000000000000000000000000000000000000000000000000000000081526004018080602001828103825260208152602001807f4f776e61626c653a2063616c6c6572206973206e6f7420746865206f776e657281525060200191505060405180910390fd5b60006127f783614775565b905061280f828260050161483590919063ffffffff16565b50827f28ac5e67a9fbee828ceabbf71023e6a3fc1e17f1c24cb3d03ba083e070147cea836040518082815260200191505060405180910390a2505050565b60008061285984614775565b905080600b01600084815260200190815260200160002060009054906101000a900460ff1691505092915050565b60008061289383614775565b90508060020160009054906101000a900473ffffffffffffffffffffffffffffffffffffffff16915050919050565b6000806128ce84614775565b905080600901600084815260200190815260200160002060009054906101000a900473ffffffffffffffffffffffffffffffffffffffff1691505092915050565b60008061291b83614775565b90508060190154915050919050565b612932614813565b73ffffffffffffffffffffffffffffffffffffffff16603360009054906101000a900473ffffffffffffffffffffffffffffffffffffffff1673ffffffffffffffffffffffffffffffffffffffff16146129f4576040517f08c379a00000000000000000000000000000000000000000000000000000000081526004018080602001828103825260208152602001807f4f776e61626c653a2063616c6c6572206973206e6f7420746865206f776e657281525060200191505060405180910390fd5b60006129ff83614775565b9050818160170160016101000a81548173ffffffffffffffffffffffffffffffffffffffff021916908373ffffffffffffffffffffffffffffffffffffffff160217905550827f48c11e9e162eed7b0eda1c0bc31b7268f93a8ace56ea28b2ef32dac6441eae5183604051808273ffffffffffffffffffffffffffffffffffffffff1673ffffffffffffffffffffffffffffffffffffffff16815260200191505060405180910390a2505050565b60365481565b600080612abf84614775565b9050612ad7838260050161484f90919063ffffffff16565b91505092915050565b612ae8614813565b73ffffffffffffffffffffffffffffffffffffffff16603360009054906101000a900473ffffffffffffffffffffffffffffffffffffffff1673ffffffffffffffffffffffffffffffffffffffff1614612baa576040517f08c379a00000000000000000000000000000000000000000000000000000000081526004018080602001828103825260208152602001807f4f776e61626c653a2063616c6c6572206973206e6f7420746865206f776e657281525060200191505060405180910390fd5b6000612bb584614775565b905060405180604001604052808481526020018381525081600d016000820151816000015560208201518160010155905050837f2fb35d13cd3bf917c1053ce907d1883f17c7478a85b5acac49e628e5880fba888484604051808381526020018281526020019250505060405180910390a250505050565b612c35614813565b73ffffffffffffffffffffffffffffffffffffffff16603360009054906101000a900473ffffffffffffffffffffffffffffffffffffffff1673ffffffffffffffffffffffffffffffffffffffff1614612cf7576040517f08c379a00000000000000000000000000000000000000000000000000000000081526004018080602001828103825260208152602001807f4f776e61626c653a2063616c6c6572206973206e6f7420746865206f776e657281525060200191505060405180910390fd5b600073ffffffffffffffffffffffffffffffffffffffff16603360009054906101000a900473ffffffffffffffffffffffffffffffffffffffff1673ffffffffffffffffffffffffffffffffffffffff167f8be0079c531659141344cd1fd0a4f28419497f9722a3daafe3b4186f6b6457e060405160405180910390a36000603360006101000a81548173ffffffffffffffffffffffffffffffffffffffff021916908373ffffffffffffffffffffffffffffffffffffffff160217905550565b600080612dc484614775565b9050612ddc838260050161486990919063ffffffff16565b91505092915050565b612ded614813565b73ffffffffffffffffffffffffffffffffffffffff16603360009054906101000a900473ffffffffffffffffffffffffffffffffffffffff1673ffffffffffffffffffffffffffffffffffffffff1614612eaf576040517f08c379a00000000000000000000000000000000000000000000000000000000081526004018080602001828103825260208152602001807f4f776e61626c653a2063616c6c6572206973206e6f7420746865206f776e657281525060200191505060405180910390fd5b6000612eba84614775565b90508181600901600085815260200190815260200160002060006101000a81548173ffffffffffffffffffffffffffffffffffffffff021916908373ffffffffffffffffffffffffffffffffffffffff160217905550837f65471394253254b722ae74b9486d45181dd45fc13ed737d8ebda7d7e9afea4e38484604051808381526020018273ffffffffffffffffffffffffffffffffffffffff1673ffffffffffffffffffffffffffffffffffffffff1681526020019250505060405180910390a250505050565b600080612f8e84614775565b9050612fa6838260050161486990919063ffffffff16565b91505092915050565b6000603480549050905090565b612fc4614813565b73ffffffffffffffffffffffffffffffffffffffff16603360009054906101000a900473ffffffffffffffffffffffffffffffffffffffff1673ffffffffffffffffffffffffffffffffffffffff1614613086576040517f08c379a00000000000000000000000000000000000000000000000000000000081526004018080602001828103825260208152602001807f4f776e61626c653a2063616c6c6572206973206e6f7420746865206f776e657281525060200191505060405180910390fd5b600061309183614775565b90508181600c0160006101000a81548160ff021916908315150217905550827f8e08a20b1e04816d9b16dce8e887cd6900ef59ac4bb1c9635492c4348f4f4c6383604051808215151515815260200191505060405180910390a2505050565b6130f8614813565b73ffffffffffffffffffffffffffffffffffffffff16603360009054906101000a900473ffffffffffffffffffffffffffffffffffffffff1673ffffffffffffffffffffffffffffffffffffffff16146131ba576040517f08c379a00000000000000000000000000000000000000000000000000000000081526004018080602001828103825260208152602001807f4f776e61626c653a2063616c6c6572206973206e6f7420746865206f776e657281525060200191505060405180910390fd5b60006131c583614775565b9050818160170160006101000a81548160ff021916908315150217905550827f7aafe38d50808f0815cf763d34e6dece6d69b40b134af47579005b07f03ad1c283604051808215151515815260200191505060405180910390a2505050565b61322c614813565b73ffffffffffffffffffffffffffffffffffffffff16603360009054906101000a900473ffffffffffffffffffffffffffffffffffffffff1673ffffffffffffffffffffffffffffffffffffffff16146132ee576040517f08c379a00000000000000000000000000000000000000000000000000000000081526004018080602001828103825260208152602001807f4f776e61626c653a2063616c6c6572206973206e6f7420746865206f776e657281525060200191505060405180910390fd5b60006132f983614775565b9050818160010160006101000a81548173ffffffffffffffffffffffffffffffffffffffff021916908373ffffffffffffffffffffffffffffffffffffffff160217905550827fa9599c8f981b5d4e9f38b293079d66264ca09eee9d5f2e9fc01b1643261610b183604051808273ffffffffffffffffffffffffffffffffffffffff1673ffffffffffffffffffffffffffffffffffffffff16815260200191505060405180910390a2505050565b6133af614813565b73ffffffffffffffffffffffffffffffffffffffff16603360009054906101000a900473ffffffffffffffffffffffffffffffffffffffff1673ffffffffffffffffffffffffffffffffffffffff1614613471576040517f08c379a00000000000000000000000000000000000000000000000000000000081526004018080602001828103825260208152602001807f4f776e61626c653a2063616c6c6572206973206e6f7420746865206f776e657281525060200191505060405180910390fd5b600061347c83614775565b90508181600c0160026101000a81548160ff021916908315150217905550827fcd9a16ebcc05a90074457c50993c0b0b595b9f9c9e72ec64b59dc99c42d7338e83604051808215151515815260200191505060405180910390a2505050565b6000603360009054906101000a900473ffffffffffffffffffffffffffffffffffffffff16905090565b61350d614813565b73ffffffffffffffffffffffffffffffffffffffff16603360009054906101000a900473ffffffffffffffffffffffffffffffffffffffff1673ffffffffffffffffffffffffffffffffffffffff16146135cf576040517f08c379a00000000000000000000000000000000000000000000000000000000081526004018080602001828103825260208152602001807f4f776e61626c653a2063616c6c6572206973206e6f7420746865206f776e657281525060200191505060405180910390fd5b60006135da82614775565b90508060170160019054906101000a900473ffffffffffffffffffffffffffffffffffffffff168160180160006101000a81548173ffffffffffffffffffffffffffffffffffffffff021916908373ffffffffffffffffffffffffffffffffffffffff160217905550817feee04a5463c195553b6330c1edf5ae358da94fb1999c2cad99c251c239488d0960405160405180910390a25050565b61367c614813565b73ffffffffffffffffffffffffffffffffffffffff16603360009054906101000a900473ffffffffffffffffffffffffffffffffffffffff1673ffffffffffffffffffffffffffffffffffffffff161461373e576040517f08c379a00000000000000000000000000000000000000000000000000000000081526004018080602001828103825260208152602001807f4f776e61626c653a2063616c6c6572206973206e6f7420746865206f776e657281525060200191505060405180910390fd5b600061374984614775565b9050604051806040016040528084815260200183815250816011016000820151816000015560208201518160010155905050837f574e952daadb7c8b97a8b8919cd63e33a198fd07b3a643a684890a10de4888878484604051808381526020018281526020019250505060405180910390a250505050565b6000806137cd83614775565b905080600c0160009054906101000a900460ff16915050919050565b6137f1614813565b73ffffffffffffffffffffffffffffffffffffffff16603360009054906101000a900473ffffffffffffffffffffffffffffffffffffffff1673ffffffffffffffffffffffffffffffffffffffff16146138b3576040517f08c379a00000000000000000000000000000000000000000000000000000000081526004018080602001828103825260208152602001807f4f776e61626c653a2063616c6c6572206973206e6f7420746865206f776e657281525060200191505060405180910390fd5b60006138be84614775565b90508181600a01600085815260200190815260200160002060006101000a81548160ff021916908315150217905550837fed088e82a87722d140977a58b544b488a963143f2c54ca3dc695aa23c3ccac71848460405180838152602001821515151581526020019250505060405180910390a250505050565b60008061394383614775565b90508060040160009054906101000a900473ffffffffffffffffffffffffffffffffffffffff16915050919050565b61397a614813565b73ffffffffffffffffffffffffffffffffffffffff16603360009054906101000a900473ffffffffffffffffffffffffffffffffffffffff1673ffffffffffffffffffffffffffffffffffffffff1614613a3c576040517f08c379a00000000000000000000000000000000000000000000000000000000081526004018080602001828103825260208152602001807f4f776e61626c653a2063616c6c6572206973206e6f7420746865206f776e657281525060200191505060405180910390fd5b806036819055507f3818a421a4563e2a63cfb3aad4195376d771b7efc7a824455fd6a66e3a33e504816040518082815260200191505060405180910390a150565b600080613a8983614775565b90508060000160009054906101000a900473ffffffffffffffffffffffffffffffffffffffff16915050919050565b613ac0614813565b73ffffffffffffffffffffffffffffffffffffffff16603360009054906101000a900473ffffffffffffffffffffffffffffffffffffffff1673ffffffffffffffffffffffffffffffffffffffff1614613b82576040517f08c379a00000000000000000000000000000000000000000000000000000000081526004018080602001828103825260208152602001807f4f776e61626c653a2063616c6c6572206973206e6f7420746865206f776e657281525060200191505060405180910390fd5b6000613b8d83614775565b9050818160160181905550827f12713ed52216e00be10c76efcbc0f220f96bff8c8d58d38e6c5a0d79d32ff76a836040518082815260200191505060405180910390a2505050565b613bdd614813565b73ffffffffffffffffffffffffffffffffffffffff16603360009054906101000a900473ffffffffffffffffffffffffffffffffffffffff1673ffffffffffffffffffffffffffffffffffffffff1614613c9f576040517f08c379a00000000000000000000000000000000000000000000000000000000081526004018080602001828103825260208152602001807f4f776e61626c653a2063616c6c6572206973206e6f7420746865206f776e657281525060200191505060405180910390fd5b6000613caa83614775565b90508181600c0160036101000a81548160ff021916908315150217905550827fb4deaee2ecdf6f83b99a3ca870c5fb396f34584c0b7958203ec7f5d8268cc13d83604051808215151515815260200191505060405180910390a2505050565b600080613d1583614775565b90508060150154915050919050565b600080613d3083614775565b9050613d3e81600501614883565b915050919050565b613d4e614813565b73ffffffffffffffffffffffffffffffffffffffff16603360009054906101000a900473ffffffffffffffffffffffffffffffffffffffff1673ffffffffffffffffffffffffffffffffffffffff1614613e10576040517f08c379a00000000000000000000000000000000000000000000000000000000081526004018080602001828103825260208152602001807f4f776e61626c653a2063616c6c6572206973206e6f7420746865206f776e657281525060200191505060405180910390fd5b80603560008473ffffffffffffffffffffffffffffffffffffffff1673ffffffffffffffffffffffffffffffffffffffff16815260200190815260200160002060006101000a81548160ff0219169083151502179055507f8f83baa46ebc1add25ec9570e8a4db788099edb416110121c20275acb59c53548282604051808373ffffffffffffffffffffffffffffffffffffffff1673ffffffffffffffffffffffffffffffffffffffff168152602001821515151581526020019250505060405180910390a15050565b600080613ee683614775565b905080600c0160039054906101000a900460ff16915050919050565b6000613f0c614813565b73ffffffffffffffffffffffffffffffffffffffff16603360009054906101000a900473ffffffffffffffffffffffffffffffffffffffff1673ffffffffffffffffffffffffffffffffffffffff1614613fce576040517f08c379a00000000000000000000000000000000000000000000000000000000081526004018080602001828103825260208152602001807f4f776e61626c653a2063616c6c6572206973206e6f7420746865206f776e657281525060200191505060405180910390fd5b613fd6614bb1565b60348190806001815401808255809150506001900390600052602060002090601a020160009091909190915060008201518160000160006101000a81548173ffffffffffffffffffffffffffffffffffffffff021916908373ffffffffffffffffffffffffffffffffffffffff16021790555060208201518160010160006101000a81548173ffffffffffffffffffffffffffffffffffffffff021916908373ffffffffffffffffffffffffffffffffffffffff16021790555060408201518160020160006101000a81548173ffffffffffffffffffffffffffffffffffffffff021916908373ffffffffffffffffffffffffffffffffffffffff16021790555060608201518160030160006101000a81548173ffffffffffffffffffffffffffffffffffffffff021916908373ffffffffffffffffffffffffffffffffffffffff16021790555060808201518160040160006101000a81548173ffffffffffffffffffffffffffffffffffffffff021916908373ffffffffffffffffffffffffffffffffffffffff16021790555060a0820151816005016000820151816000016000820151816000019080519060200190614193929190614d19565b505050505060c08201518160070160008201518160000160008201518160000190805190602001906141c6929190614d19565b505050505060e082015181600c0160006101000a81548160ff02191690831515021790555061010082015181600c0160016101000a81548160ff02191690831515021790555061012082015181600c0160026101000a81548160ff02191690831515021790555061014082015181600c0160036101000a81548160ff02191690831515021790555061016082015181600d016000820151816000015560208201518160010155505061018082015181600f01600082015181600001556020820151816001015550506101a082015181601101600082015181600001556020820151816001015550506101c082015181601301600082015181600001556020820151816001015550506101e0820151816015015561020082015181601601556102208201518160170160006101000a81548160ff0219169083151502179055506102408201518160170160016101000a81548173ffffffffffffffffffffffffffffffffffffffff021916908373ffffffffffffffffffffffffffffffffffffffff1602179055506102608201518160180160006101000a81548173ffffffffffffffffffffffffffffffffffffffff021916908373ffffffffffffffffffffffffffffffffffffffff1602179055506102808201518160190155505060006143bd600160348054905061489890919063ffffffff16565b9050807f5ac5a16d3d799c1ec7fc155ef741cdaa9c610cea0b7cdc31826e9206061a3dff60405160405180910390a2809250505090565b60008061440083614775565b90508060030160009054906101000a900473ffffffffffffffffffffffffffffffffffffffff16915050919050565b60008061443b83614775565b905061444981600501614883565b915050919050565b60008061445d84614775565b9050614475838260050161484f90919063ffffffff16565b91505092915050565b60008061448a83614775565b905080600c0160019054906101000a900460ff16915050919050565b6000806144b284614775565b905080600a01600084815260200190815260200160002060009054906101000a900460ff1691505092915050565b6144e8614813565b73ffffffffffffffffffffffffffffffffffffffff16603360009054906101000a900473ffffffffffffffffffffffffffffffffffffffff1673ffffffffffffffffffffffffffffffffffffffff16146145aa576040517f08c379a00000000000000000000000000000000000000000000000000000000081526004018080602001828103825260208152602001807f4f776e61626c653a2063616c6c6572206973206e6f7420746865206f776e657281525060200191505060405180910390fd5b600073ffffffffffffffffffffffffffffffffffffffff168173ffffffffffffffffffffffffffffffffffffffff161415614630576040517f08c379a0000000000000000000000000000000000000000000000000000000008152600401808060200182810382526026815260200180614e0e6026913960400191505060405180910390fd5b8073ffffffffffffffffffffffffffffffffffffffff16603360009054906101000a900473ffffffffffffffffffffffffffffffffffffffff1673ffffffffffffffffffffffffffffffffffffffff167f8be0079c531659141344cd1fd0a4f28419497f9722a3daafe3b4186f6b6457e060405160405180910390a380603360006101000a81548173ffffffffffffffffffffffffffffffffffffffff021916908373ffffffffffffffffffffffffffffffffffffffff16021790555050565b60008060006146fe84614775565b9050806011016000015481601101600101549250925050915091565b60356020528060005260406000206000915054906101000a900460ff1681565b60008061474683614775565b90508060010160009054906101000a900473ffffffffffffffffffffffffffffffffffffffff16915050919050565b600060348054905082106147f1576040517f08c379a000000000000000000000000000000000000000000000000000000000815260040180806020018281038252600f8152602001807f496e76616c6964207661756c744964000000000000000000000000000000000081525060200191505060405180910390fd5b603482815481106147fe57fe5b90600052602060002090601a02019050919050565b600033905090565b600061482d836000018360001b6148e2565b905092915050565b6000614847836000018360001b6149ca565b905092915050565b600061485e8360000183614a3a565b60001c905092915050565b600061487b836000018360001b614abd565b905092915050565b600061489182600001614ae0565b9050919050565b60006148da83836040518060400160405280601e81526020017f536166654d6174683a207375627472616374696f6e206f766572666c6f770000815250614af1565b905092915050565b600080836001016000848152602001908152602001600020549050600081146149be576000600182039050600060018660000180549050039050600086600001828154811061492d57fe5b906000526020600020015490508087600001848154811061494a57fe5b906000526020600020018190555060018301876001016000838152602001908152602001600020819055508660000180548061498257fe5b600190038181906000526020600020016000905590558660010160008781526020019081526020016000206000905560019450505050506149c4565b60009150505b92915050565b60006149d68383614abd565b614a2f578260000182908060018154018082558091505060019003906000526020600020016000909190919091505582600001805490508360010160008481526020019081526020016000208190555060019050614a34565b600090505b92915050565b600081836000018054905011614a9b576040517f08c379a0000000000000000000000000000000000000000000000000000000008152600401808060200182810382526022815260200180614dec6022913960400191505060405180910390fd5b826000018281548110614aaa57fe5b9060005260206000200154905092915050565b600080836001016000848152602001908152602001600020541415905092915050565b600081600001805490509050919050565b6000838311158290614b9e576040517f08c379a00000000000000000000000000000000000000000000000000000000081526004018080602001828103825283818151815260200191508051906020019080838360005b83811015614b63578082015181840152602081019050614b48565b50505050905090810190601f168015614b905780820380516001836020036101000a031916815260200191505b509250505060405180910390fd5b5060008385039050809150509392505050565b604051806102a00160405280600073ffffffffffffffffffffffffffffffffffffffff168152602001600073ffffffffffffffffffffffffffffffffffffffff168152602001600073ffffffffffffffffffffffffffffffffffffffff168152602001600073ffffffffffffffffffffffffffffffffffffffff168152602001600073ffffffffffffffffffffffffffffffffffffffff168152602001614c56614d66565b8152602001614c63614d66565b8152602001600015158152602001600015158152602001600015158152602001600015158152602001614c94614d7f565b8152602001614ca1614d7f565b8152602001614cae614d7f565b8152602001614cbb614d99565b81526020016000815260200160008152602001600015158152602001600073ffffffffffffffffffffffffffffffffffffffff168152602001600073ffffffffffffffffffffffffffffffffffffffff168152602001600081525090565b828054828255906000526020600020908101928215614d55579160200282015b82811115614d54578251825591602001919060010190614d39565b5b509050614d629190614db3565b5090565b6040518060200160405280614d79614dd8565b81525090565b604051806040016040528060008152602001600081525090565b604051806040016040528060008152602001600081525090565b614dd591905b80821115614dd1576000816000905550600101614db9565b5090565b90565b604051806020016040528060608152509056fe456e756d657261626c655365743a20696e646578206f7574206f6620626f756e64734f776e61626c653a206e6577206f776e657220697320746865207a65726f2061646472657373a2646970667358221220dd947224c2dd2d2cfb53e3de48eeea057fd4ee99cf9f975e61f8c28183a3e45064736f6c63430006080033436f6e747261637420696e7374616e63652068617320616c7265616479206265656e20696e697469616c697a6564",
  "immutableReferences": {},
  "source": "// SPDX-License-Identifier: MIT\n\npragma solidity 0.6.8;\n\nimport \"./EnumerableSet.sol\";\nimport \"./Ownable.sol\";\nimport \"./SafeMath.sol\";\nimport \"./IXToken.sol\";\nimport \"./IERC721.sol\";\nimport \"./SafeERC20.sol\";\n\ncontract XStore is Ownable {\n    using SafeMath for uint256;\n    using SafeERC20 for IERC20;\n    using EnumerableSet for EnumerableSet.UintSet;\n\n    struct FeeParams {\n        uint256 ethBase;\n        uint256 ethStep;\n    }\n\n    struct BountyParams {\n        uint256 ethMax;\n        uint256 length;\n    }\n\n    struct Vault {\n        address xTokenAddress;\n        address nftAddress;\n        address manager;\n        IXToken xToken;\n        IERC721 nft;\n        EnumerableSet.UintSet holdings;\n        EnumerableSet.UintSet reserves;\n        mapping(uint256 => address) requester;\n        mapping(uint256 => bool) isEligible;\n        mapping(uint256 => bool) shouldReserve;\n        bool flipEligOnRedeem;\n        bool negateEligibility;\n        bool isFinalized;\n        bool isClosed;\n        FeeParams mintFees;\n        FeeParams burnFees;\n        FeeParams dualFees;\n        BountyParams supplierBounty;\n        uint256 ethBalance;\n        uint256 tokenBalance;\n        bool isD2Vault;\n        address d2AssetAddress;\n        IERC20 d2Asset;\n        uint256 d2Holdings;\n    }\n\n    event XTokenAddressSet(uint256 indexed vaultId, address token);\n    event NftAddressSet(uint256 indexed vaultId, address asset);\n    event ManagerSet(uint256 indexed vaultId, address manager);\n    event XTokenSet(uint256 indexed vaultId);\n    event NftSet(uint256 indexed vaultId);\n    event HoldingsAdded(uint256 indexed vaultId, uint256 id);\n    event HoldingsRemoved(uint256 indexed vaultId, uint256 id);\n    event ReservesAdded(uint256 indexed vaultId, uint256 id);\n    event ReservesRemoved(uint256 indexed vaultId, uint256 id);\n    event RequesterSet(uint256 indexed vaultId, uint256 id, address requester);\n    event IsEligibleSet(uint256 indexed vaultId, uint256 id, bool _bool);\n    event ShouldReserveSet(uint256 indexed vaultId, uint256 id, bool _bool);\n    event FlipEligOnRedeemSet(uint256 indexed vaultId, bool _bool);\n    event NegateEligibilitySet(uint256 indexed vaultId, bool _bool);\n    event IsFinalizedSet(uint256 indexed vaultId, bool _isFinalized);\n    event IsClosedSet(uint256 indexed vaultId, bool _isClosed);\n    event MintFeesSet(\n        uint256 indexed vaultId,\n        uint256 ethBase,\n        uint256 ethStep\n    );\n    event BurnFeesSet(\n        uint256 indexed vaultId,\n        uint256 ethBase,\n        uint256 ethStep\n    );\n    event DualFeesSet(\n        uint256 indexed vaultId,\n        uint256 ethBase,\n        uint256 ethStep\n    );\n    event SupplierBountySet(\n        uint256 indexed vaultId,\n        uint256 ethMax,\n        uint256 length\n    );\n    event EthBalanceSet(uint256 indexed vaultId, uint256 _ethBalance);\n    event TokenBalanceSet(uint256 indexed vaultId, uint256 _tokenBalance);\n    event IsD2VaultSet(uint256 indexed vaultId, bool _isD2Vault);\n    event D2AssetAddressSet(uint256 indexed vaultId, address _d2Asset);\n    event D2AssetSet(uint256 indexed vaultId);\n    event D2HoldingsSet(uint256 indexed vaultId, uint256 _d2Holdings);\n    event NewVaultAdded(uint256 indexed vaultId);\n    event IsExtensionSet(address addr, bool _isExtension);\n    event RandNonceSet(uint256 _randNonce);\n\n    Vault[] internal vaults;\n\n    mapping(address => bool) public isExtension;\n    uint256 public randNonce;\n\n    constructor() public {\n        initOwnable();\n    }\n\n    function _getVault(uint256 vaultId) internal view returns (Vault storage) {\n        require(vaultId < vaults.length, \"Invalid vaultId\");\n        return vaults[vaultId];\n    }\n\n    function vaultsLength() public view returns (uint256) {\n        return vaults.length;\n    }\n\n    function xTokenAddress(uint256 vaultId) public view returns (address) {\n        Vault storage vault = _getVault(vaultId);\n        return vault.xTokenAddress;\n    }\n\n    function nftAddress(uint256 vaultId) public view returns (address) {\n        Vault storage vault = _getVault(vaultId);\n        return vault.nftAddress;\n    }\n\n    function manager(uint256 vaultId) public view returns (address) {\n        Vault storage vault = _getVault(vaultId);\n        return vault.manager;\n    }\n\n    function xToken(uint256 vaultId) public view returns (IXToken) {\n        Vault storage vault = _getVault(vaultId);\n        return vault.xToken;\n    }\n\n    function nft(uint256 vaultId) public view returns (IERC721) {\n        Vault storage vault = _getVault(vaultId);\n        return vault.nft;\n    }\n\n    function holdingsLength(uint256 vaultId) public view returns (uint256) {\n        Vault storage vault = _getVault(vaultId);\n        return vault.holdings.length();\n    }\n\n    function holdingsContains(uint256 vaultId, uint256 elem)\n        public\n        view\n        returns (bool)\n    {\n        Vault storage vault = _getVault(vaultId);\n        return vault.holdings.contains(elem);\n    }\n\n    function holdingsAt(uint256 vaultId, uint256 index)\n        public\n        view\n        returns (uint256)\n    {\n        Vault storage vault = _getVault(vaultId);\n        return vault.holdings.at(index);\n    }\n\n    function reservesLength(uint256 vaultId) public view returns (uint256) {\n        Vault storage vault = _getVault(vaultId);\n        return vault.holdings.length();\n    }\n\n    function reservesContains(uint256 vaultId, uint256 elem)\n        public\n        view\n        returns (bool)\n    {\n        Vault storage vault = _getVault(vaultId);\n        return vault.holdings.contains(elem);\n    }\n\n    function reservesAt(uint256 vaultId, uint256 index)\n        public\n        view\n        returns (uint256)\n    {\n        Vault storage vault = _getVault(vaultId);\n        return vault.holdings.at(index);\n    }\n\n    function requester(uint256 vaultId, uint256 id)\n        public\n        view\n        returns (address)\n    {\n        Vault storage vault = _getVault(vaultId);\n        return vault.requester[id];\n    }\n\n    function isEligible(uint256 vaultId, uint256 id)\n        public\n        view\n        returns (bool)\n    {\n        Vault storage vault = _getVault(vaultId);\n        return vault.isEligible[id];\n    }\n\n    function shouldReserve(uint256 vaultId, uint256 id)\n        public\n        view\n        returns (bool)\n    {\n        Vault storage vault = _getVault(vaultId);\n        return vault.shouldReserve[id];\n    }\n\n    function flipEligOnRedeem(uint256 vaultId) public view returns (bool) {\n        Vault storage vault = _getVault(vaultId);\n        return vault.flipEligOnRedeem;\n    }\n\n    function negateEligibility(uint256 vaultId) public view returns (bool) {\n        Vault storage vault = _getVault(vaultId);\n        return vault.negateEligibility;\n    }\n\n    function isFinalized(uint256 vaultId) public view returns (bool) {\n        Vault storage vault = _getVault(vaultId);\n        return vault.isFinalized;\n    }\n\n    function isClosed(uint256 vaultId) public view returns (bool) {\n        Vault storage vault = _getVault(vaultId);\n        return vault.isClosed;\n    }\n\n    function mintFees(uint256 vaultId) public view returns (uint256, uint256) {\n        Vault storage vault = _getVault(vaultId);\n        return (vault.mintFees.ethBase, vault.mintFees.ethStep);\n    }\n\n    function burnFees(uint256 vaultId) public view returns (uint256, uint256) {\n        Vault storage vault = _getVault(vaultId);\n        return (vault.burnFees.ethBase, vault.burnFees.ethStep);\n    }\n\n    function dualFees(uint256 vaultId) public view returns (uint256, uint256) {\n        Vault storage vault = _getVault(vaultId);\n        return (vault.dualFees.ethBase, vault.dualFees.ethStep);\n    }\n\n    function supplierBounty(uint256 vaultId)\n        public\n        view\n        returns (uint256, uint256)\n    {\n        Vault storage vault = _getVault(vaultId);\n        return (vault.supplierBounty.ethMax, vault.supplierBounty.length);\n    }\n\n    function ethBalance(uint256 vaultId) public view returns (uint256) {\n        Vault storage vault = _getVault(vaultId);\n        return vault.ethBalance;\n    }\n\n    function tokenBalance(uint256 vaultId) public view returns (uint256) {\n        Vault storage vault = _getVault(vaultId);\n        return vault.tokenBalance;\n    }\n\n    function isD2Vault(uint256 vaultId) public view returns (bool) {\n        Vault storage vault = _getVault(vaultId);\n        return vault.isD2Vault;\n    }\n\n    function d2AssetAddress(uint256 vaultId) public view returns (address) {\n        Vault storage vault = _getVault(vaultId);\n        return vault.d2AssetAddress;\n    }\n\n    function d2Asset(uint256 vaultId) public view returns (IERC20) {\n        Vault storage vault = _getVault(vaultId);\n        return vault.d2Asset;\n    }\n\n    function d2Holdings(uint256 vaultId) public view returns (uint256) {\n        Vault storage vault = _getVault(vaultId);\n        return vault.d2Holdings;\n    }\n\n    function setXTokenAddress(uint256 vaultId, address _xTokenAddress)\n        public\n        onlyOwner\n    {\n        Vault storage vault = _getVault(vaultId);\n        vault.xTokenAddress = _xTokenAddress;\n        emit XTokenAddressSet(vaultId, _xTokenAddress);\n    }\n\n    function setNftAddress(uint256 vaultId, address _nft) public onlyOwner {\n        Vault storage vault = _getVault(vaultId);\n        vault.nftAddress = _nft;\n        emit NftAddressSet(vaultId, _nft);\n    }\n\n    function setManager(uint256 vaultId, address _manager) public onlyOwner {\n        Vault storage vault = _getVault(vaultId);\n        vault.manager = _manager;\n        emit ManagerSet(vaultId, _manager);\n    }\n\n    function setXToken(uint256 vaultId) public onlyOwner {\n        Vault storage vault = _getVault(vaultId);\n        vault.xToken = IXToken(vault.xTokenAddress);\n        emit XTokenSet(vaultId);\n    }\n\n    function setNft(uint256 vaultId) public onlyOwner {\n        Vault storage vault = _getVault(vaultId);\n        vault.nft = IERC721(vault.nftAddress);\n        emit NftSet(vaultId);\n    }\n\n    function holdingsAdd(uint256 vaultId, uint256 elem) public onlyOwner {\n        Vault storage vault = _getVault(vaultId);\n        vault.holdings.add(elem);\n        emit HoldingsAdded(vaultId, elem);\n    }\n\n    function holdingsRemove(uint256 vaultId, uint256 elem) public onlyOwner {\n        Vault storage vault = _getVault(vaultId);\n        vault.holdings.remove(elem);\n        emit HoldingsRemoved(vaultId, elem);\n    }\n\n    function reservesAdd(uint256 vaultId, uint256 elem) public onlyOwner {\n        Vault storage vault = _getVault(vaultId);\n        vault.reserves.add(elem);\n        emit ReservesAdded(vaultId, elem);\n    }\n\n    function reservesRemove(uint256 vaultId, uint256 elem) public onlyOwner {\n        Vault storage vault = _getVault(vaultId);\n        vault.reserves.remove(elem);\n        emit ReservesRemoved(vaultId, elem);\n    }\n\n    function setRequester(uint256 vaultId, uint256 id, address _requester)\n        public\n        onlyOwner\n    {\n        Vault storage vault = _getVault(vaultId);\n        vault.requester[id] = _requester;\n        emit RequesterSet(vaultId, id, _requester);\n    }\n\n    function setIsEligible(uint256 vaultId, uint256 id, bool _bool)\n        public\n        onlyOwner\n    {\n        Vault storage vault = _getVault(vaultId);\n        vault.isEligible[id] = _bool;\n        emit IsEligibleSet(vaultId, id, _bool);\n    }\n\n    function setShouldReserve(uint256 vaultId, uint256 id, bool _shouldReserve)\n        public\n        onlyOwner\n    {\n        Vault storage vault = _getVault(vaultId);\n        vault.shouldReserve[id] = _shouldReserve;\n        emit ShouldReserveSet(vaultId, id, _shouldReserve);\n    }\n\n    function setFlipEligOnRedeem(uint256 vaultId, bool flipElig)\n        public\n        onlyOwner\n    {\n        Vault storage vault = _getVault(vaultId);\n        vault.flipEligOnRedeem = flipElig;\n        emit FlipEligOnRedeemSet(vaultId, flipElig);\n    }\n\n    function setNegateEligibility(uint256 vaultId, bool negateElig)\n        public\n        onlyOwner\n    {\n        Vault storage vault = _getVault(vaultId);\n        vault.negateEligibility = negateElig;\n        emit NegateEligibilitySet(vaultId, negateElig);\n    }\n\n    function setIsFinalized(uint256 vaultId, bool _isFinalized)\n        public\n        onlyOwner\n    {\n        Vault storage vault = _getVault(vaultId);\n        vault.isFinalized = _isFinalized;\n        emit IsFinalizedSet(vaultId, _isFinalized);\n    }\n\n    function setIsClosed(uint256 vaultId, bool _isClosed) public onlyOwner {\n        Vault storage vault = _getVault(vaultId);\n        vault.isClosed = _isClosed;\n        emit IsClosedSet(vaultId, _isClosed);\n    }\n\n    function setMintFees(uint256 vaultId, uint256 ethBase, uint256 ethStep)\n        public\n        onlyOwner\n    {\n        Vault storage vault = _getVault(vaultId);\n        vault.mintFees = FeeParams(ethBase, ethStep);\n        emit MintFeesSet(vaultId, ethBase, ethStep);\n    }\n\n    function setBurnFees(uint256 vaultId, uint256 ethBase, uint256 ethStep)\n        public\n        onlyOwner\n    {\n        Vault storage vault = _getVault(vaultId);\n        vault.burnFees = FeeParams(ethBase, ethStep);\n        emit BurnFeesSet(vaultId, ethBase, ethStep);\n    }\n\n    function setDualFees(uint256 vaultId, uint256 ethBase, uint256 ethStep)\n        public\n        onlyOwner\n    {\n        Vault storage vault = _getVault(vaultId);\n        vault.dualFees = FeeParams(ethBase, ethStep);\n        emit DualFeesSet(vaultId, ethBase, ethStep);\n    }\n\n    function setSupplierBounty(uint256 vaultId, uint256 ethMax, uint256 length)\n        public\n        onlyOwner\n    {\n        Vault storage vault = _getVault(vaultId);\n        vault.supplierBounty = BountyParams(ethMax, length);\n        emit SupplierBountySet(vaultId, ethMax, length);\n    }\n\n    function setEthBalance(uint256 vaultId, uint256 _ethBalance)\n        public\n        onlyOwner\n    {\n        Vault storage vault = _getVault(vaultId);\n        vault.ethBalance = _ethBalance;\n        emit EthBalanceSet(vaultId, _ethBalance);\n    }\n\n    function setTokenBalance(uint256 vaultId, uint256 _tokenBalance)\n        public\n        onlyOwner\n    {\n        Vault storage vault = _getVault(vaultId);\n        vault.tokenBalance = _tokenBalance;\n        emit TokenBalanceSet(vaultId, _tokenBalance);\n    }\n\n    function setIsD2Vault(uint256 vaultId, bool _isD2Vault) public onlyOwner {\n        Vault storage vault = _getVault(vaultId);\n        vault.isD2Vault = _isD2Vault;\n        emit IsD2VaultSet(vaultId, _isD2Vault);\n    }\n\n    function setD2AssetAddress(uint256 vaultId, address _d2Asset)\n        public\n        onlyOwner\n    {\n        Vault storage vault = _getVault(vaultId);\n        vault.d2AssetAddress = _d2Asset;\n        emit D2AssetAddressSet(vaultId, _d2Asset);\n    }\n\n    function setD2Asset(uint256 vaultId) public onlyOwner {\n        Vault storage vault = _getVault(vaultId);\n        vault.d2Asset = IERC20(vault.d2AssetAddress);\n        emit D2AssetSet(vaultId);\n    }\n\n    function setD2Holdings(uint256 vaultId, uint256 _d2Holdings)\n        public\n        onlyOwner\n    {\n        Vault storage vault = _getVault(vaultId);\n        vault.d2Holdings = _d2Holdings;\n        emit D2HoldingsSet(vaultId, _d2Holdings);\n    }\n\n    ////////////////////////////////////////////////////////////\n\n    function addNewVault() public onlyOwner returns (uint256) {\n        Vault memory newVault;\n        vaults.push(newVault);\n        uint256 vaultId = vaults.length.sub(1);\n        emit NewVaultAdded(vaultId);\n        return vaultId;\n    }\n\n    function setIsExtension(address addr, bool _isExtension) public onlyOwner {\n        isExtension[addr] = _isExtension;\n        emit IsExtensionSet(addr, _isExtension);\n    }\n\n    function setRandNonce(uint256 _randNonce) public onlyOwner {\n        randNonce = _randNonce;\n        emit RandNonceSet(_randNonce);\n    }\n}\n",
  "sourcePath": "/Applications/MAMP/htdocs/nftx-graph/contracts/XStore.sol",
  "compiler": {
    "name": "solc",
    "version": "0.6.8+commit.0bbfe453.Emscripten.clang"
  },
  "schemaVersion": "3.3.4",
  "updatedAt": "2021-02-23T14:45:40.947Z",
  "networkType": "ethereum",
  "devdoc": {
    "methods": {
      "owner()": {
        "details": "Returns the address of the current owner."
      },
      "renounceOwnership()": {
        "details": "Leaves the contract without owner. It will not be possible to call `onlyOwner` functions anymore. Can only be called by the current owner.     * NOTE: Renouncing ownership will leave the contract without an owner, thereby removing any functionality that is only available to the owner."
      },
      "transferOwnership(address)": {
        "details": "Transfers ownership of the contract to a new account (`newOwner`). Can only be called by the current owner."
      }
    }
  },
  "userdoc": {
    "methods": {
      "addNewVault()": {
        "notice": "/////////////////////////////////////////////////////////"
      }
    }
  }
}